{
  "_format": "hh-sol-artifact-1",
  "contractName": "AssetContract",
  "sourceName": "contracts/Asset.sol",
  "abi": [
    {
      "anonymous": false,
      "inputs": [
        {
          "indexed": false,
          "internalType": "uint256",
          "name": "id",
          "type": "uint256"
        },
        {
          "indexed": false,
          "internalType": "uint256",
          "name": "price",
          "type": "uint256"
        },
        {
          "indexed": false,
          "internalType": "string",
          "name": "company_id",
          "type": "string"
        },
        {
          "indexed": false,
          "internalType": "address",
          "name": "owner",
          "type": "address"
        },
        {
          "indexed": false,
          "internalType": "bool",
          "name": "isListed",
          "type": "bool"
        }
      ],
      "name": "AssetStateChanged",
      "type": "event"
    },
    {
      "inputs": [
        {
          "internalType": "string",
          "name": "",
          "type": "string"
        },
        {
          "internalType": "uint256",
          "name": "",
          "type": "uint256"
        }
      ],
      "name": "AssetListByCompany",
      "outputs": [
        {
          "internalType": "uint256",
          "name": "id",
          "type": "uint256"
        },
        {
          "internalType": "uint256",
          "name": "price",
          "type": "uint256"
        },
        {
          "internalType": "string",
          "name": "company_id",
          "type": "string"
        },
        {
          "internalType": "address",
          "name": "owner",
          "type": "address"
        },
        {
          "internalType": "bool",
          "name": "isListed",
          "type": "bool"
        }
      ],
      "stateMutability": "view",
      "type": "function"
    },
    {
      "inputs": [
        {
          "internalType": "string",
          "name": "company_id",
          "type": "string"
        },
        {
          "internalType": "uint256",
          "name": "_id",
          "type": "uint256"
        },
        {
          "internalType": "address",
          "name": "_newOwner",
          "type": "address"
        }
      ],
      "name": "changeAssetOwner",
      "outputs": [],
      "stateMutability": "nonpayable",
      "type": "function"
    },
    {
      "inputs": [
        {
          "internalType": "uint256",
          "name": "price",
          "type": "uint256"
        },
        {
          "internalType": "uint256",
          "name": "_amount",
          "type": "uint256"
        },
        {
          "internalType": "string",
          "name": "company_id",
          "type": "string"
        }
      ],
      "name": "createAsset",
      "outputs": [],
      "stateMutability": "nonpayable",
      "type": "function"
    },
    {
      "inputs": [
        {
          "internalType": "string[]",
          "name": "_companyIds",
          "type": "string[]"
        }
      ],
      "name": "getAllAssets",
      "outputs": [
        {
          "components": [
            {
              "internalType": "uint256",
              "name": "id",
              "type": "uint256"
            },
            {
              "internalType": "uint256",
              "name": "price",
              "type": "uint256"
            },
            {
              "internalType": "string",
              "name": "company_id",
              "type": "string"
            },
            {
              "internalType": "address",
              "name": "owner",
              "type": "address"
            },
            {
              "internalType": "bool",
              "name": "isListed",
              "type": "bool"
            }
          ],
          "internalType": "struct AssetContract.Asset[]",
          "name": "",
          "type": "tuple[]"
        }
      ],
      "stateMutability": "view",
      "type": "function"
    },
    {
      "inputs": [
        {
          "internalType": "string",
          "name": "company_id",
          "type": "string"
        },
        {
          "internalType": "uint256",
          "name": "_id",
          "type": "uint256"
        }
      ],
      "name": "getAsset",
      "outputs": [
        {
          "components": [
            {
              "internalType": "uint256",
              "name": "id",
              "type": "uint256"
            },
            {
              "internalType": "uint256",
              "name": "price",
              "type": "uint256"
            },
            {
              "internalType": "string",
              "name": "company_id",
              "type": "string"
            },
            {
              "internalType": "address",
              "name": "owner",
              "type": "address"
            },
            {
              "internalType": "bool",
              "name": "isListed",
              "type": "bool"
            }
          ],
          "internalType": "struct AssetContract.Asset",
          "name": "",
          "type": "tuple"
        }
      ],
      "stateMutability": "view",
      "type": "function"
    },
    {
      "inputs": [
        {
          "internalType": "string[]",
          "name": "_companyIds",
          "type": "string[]"
        }
      ],
      "name": "getAssetsByOwner",
      "outputs": [
        {
          "components": [
            {
              "internalType": "uint256",
              "name": "id",
              "type": "uint256"
            },
            {
              "internalType": "uint256",
              "name": "price",
              "type": "uint256"
            },
            {
              "internalType": "string",
              "name": "company_id",
              "type": "string"
            },
            {
              "internalType": "address",
              "name": "owner",
              "type": "address"
            },
            {
              "internalType": "bool",
              "name": "isListed",
              "type": "bool"
            }
          ],
          "internalType": "struct AssetContract.Asset[]",
          "name": "",
          "type": "tuple[]"
        }
      ],
      "stateMutability": "view",
      "type": "function"
    },
    {
      "inputs": [
        {
          "internalType": "string",
          "name": "company_id",
          "type": "string"
        },
        {
          "internalType": "uint256",
          "name": "price",
          "type": "uint256"
        }
      ],
      "name": "getBuyOrderItems",
      "outputs": [
        {
          "components": [
            {
              "internalType": "string",
              "name": "company_id",
              "type": "string"
            },
            {
              "internalType": "uint256",
              "name": "asset_id",
              "type": "uint256"
            }
          ],
          "internalType": "struct AssetContract.OrderAssetInfo[]",
          "name": "",
          "type": "tuple[]"
        }
      ],
      "stateMutability": "view",
      "type": "function"
    },
    {
      "inputs": [
        {
          "internalType": "string",
          "name": "_companyId",
          "type": "string"
        }
      ],
      "name": "getCompanyAssets",
      "outputs": [
        {
          "components": [
            {
              "internalType": "uint256",
              "name": "id",
              "type": "uint256"
            },
            {
              "internalType": "uint256",
              "name": "price",
              "type": "uint256"
            },
            {
              "internalType": "string",
              "name": "company_id",
              "type": "string"
            },
            {
              "internalType": "address",
              "name": "owner",
              "type": "address"
            },
            {
              "internalType": "bool",
              "name": "isListed",
              "type": "bool"
            }
          ],
          "internalType": "struct AssetContract.Asset[]",
          "name": "",
          "type": "tuple[]"
        }
      ],
      "stateMutability": "view",
      "type": "function"
    },
    {
      "inputs": [
        {
          "internalType": "string",
          "name": "_companyId",
          "type": "string"
        }
      ],
      "name": "getCompanyAssetsInfo",
      "outputs": [
        {
          "components": [
            {
              "internalType": "string",
              "name": "company_id",
              "type": "string"
            },
            {
              "internalType": "uint256",
              "name": "lowPrice",
              "type": "uint256"
            },
            {
              "internalType": "uint256",
              "name": "midPrice",
              "type": "uint256"
            },
            {
              "internalType": "uint256",
              "name": "highPrice",
              "type": "uint256"
            }
          ],
          "internalType": "struct AssetContract.CompanyAssetInfo",
          "name": "",
          "type": "tuple"
        }
      ],
      "stateMutability": "view",
      "type": "function"
    },
    {
      "inputs": [
        {
          "internalType": "string",
          "name": "_companyId",
          "type": "string"
        }
      ],
      "name": "getCompanyMarketAssets",
      "outputs": [
        {
          "components": [
            {
              "internalType": "uint256",
              "name": "id",
              "type": "uint256"
            },
            {
              "internalType": "uint256",
              "name": "price",
              "type": "uint256"
            },
            {
              "internalType": "string",
              "name": "company_id",
              "type": "string"
            },
            {
              "internalType": "address",
              "name": "owner",
              "type": "address"
            },
            {
              "internalType": "bool",
              "name": "isListed",
              "type": "bool"
            }
          ],
          "internalType": "struct AssetContract.Asset[]",
          "name": "",
          "type": "tuple[]"
        }
      ],
      "stateMutability": "view",
      "type": "function"
    },
    {
      "inputs": [
        {
          "internalType": "string[]",
          "name": "_companyIds",
          "type": "string[]"
        }
      ],
      "name": "getMarketAssets",
      "outputs": [
        {
          "components": [
            {
              "internalType": "uint256",
              "name": "id",
              "type": "uint256"
            },
            {
              "internalType": "uint256",
              "name": "price",
              "type": "uint256"
            },
            {
              "internalType": "string",
              "name": "company_id",
              "type": "string"
            },
            {
              "internalType": "address",
              "name": "owner",
              "type": "address"
            },
            {
              "internalType": "bool",
              "name": "isListed",
              "type": "bool"
            }
          ],
          "internalType": "struct AssetContract.Asset[]",
          "name": "",
          "type": "tuple[]"
        }
      ],
      "stateMutability": "view",
      "type": "function"
    },
    {
      "inputs": [
        {
          "internalType": "string",
          "name": "_compID",
          "type": "string"
        },
        {
          "internalType": "uint256",
          "name": "_id",
          "type": "uint256"
        },
        {
          "internalType": "uint256",
          "name": "price",
          "type": "uint256"
        }
      ],
      "name": "listAsset",
      "outputs": [],
      "stateMutability": "nonpayable",
      "type": "function"
    },
    {
      "inputs": [
        {
          "internalType": "string",
          "name": "_compID",
          "type": "string"
        },
        {
          "internalType": "uint256",
          "name": "_id",
          "type": "uint256"
        }
      ],
      "name": "unlistAsset",
      "outputs": [],
      "stateMutability": "nonpayable",
      "type": "function"
    }
  ],
  "bytecode": "0x608060405234801561001057600080fd5b50613658806100206000396000f3fe608060405234801561001057600080fd5b50600436106100cf5760003560e01c8063921cb4351161008c578063ce43145611610066578063ce43145614610260578063d3218d2c14610290578063d639cedd146102ac578063e5922947146102c8576100cf565b8063921cb435146101e057806394060ba614610214578063aec7cbd214610230576100cf565b8063199d8353146100d45780635d351d951461010457806380605f5b146101345780638289ac7b14610150578063899873ea146101805780638dc28966146101b0575b600080fd5b6100ee60048036038101906100e99190612a7c565b6102f8565b6040516100fb91906130b9565b60405180910390f35b61011e60048036038101906101199190612abd565b61063c565b60405161012b919061311f565b60405180910390f35b61014e60048036038101906101499190612bb9565b6108f7565b005b61016a60048036038101906101659190612a7c565b610ac4565b60405161017791906130b9565b60405180910390f35b61019a60048036038101906101959190612abd565b6110b0565b6040516101a791906130b9565b60405180910390f35b6101ca60048036038101906101c59190612afe565b611244565b6040516101d791906130db565b60405180910390f35b6101fa60048036038101906101f59190612afe565b6114b6565b60405161020b959493929190613141565b60405180910390f35b61022e60048036038101906102299190612c20565b6115d4565b005b61024a60048036038101906102459190612afe565b611780565b60405161025791906130fd565b60405180910390f35b61027a60048036038101906102759190612a7c565b611853565b60405161028791906130b9565b60405180910390f35b6102aa60048036038101906102a59190612afe565b611fc9565b005b6102c660048036038101906102c19190612b52565b61211d565b005b6102e260048036038101906102dd9190612abd565b612298565b6040516102ef91906130b9565b60405180910390f35b6060600080805467ffffffffffffffff81111561033e577f4e487b7100000000000000000000000000000000000000000000000000000000600052604160045260246000fd5b60405190808252806020026020018201604052801561037757816020015b61036461280e565b81526020019060019003908161035c5790505b50905060005b84518110156106315760005b60018683815181106103c4577f4e487b7100000000000000000000000000000000000000000000000000000000600052603260045260246000fd5b60200260200101516040516103d991906130a2565b90815260200160405180910390208054905081101561061d57600186838151811061042d577f4e487b7100000000000000000000000000000000000000000000000000000000600052603260045260246000fd5b602002602001015160405161044291906130a2565b90815260200160405180910390208181548110610488577f4e487b7100000000000000000000000000000000000000000000000000000000600052603260045260246000fd5b90600052602060002090600402016040518060a001604052908160008201548152602001600182015481526020016002820180546104c59061347b565b80601f01602080910402602001604051908101604052809291908181526020018280546104f19061347b565b801561053e5780601f106105135761010080835404028352916020019161053e565b820191906000526020600020905b81548152906001019060200180831161052157829003601f168201915b505050505081526020016003820160009054906101000a900473ffffffffffffffffffffffffffffffffffffffff1673ffffffffffffffffffffffffffffffffffffffff1673ffffffffffffffffffffffffffffffffffffffff1681526020016003820160149054906101000a900460ff1615151515815250508385815181106105f1577f4e487b7100000000000000000000000000000000000000000000000000000000600052603260045260246000fd5b60200260200101819052508380610607906134de565b9450508080610615906134de565b915050610389565b508080610629906134de565b91505061037d565b508092505050919050565b610644612855565b600061064f836110b0565b9050600081511415610687576040518060800160405280848152602001600081526020016000815260200160008152509150506108f2565b6000816000815181106106c3577f4e487b7100000000000000000000000000000000000000000000000000000000600052603260045260246000fd5b60200260200101516020015190506000808360008151811061070e577f4e487b7100000000000000000000000000000000000000000000000000000000600052603260045260246000fd5b602002602001015160200151905060005b84518110156108ba5783858281518110610762577f4e487b7100000000000000000000000000000000000000000000000000000000600052603260045260246000fd5b60200260200101516020015110156107c0578481815181106107ad577f4e487b7100000000000000000000000000000000000000000000000000000000600052603260045260246000fd5b6020026020010151602001519350610855565b818582815181106107fa577f4e487b7100000000000000000000000000000000000000000000000000000000600052603260045260246000fd5b602002602001015160200151111561085457848181518110610845577f4e487b7100000000000000000000000000000000000000000000000000000000600052603260045260246000fd5b60200260200101516020015191505b5b84818151811061088e577f4e487b7100000000000000000000000000000000000000000000000000000000600052603260045260246000fd5b602002602001015160200151836108a59190613336565b925080806108b2906134de565b91505061071f565b508351826108c8919061338c565b91506040518060800160405280878152602001848152602001838152602001828152509450505050505b919050565b600060018460405161090991906130a2565b90815260200160405180910390209050600081600081548110610955577f4e487b7100000000000000000000000000000000000000000000000000000000600052603260045260246000fd5b9060005260206000209060040201905060005b8280549050811015610a2757848382815481106109ae577f4e487b7100000000000000000000000000000000000000000000000000000000600052603260045260246000fd5b9060005260206000209060040201600001541415610a14578281815481106109ff577f4e487b7100000000000000000000000000000000000000000000000000000000600052603260045260246000fd5b90600052602060002090600402019150610a27565b8080610a1f906134de565b915050610968565b5060018160030160146101000a81548160ff0219169083151502179055508281600101819055507fba5c90629b84246d0de98790c3e19e90034be90a8de33eb4fc85209a87a68c3f81600001548260010154836002018460030160009054906101000a900473ffffffffffffffffffffffffffffffffffffffff166001604051610ab595949392919061319b565b60405180910390a15050505050565b606060008060005b8451811015610c725760005b6001868381518110610b13577f4e487b7100000000000000000000000000000000000000000000000000000000600052603260045260246000fd5b6020026020010151604051610b2891906130a2565b908152602001604051809103902080549050811015610c5e573373ffffffffffffffffffffffffffffffffffffffff166001878481518110610b93577f4e487b7100000000000000000000000000000000000000000000000000000000600052603260045260246000fd5b6020026020010151604051610ba891906130a2565b90815260200160405180910390208281548110610bee577f4e487b7100000000000000000000000000000000000000000000000000000000600052603260045260246000fd5b906000526020600020906004020160030160009054906101000a900473ffffffffffffffffffffffffffffffffffffffff1673ffffffffffffffffffffffffffffffffffffffff161415610c4b578280610c47906134de565b9350505b8080610c56906134de565b915050610ad8565b508080610c6a906134de565b915050610acc565b5060008167ffffffffffffffff811115610cb5577f4e487b7100000000000000000000000000000000000000000000000000000000600052604160045260246000fd5b604051908082528060200260200182016040528015610cee57816020015b610cdb61280e565b815260200190600190039081610cd35790505b50905060005b85518110156110a45760005b6001878381518110610d3b577f4e487b7100000000000000000000000000000000000000000000000000000000600052603260045260246000fd5b6020026020010151604051610d5091906130a2565b908152602001604051809103902080549050811015611090573373ffffffffffffffffffffffffffffffffffffffff166001888481518110610dbb577f4e487b7100000000000000000000000000000000000000000000000000000000600052603260045260246000fd5b6020026020010151604051610dd091906130a2565b90815260200160405180910390208281548110610e16577f4e487b7100000000000000000000000000000000000000000000000000000000600052603260045260246000fd5b906000526020600020906004020160030160009054906101000a900473ffffffffffffffffffffffffffffffffffffffff1673ffffffffffffffffffffffffffffffffffffffff16141561107d576001878381518110610e9f577f4e487b7100000000000000000000000000000000000000000000000000000000600052603260045260246000fd5b6020026020010151604051610eb491906130a2565b90815260200160405180910390208181548110610efa577f4e487b7100000000000000000000000000000000000000000000000000000000600052603260045260246000fd5b90600052602060002090600402016040518060a00160405290816000820154815260200160018201548152602001600282018054610f379061347b565b80601f0160208091040260200160405190810160405280929190818152602001828054610f639061347b565b8015610fb05780601f10610f8557610100808354040283529160200191610fb0565b820191906000526020600020905b815481529060010190602001808311610f9357829003601f168201915b505050505081526020016003820160009054906101000a900473ffffffffffffffffffffffffffffffffffffffff1673ffffffffffffffffffffffffffffffffffffffff1673ffffffffffffffffffffffffffffffffffffffff1681526020016003820160149054906101000a900460ff161515151581525050838681518110611063577f4e487b7100000000000000000000000000000000000000000000000000000000600052603260045260246000fd5b60200260200101819052508480611079906134de565b9550505b8080611088906134de565b915050610d00565b50808061109c906134de565b915050610cf4565b50809350505050919050565b60606001826040516110c291906130a2565b9081526020016040518091039020805480602002602001604051908101604052809291908181526020016000905b8282101561123957838290600052602060002090600402016040518060a001604052908160008201548152602001600182015481526020016002820180546111379061347b565b80601f01602080910402602001604051908101604052809291908181526020018280546111639061347b565b80156111b05780601f10611185576101008083540402835291602001916111b0565b820191906000526020600020905b81548152906001019060200180831161119357829003601f168201915b505050505081526020016003820160009054906101000a900473ffffffffffffffffffffffffffffffffffffffff1673ffffffffffffffffffffffffffffffffffffffff1673ffffffffffffffffffffffffffffffffffffffff1681526020016003820160149054906101000a900460ff161515151581525050815260200190600101906110f0565b505050509050919050565b6060600061125184612298565b905060008060005b83518110156112cf578584828151811061129c577f4e487b7100000000000000000000000000000000000000000000000000000000600052603260045260246000fd5b602002602001015160200151116112bc5781806112b8906134de565b9250505b80806112c7906134de565b915050611259565b5060008167ffffffffffffffff811115611312577f4e487b7100000000000000000000000000000000000000000000000000000000600052604160045260246000fd5b60405190808252806020026020018201604052801561134b57816020015b61133861287d565b8152602001906001900390816113305790505b50905060005b84518110156114a85786858281518110611394577f4e487b7100000000000000000000000000000000000000000000000000000000600052603260045260246000fd5b602002602001015160200151116114955760405180604001604052808683815181106113e9577f4e487b7100000000000000000000000000000000000000000000000000000000600052603260045260246000fd5b6020026020010151604001518152602001868381518110611433577f4e487b7100000000000000000000000000000000000000000000000000000000600052603260045260246000fd5b60200260200101516000015181525082858151811061147b577f4e487b7100000000000000000000000000000000000000000000000000000000600052603260045260246000fd5b60200260200101819052508380611491906134de565b9450505b80806114a0906134de565b915050611351565b508094505050505092915050565b60018280516020810182018051848252602083016020850120818352809550505050505081815481106114e857600080fd5b9060005260206000209060040201600091509150508060000154908060010154908060020180546115189061347b565b80601f01602080910402602001604051908101604052809291908181526020018280546115449061347b565b80156115915780601f1061156657610100808354040283529160200191611591565b820191906000526020600020905b81548152906001019060200180831161157457829003601f168201915b5050505050908060030160009054906101000a900473ffffffffffffffffffffffffffffffffffffffff16908060030160149054906101000a900460ff16905085565b60005b8281101561177a576001826040516115ef91906130a2565b90815260200160405180910390206040518060a0016040528060005481526020018681526020018481526020013373ffffffffffffffffffffffffffffffffffffffff16815260200160011515815250908060018154018082558091505060019003906000526020600020906004020160009091909190915060008201518160000155602082015181600101556040820151816002019080519060200190611698929190612897565b5060608201518160030160006101000a81548173ffffffffffffffffffffffffffffffffffffffff021916908373ffffffffffffffffffffffffffffffffffffffff16021790555060808201518160030160146101000a81548160ff0219169083151502179055505050600080815480929190611714906134de565b91905055507fba5c90629b84246d0de98790c3e19e90034be90a8de33eb4fc85209a87a68c3f600160005461174991906133bd565b858433600160405161175f959493929190613141565b60405180910390a18080611772906134de565b9150506115d7565b50505050565b61178861280e565b6000611793846110b0565b905060005b815181101561184a57838282815181106117db577f4e487b7100000000000000000000000000000000000000000000000000000000600052603260045260246000fd5b602002602001015160000151141561183757818181518110611826577f4e487b7100000000000000000000000000000000000000000000000000000000600052603260045260246000fd5b60200260200101519250505061184d565b8080611842906134de565b915050611798565b50505b92915050565b606060008060005b8451811015611ac65760005b60018683815181106118a2577f4e487b7100000000000000000000000000000000000000000000000000000000600052603260045260246000fd5b60200260200101516040516118b791906130a2565b908152602001604051809103902080549050811015611ab2573273ffffffffffffffffffffffffffffffffffffffff166001878481518110611922577f4e487b7100000000000000000000000000000000000000000000000000000000600052603260045260246000fd5b602002602001015160405161193791906130a2565b9081526020016040518091039020828154811061197d577f4e487b7100000000000000000000000000000000000000000000000000000000600052603260045260246000fd5b906000526020600020906004020160030160009054906101000a900473ffffffffffffffffffffffffffffffffffffffff1673ffffffffffffffffffffffffffffffffffffffff1614158015611a8b5750600115156001878481518110611a0d577f4e487b7100000000000000000000000000000000000000000000000000000000600052603260045260246000fd5b6020026020010151604051611a2291906130a2565b90815260200160405180910390208281548110611a68577f4e487b7100000000000000000000000000000000000000000000000000000000600052603260045260246000fd5b906000526020600020906004020160030160149054906101000a900460ff161515145b15611a9f578280611a9b906134de565b9350505b8080611aaa906134de565b915050611867565b508080611abe906134de565b91505061185b565b5060008167ffffffffffffffff811115611b09577f4e487b7100000000000000000000000000000000000000000000000000000000600052604160045260246000fd5b604051908082528060200260200182016040528015611b4257816020015b611b2f61280e565b815260200190600190039081611b275790505b50905060005b8551811015611fbd5760005b6001878381518110611b8f577f4e487b7100000000000000000000000000000000000000000000000000000000600052603260045260246000fd5b6020026020010151604051611ba491906130a2565b908152602001604051809103902080549050811015611fa9573273ffffffffffffffffffffffffffffffffffffffff166001888481518110611c0f577f4e487b7100000000000000000000000000000000000000000000000000000000600052603260045260246000fd5b6020026020010151604051611c2491906130a2565b90815260200160405180910390208281548110611c6a577f4e487b7100000000000000000000000000000000000000000000000000000000600052603260045260246000fd5b906000526020600020906004020160030160009054906101000a900473ffffffffffffffffffffffffffffffffffffffff1673ffffffffffffffffffffffffffffffffffffffff1614158015611d785750600115156001888481518110611cfa577f4e487b7100000000000000000000000000000000000000000000000000000000600052603260045260246000fd5b6020026020010151604051611d0f91906130a2565b90815260200160405180910390208281548110611d55577f4e487b7100000000000000000000000000000000000000000000000000000000600052603260045260246000fd5b906000526020600020906004020160030160149054906101000a900460ff161515145b15611f96576001878381518110611db8577f4e487b7100000000000000000000000000000000000000000000000000000000600052603260045260246000fd5b6020026020010151604051611dcd91906130a2565b90815260200160405180910390208181548110611e13577f4e487b7100000000000000000000000000000000000000000000000000000000600052603260045260246000fd5b90600052602060002090600402016040518060a00160405290816000820154815260200160018201548152602001600282018054611e509061347b565b80601f0160208091040260200160405190810160405280929190818152602001828054611e7c9061347b565b8015611ec95780601f10611e9e57610100808354040283529160200191611ec9565b820191906000526020600020905b815481529060010190602001808311611eac57829003601f168201915b505050505081526020016003820160009054906101000a900473ffffffffffffffffffffffffffffffffffffffff1673ffffffffffffffffffffffffffffffffffffffff1673ffffffffffffffffffffffffffffffffffffffff1681526020016003820160149054906101000a900460ff161515151581525050838681518110611f7c577f4e487b7100000000000000000000000000000000000000000000000000000000600052603260045260246000fd5b60200260200101819052508480611f92906134de565b9550505b8080611fa1906134de565b915050611b54565b508080611fb5906134de565b915050611b48565b50809350505050919050565b6000600183604051611fdb91906130a2565b90815260200160405180910390209050600081600081548110612027577f4e487b7100000000000000000000000000000000000000000000000000000000600052603260045260246000fd5b9060005260206000209060040201905060005b82805490508110156120f95783838281548110612080577f4e487b7100000000000000000000000000000000000000000000000000000000600052603260045260246000fd5b90600052602060002090600402016000015414156120e6578281815481106120d1577f4e487b7100000000000000000000000000000000000000000000000000000000600052603260045260246000fd5b906000526020600020906004020191506120f9565b80806120f1906134de565b91505061203a565b5060008160030160146101000a81548160ff02191690831515021790555050505050565b600060018460405161212f91906130a2565b9081526020016040518091039020905060008160008154811061217b577f4e487b7100000000000000000000000000000000000000000000000000000000600052603260045260246000fd5b9060005260206000209060040201905060005b828054905081101561224d57848382815481106121d4577f4e487b7100000000000000000000000000000000000000000000000000000000600052603260045260246000fd5b906000526020600020906004020160000154141561223a57828181548110612225577f4e487b7100000000000000000000000000000000000000000000000000000000600052603260045260246000fd5b9060005260206000209060040201915061224d565b8080612245906134de565b91505061218e565b50828160030160006101000a81548173ffffffffffffffffffffffffffffffffffffffff021916908373ffffffffffffffffffffffffffffffffffffffff1602179055505050505050565b606060008060005b6001856040516122b091906130a2565b90815260200160405180910390208054905081101561242b573273ffffffffffffffffffffffffffffffffffffffff166001866040516122f091906130a2565b90815260200160405180910390208281548110612336577f4e487b7100000000000000000000000000000000000000000000000000000000600052603260045260246000fd5b906000526020600020906004020160030160009054906101000a900473ffffffffffffffffffffffffffffffffffffffff1673ffffffffffffffffffffffffffffffffffffffff161415801561240457506001151560018660405161239b91906130a2565b908152602001604051809103902082815481106123e1577f4e487b7100000000000000000000000000000000000000000000000000000000600052603260045260246000fd5b906000526020600020906004020160030160149054906101000a900460ff161515145b15612418578180612414906134de565b9250505b8080612423906134de565b9150506122a0565b5060008167ffffffffffffffff81111561246e577f4e487b7100000000000000000000000000000000000000000000000000000000600052604160045260246000fd5b6040519080825280602002602001820160405280156124a757816020015b61249461280e565b81526020019060019003908161248c5790505b50905060005b6001866040516124bd91906130a2565b908152602001604051809103902080549050811015612802573273ffffffffffffffffffffffffffffffffffffffff166001876040516124fd91906130a2565b90815260200160405180910390208281548110612543577f4e487b7100000000000000000000000000000000000000000000000000000000600052603260045260246000fd5b906000526020600020906004020160030160009054906101000a900473ffffffffffffffffffffffffffffffffffffffff1673ffffffffffffffffffffffffffffffffffffffff16141580156126115750600115156001876040516125a891906130a2565b908152602001604051809103902082815481106125ee577f4e487b7100000000000000000000000000000000000000000000000000000000600052603260045260246000fd5b906000526020600020906004020160030160149054906101000a900460ff161515145b156127ef5760018660405161262691906130a2565b9081526020016040518091039020818154811061266c577f4e487b7100000000000000000000000000000000000000000000000000000000600052603260045260246000fd5b90600052602060002090600402016040518060a001604052908160008201548152602001600182015481526020016002820180546126a99061347b565b80601f01602080910402602001604051908101604052809291908181526020018280546126d59061347b565b80156127225780601f106126f757610100808354040283529160200191612722565b820191906000526020600020905b81548152906001019060200180831161270557829003601f168201915b505050505081526020016003820160009054906101000a900473ffffffffffffffffffffffffffffffffffffffff1673ffffffffffffffffffffffffffffffffffffffff1673ffffffffffffffffffffffffffffffffffffffff1681526020016003820160149054906101000a900460ff1615151515815250508285815181106127d5577f4e487b7100000000000000000000000000000000000000000000000000000000600052603260045260246000fd5b602002602001018190525083806127eb906134de565b9450505b80806127fa906134de565b9150506124ad565b50809350505050919050565b6040518060a00160405280600081526020016000815260200160608152602001600073ffffffffffffffffffffffffffffffffffffffff1681526020016000151581525090565b6040518060800160405280606081526020016000815260200160008152602001600081525090565b604051806040016040528060608152602001600081525090565b8280546128a39061347b565b90600052602060002090601f0160209004810192826128c5576000855561290c565b82601f106128de57805160ff191683800117855561290c565b8280016001018555821561290c579182015b8281111561290b5782518255916020019190600101906128f0565b5b509050612919919061291d565b5090565b5b8082111561293657600081600090555060010161291e565b5090565b600061294d6129488461321a565b6131f5565b9050808382526020820190508285602086028201111561296c57600080fd5b60005b858110156129b657813567ffffffffffffffff81111561298e57600080fd5b80860161299b8982612a3d565b8552602085019450602084019350505060018101905061296f565b5050509392505050565b60006129d36129ce84613246565b6131f5565b9050828152602081018484840111156129eb57600080fd5b6129f6848285613439565b509392505050565b600081359050612a0d816135f4565b92915050565b600082601f830112612a2457600080fd5b8135612a3484826020860161293a565b91505092915050565b600082601f830112612a4e57600080fd5b8135612a5e8482602086016129c0565b91505092915050565b600081359050612a768161360b565b92915050565b600060208284031215612a8e57600080fd5b600082013567ffffffffffffffff811115612aa857600080fd5b612ab484828501612a13565b91505092915050565b600060208284031215612acf57600080fd5b600082013567ffffffffffffffff811115612ae957600080fd5b612af584828501612a3d565b91505092915050565b60008060408385031215612b1157600080fd5b600083013567ffffffffffffffff811115612b2b57600080fd5b612b3785828601612a3d565b9250506020612b4885828601612a67565b9150509250929050565b600080600060608486031215612b6757600080fd5b600084013567ffffffffffffffff811115612b8157600080fd5b612b8d86828701612a3d565b9350506020612b9e86828701612a67565b9250506040612baf868287016129fe565b9150509250925092565b600080600060608486031215612bce57600080fd5b600084013567ffffffffffffffff811115612be857600080fd5b612bf486828701612a3d565b9350506020612c0586828701612a67565b9250506040612c1686828701612a67565b9150509250925092565b600080600060608486031215612c3557600080fd5b6000612c4386828701612a67565b9350506020612c5486828701612a67565b925050604084013567ffffffffffffffff811115612c7157600080fd5b612c7d86828701612a3d565b9150509250925092565b6000612c938383612ef8565b905092915050565b6000612ca78383613047565b905092915050565b612cb8816133f1565b82525050565b612cc7816133f1565b82525050565b6000612cd8826132ac565b612ce281856132e7565b935083602082028501612cf485613277565b8060005b85811015612d305784840389528151612d118582612c87565b9450612d1c836132cd565b925060208a01995050600181019050612cf8565b50829750879550505050505092915050565b6000612d4d826132b7565b612d5781856132f8565b935083602082028501612d6985613287565b8060005b85811015612da55784840389528151612d868582612c9b565b9450612d91836132da565b925060208a01995050600181019050612d6d565b50829750879550505050505092915050565b612dc081613403565b82525050565b612dcf81613403565b82525050565b6000612de0826132c2565b612dea8185613309565b9350612dfa818560208601613448565b612e03816135e3565b840191505092915050565b6000612e19826132c2565b612e23818561331a565b9350612e33818560208601613448565b612e3c816135e3565b840191505092915050565b6000612e52826132c2565b612e5c818561332b565b9350612e6c818560208601613448565b80840191505092915050565b60008154612e858161347b565b612e8f818661331a565b94506001821660008114612eaa5760018114612ebc57612eef565b60ff1983168652602086019350612eef565b612ec585613297565b60005b83811015612ee757815481890152600182019150602081019050612ec8565b808801955050505b50505092915050565b600060a083016000830151612f106000860182613084565b506020830151612f236020860182613084565b5060408301518482036040860152612f3b8282612dd5565b9150506060830151612f506060860182612caf565b506080830151612f636080860182612db7565b508091505092915050565b600060a083016000830151612f866000860182613084565b506020830151612f996020860182613084565b5060408301518482036040860152612fb18282612dd5565b9150506060830151612fc66060860182612caf565b506080830151612fd96080860182612db7565b508091505092915050565b600060808301600083015184820360008601526130018282612dd5565b91505060208301516130166020860182613084565b5060408301516130296040860182613084565b50606083015161303c6060860182613084565b508091505092915050565b600060408301600083015184820360008601526130648282612dd5565b91505060208301516130796020860182613084565b508091505092915050565b61308d8161342f565b82525050565b61309c8161342f565b82525050565b60006130ae8284612e47565b915081905092915050565b600060208201905081810360008301526130d38184612ccd565b905092915050565b600060208201905081810360008301526130f58184612d42565b905092915050565b600060208201905081810360008301526131178184612f6e565b905092915050565b600060208201905081810360008301526131398184612fe4565b905092915050565b600060a0820190506131566000830188613093565b6131636020830187613093565b81810360408301526131758186612e0e565b90506131846060830185612cbe565b6131916080830184612dc6565b9695505050505050565b600060a0820190506131b06000830188613093565b6131bd6020830187613093565b81810360408301526131cf8186612e78565b90506131de6060830185612cbe565b6131eb6080830184612dc6565b9695505050505050565b60006131ff613210565b905061320b82826134ad565b919050565b6000604051905090565b600067ffffffffffffffff821115613235576132346135b4565b5b602082029050602081019050919050565b600067ffffffffffffffff821115613261576132606135b4565b5b61326a826135e3565b9050602081019050919050565b6000819050602082019050919050565b6000819050602082019050919050565b60008190508160005260206000209050919050565b600081519050919050565b600081519050919050565b600081519050919050565b6000602082019050919050565b6000602082019050919050565b600082825260208201905092915050565b600082825260208201905092915050565b600082825260208201905092915050565b600082825260208201905092915050565b600081905092915050565b60006133418261342f565b915061334c8361342f565b9250827fffffffffffffffffffffffffffffffffffffffffffffffffffffffffffffffff0382111561338157613380613527565b5b828201905092915050565b60006133978261342f565b91506133a28361342f565b9250826133b2576133b1613556565b5b828204905092915050565b60006133c88261342f565b91506133d38361342f565b9250828210156133e6576133e5613527565b5b828203905092915050565b60006133fc8261340f565b9050919050565b60008115159050919050565b600073ffffffffffffffffffffffffffffffffffffffff82169050919050565b6000819050919050565b82818337600083830152505050565b60005b8381101561346657808201518184015260208101905061344b565b83811115613475576000848401525b50505050565b6000600282049050600182168061349357607f821691505b602082108114156134a7576134a6613585565b5b50919050565b6134b6826135e3565b810181811067ffffffffffffffff821117156134d5576134d46135b4565b5b80604052505050565b60006134e98261342f565b91507fffffffffffffffffffffffffffffffffffffffffffffffffffffffffffffffff82141561351c5761351b613527565b5b600182019050919050565b7f4e487b7100000000000000000000000000000000000000000000000000000000600052601160045260246000fd5b7f4e487b7100000000000000000000000000000000000000000000000000000000600052601260045260246000fd5b7f4e487b7100000000000000000000000000000000000000000000000000000000600052602260045260246000fd5b7f4e487b7100000000000000000000000000000000000000000000000000000000600052604160045260246000fd5b6000601f19601f8301169050919050565b6135fd816133f1565b811461360857600080fd5b50565b6136148161342f565b811461361f57600080fd5b5056fea2646970667358221220ef69b1c3006b51aae8079445db8f85aec5ddd151de214af6fadce77482c0a35f64736f6c63430008040033",
  "linkReferences": {},
  "deployedLinkReferences": {}
}