{
  "_format": "hh-sol-artifact-1",
  "contractName": "AssetContract",
  "sourceName": "contracts/Asset.sol",
  "abi": [
    {
      "anonymous": false,
      "inputs": [
        {
          "indexed": false,
          "internalType": "uint256",
          "name": "id",
          "type": "uint256"
        },
        {
          "indexed": false,
          "internalType": "uint256",
          "name": "price",
          "type": "uint256"
        },
        {
          "indexed": false,
          "internalType": "string",
          "name": "company_id",
          "type": "string"
        },
        {
          "indexed": false,
          "internalType": "address",
          "name": "owner",
          "type": "address"
        },
        {
          "indexed": false,
          "internalType": "bool",
          "name": "isListed",
          "type": "bool"
        }
      ],
      "name": "AssetStateChanged",
      "type": "event"
    },
    {
      "inputs": [
        {
          "internalType": "string",
          "name": "",
          "type": "string"
        },
        {
          "internalType": "uint256",
          "name": "",
          "type": "uint256"
        }
      ],
      "name": "AssetListByCompany",
      "outputs": [
        {
          "internalType": "uint256",
          "name": "id",
          "type": "uint256"
        },
        {
          "internalType": "uint256",
          "name": "price",
          "type": "uint256"
        },
        {
          "internalType": "string",
          "name": "company_id",
          "type": "string"
        },
        {
          "internalType": "address",
          "name": "owner",
          "type": "address"
        },
        {
          "internalType": "bool",
          "name": "isListed",
          "type": "bool"
        }
      ],
      "stateMutability": "view",
      "type": "function"
    },
    {
      "inputs": [
        {
          "internalType": "string",
          "name": "company_id",
          "type": "string"
        },
        {
          "internalType": "uint256",
          "name": "_id",
          "type": "uint256"
        },
        {
          "internalType": "address",
          "name": "_newOwner",
          "type": "address"
        }
      ],
      "name": "changeAssetOwner",
      "outputs": [],
      "stateMutability": "nonpayable",
      "type": "function"
    },
    {
      "inputs": [
        {
          "internalType": "uint256",
          "name": "price",
          "type": "uint256"
        },
        {
          "internalType": "uint256",
          "name": "_amount",
          "type": "uint256"
        },
        {
          "internalType": "string",
          "name": "company_id",
          "type": "string"
        }
      ],
      "name": "createAsset",
      "outputs": [],
      "stateMutability": "nonpayable",
      "type": "function"
    },
    {
      "inputs": [
        {
          "internalType": "string[]",
          "name": "_companyIds",
          "type": "string[]"
        }
      ],
      "name": "getAllAssets",
      "outputs": [
        {
          "components": [
            {
              "internalType": "uint256",
              "name": "id",
              "type": "uint256"
            },
            {
              "internalType": "uint256",
              "name": "price",
              "type": "uint256"
            },
            {
              "internalType": "string",
              "name": "company_id",
              "type": "string"
            },
            {
              "internalType": "address",
              "name": "owner",
              "type": "address"
            },
            {
              "internalType": "bool",
              "name": "isListed",
              "type": "bool"
            }
          ],
          "internalType": "struct AssetContract.Asset[]",
          "name": "",
          "type": "tuple[]"
        }
      ],
      "stateMutability": "view",
      "type": "function"
    },
    {
      "inputs": [
        {
          "internalType": "string",
          "name": "company_id",
          "type": "string"
        },
        {
          "internalType": "uint256",
          "name": "_id",
          "type": "uint256"
        }
      ],
      "name": "getAsset",
      "outputs": [
        {
          "components": [
            {
              "internalType": "uint256",
              "name": "id",
              "type": "uint256"
            },
            {
              "internalType": "uint256",
              "name": "price",
              "type": "uint256"
            },
            {
              "internalType": "string",
              "name": "company_id",
              "type": "string"
            },
            {
              "internalType": "address",
              "name": "owner",
              "type": "address"
            },
            {
              "internalType": "bool",
              "name": "isListed",
              "type": "bool"
            }
          ],
          "internalType": "struct AssetContract.Asset",
          "name": "",
          "type": "tuple"
        }
      ],
      "stateMutability": "view",
      "type": "function"
    },
    {
      "inputs": [
        {
          "internalType": "string[]",
          "name": "_companyIds",
          "type": "string[]"
        }
      ],
      "name": "getAssetsByOwner",
      "outputs": [
        {
          "components": [
            {
              "internalType": "uint256",
              "name": "id",
              "type": "uint256"
            },
            {
              "internalType": "uint256",
              "name": "price",
              "type": "uint256"
            },
            {
              "internalType": "string",
              "name": "company_id",
              "type": "string"
            },
            {
              "internalType": "address",
              "name": "owner",
              "type": "address"
            },
            {
              "internalType": "bool",
              "name": "isListed",
              "type": "bool"
            }
          ],
          "internalType": "struct AssetContract.Asset[]",
          "name": "",
          "type": "tuple[]"
        }
      ],
      "stateMutability": "view",
      "type": "function"
    },
    {
      "inputs": [
        {
          "internalType": "string",
          "name": "company_id",
          "type": "string"
        },
        {
          "internalType": "uint256",
          "name": "price",
          "type": "uint256"
        }
      ],
      "name": "getBuyOrderItems",
      "outputs": [
        {
          "components": [
            {
              "internalType": "string",
              "name": "company_id",
              "type": "string"
            },
            {
              "internalType": "uint256",
              "name": "asset_id",
              "type": "uint256"
            }
          ],
          "internalType": "struct AssetContract.OrderAssetInfo[]",
          "name": "",
          "type": "tuple[]"
        }
      ],
      "stateMutability": "view",
      "type": "function"
    },
    {
      "inputs": [
        {
          "internalType": "string",
          "name": "_companyId",
          "type": "string"
        }
      ],
      "name": "getCompanyAssets",
      "outputs": [
        {
          "components": [
            {
              "internalType": "uint256",
              "name": "id",
              "type": "uint256"
            },
            {
              "internalType": "uint256",
              "name": "price",
              "type": "uint256"
            },
            {
              "internalType": "string",
              "name": "company_id",
              "type": "string"
            },
            {
              "internalType": "address",
              "name": "owner",
              "type": "address"
            },
            {
              "internalType": "bool",
              "name": "isListed",
              "type": "bool"
            }
          ],
          "internalType": "struct AssetContract.Asset[]",
          "name": "",
          "type": "tuple[]"
        }
      ],
      "stateMutability": "view",
      "type": "function"
    },
    {
      "inputs": [
        {
          "internalType": "string",
          "name": "_companyId",
          "type": "string"
        }
      ],
      "name": "getCompanyAssetsInfo",
      "outputs": [
        {
          "components": [
            {
              "internalType": "string",
              "name": "company_id",
              "type": "string"
            },
            {
              "internalType": "uint256",
              "name": "lowPrice",
              "type": "uint256"
            },
            {
              "internalType": "uint256",
              "name": "midPrice",
              "type": "uint256"
            },
            {
              "internalType": "uint256",
              "name": "highPrice",
              "type": "uint256"
            }
          ],
          "internalType": "struct AssetContract.CompanyAssetInfo",
          "name": "",
          "type": "tuple"
        }
      ],
      "stateMutability": "view",
      "type": "function"
    },
    {
      "inputs": [
        {
          "internalType": "string",
          "name": "_companyId",
          "type": "string"
        }
      ],
      "name": "getCompanyMarketAssets",
      "outputs": [
        {
          "components": [
            {
              "internalType": "uint256",
              "name": "id",
              "type": "uint256"
            },
            {
              "internalType": "uint256",
              "name": "price",
              "type": "uint256"
            },
            {
              "internalType": "string",
              "name": "company_id",
              "type": "string"
            },
            {
              "internalType": "address",
              "name": "owner",
              "type": "address"
            },
            {
              "internalType": "bool",
              "name": "isListed",
              "type": "bool"
            }
          ],
          "internalType": "struct AssetContract.Asset[]",
          "name": "",
          "type": "tuple[]"
        }
      ],
      "stateMutability": "view",
      "type": "function"
    },
    {
      "inputs": [
        {
          "internalType": "string[]",
          "name": "_companyIds",
          "type": "string[]"
        }
      ],
      "name": "getMarketAssets",
      "outputs": [
        {
          "components": [
            {
              "internalType": "uint256",
              "name": "id",
              "type": "uint256"
            },
            {
              "internalType": "uint256",
              "name": "price",
              "type": "uint256"
            },
            {
              "internalType": "string",
              "name": "company_id",
              "type": "string"
            },
            {
              "internalType": "address",
              "name": "owner",
              "type": "address"
            },
            {
              "internalType": "bool",
              "name": "isListed",
              "type": "bool"
            }
          ],
          "internalType": "struct AssetContract.Asset[]",
          "name": "",
          "type": "tuple[]"
        }
      ],
      "stateMutability": "view",
      "type": "function"
    },
    {
      "inputs": [
        {
          "internalType": "string",
          "name": "_compID",
          "type": "string"
        },
        {
          "internalType": "uint256",
          "name": "_id",
          "type": "uint256"
        }
      ],
      "name": "listAsset",
      "outputs": [],
      "stateMutability": "nonpayable",
      "type": "function"
    },
    {
      "inputs": [
        {
          "internalType": "string",
          "name": "_compID",
          "type": "string"
        },
        {
          "internalType": "uint256",
          "name": "_id",
          "type": "uint256"
        }
      ],
      "name": "unlistAsset",
      "outputs": [],
      "stateMutability": "nonpayable",
      "type": "function"
    }
  ],
  "bytecode": "0x608060405234801561001057600080fd5b506135e7806100206000396000f3fe608060405234801561001057600080fd5b50600436106100cf5760003560e01c8063921cb4351161008c578063ce43145611610066578063ce43145614610260578063d3218d2c14610290578063d639cedd146102ac578063e5922947146102c8576100cf565b8063921cb435146101e057806394060ba614610214578063aec7cbd214610230576100cf565b8063199d8353146100d45780635d351d95146101045780638289ac7b14610134578063899873ea146101645780638dc28966146101945780639163f2d9146101c4575b600080fd5b6100ee60048036038101906100e99190612a72565b6102f8565b6040516100fb9190613048565b60405180910390f35b61011e60048036038101906101199190612ab3565b61063c565b60405161012b91906130ae565b60405180910390f35b61014e60048036038101906101499190612a72565b6108f7565b60405161015b9190613048565b60405180910390f35b61017e60048036038101906101799190612ab3565b610ee3565b60405161018b9190613048565b60405180910390f35b6101ae60048036038101906101a99190612af4565b611077565b6040516101bb919061306a565b60405180910390f35b6101de60048036038101906101d99190612af4565b6112e9565b005b6101fa60048036038101906101f59190612af4565b6114ac565b60405161020b9594939291906130d0565b60405180910390f35b61022e60048036038101906102299190612baf565b6115ca565b005b61024a60048036038101906102459190612af4565b611776565b604051610257919061308c565b60405180910390f35b61027a60048036038101906102759190612a72565b611849565b6040516102879190613048565b60405180910390f35b6102aa60048036038101906102a59190612af4565b611fbf565b005b6102c660048036038101906102c19190612b48565b612113565b005b6102e260048036038101906102dd9190612ab3565b61228e565b6040516102ef9190613048565b60405180910390f35b6060600080805467ffffffffffffffff81111561033e577f4e487b7100000000000000000000000000000000000000000000000000000000600052604160045260246000fd5b60405190808252806020026020018201604052801561037757816020015b610364612804565b81526020019060019003908161035c5790505b50905060005b84518110156106315760005b60018683815181106103c4577f4e487b7100000000000000000000000000000000000000000000000000000000600052603260045260246000fd5b60200260200101516040516103d99190613031565b90815260200160405180910390208054905081101561061d57600186838151811061042d577f4e487b7100000000000000000000000000000000000000000000000000000000600052603260045260246000fd5b60200260200101516040516104429190613031565b90815260200160405180910390208181548110610488577f4e487b7100000000000000000000000000000000000000000000000000000000600052603260045260246000fd5b90600052602060002090600402016040518060a001604052908160008201548152602001600182015481526020016002820180546104c59061340a565b80601f01602080910402602001604051908101604052809291908181526020018280546104f19061340a565b801561053e5780601f106105135761010080835404028352916020019161053e565b820191906000526020600020905b81548152906001019060200180831161052157829003601f168201915b505050505081526020016003820160009054906101000a900473ffffffffffffffffffffffffffffffffffffffff1673ffffffffffffffffffffffffffffffffffffffff1673ffffffffffffffffffffffffffffffffffffffff1681526020016003820160149054906101000a900460ff1615151515815250508385815181106105f1577f4e487b7100000000000000000000000000000000000000000000000000000000600052603260045260246000fd5b602002602001018190525083806106079061346d565b94505080806106159061346d565b915050610389565b5080806106299061346d565b91505061037d565b508092505050919050565b61064461284b565b600061064f83610ee3565b9050600081511415610687576040518060800160405280848152602001600081526020016000815260200160008152509150506108f2565b6000816000815181106106c3577f4e487b7100000000000000000000000000000000000000000000000000000000600052603260045260246000fd5b60200260200101516020015190506000808360008151811061070e577f4e487b7100000000000000000000000000000000000000000000000000000000600052603260045260246000fd5b602002602001015160200151905060005b84518110156108ba5783858281518110610762577f4e487b7100000000000000000000000000000000000000000000000000000000600052603260045260246000fd5b60200260200101516020015110156107c0578481815181106107ad577f4e487b7100000000000000000000000000000000000000000000000000000000600052603260045260246000fd5b6020026020010151602001519350610855565b818582815181106107fa577f4e487b7100000000000000000000000000000000000000000000000000000000600052603260045260246000fd5b602002602001015160200151111561085457848181518110610845577f4e487b7100000000000000000000000000000000000000000000000000000000600052603260045260246000fd5b60200260200101516020015191505b5b84818151811061088e577f4e487b7100000000000000000000000000000000000000000000000000000000600052603260045260246000fd5b602002602001015160200151836108a591906132c5565b925080806108b29061346d565b91505061071f565b508351826108c8919061331b565b91506040518060800160405280878152602001848152602001838152602001828152509450505050505b919050565b606060008060005b8451811015610aa55760005b6001868381518110610946577f4e487b7100000000000000000000000000000000000000000000000000000000600052603260045260246000fd5b602002602001015160405161095b9190613031565b908152602001604051809103902080549050811015610a91573373ffffffffffffffffffffffffffffffffffffffff1660018784815181106109c6577f4e487b7100000000000000000000000000000000000000000000000000000000600052603260045260246000fd5b60200260200101516040516109db9190613031565b90815260200160405180910390208281548110610a21577f4e487b7100000000000000000000000000000000000000000000000000000000600052603260045260246000fd5b906000526020600020906004020160030160009054906101000a900473ffffffffffffffffffffffffffffffffffffffff1673ffffffffffffffffffffffffffffffffffffffff161415610a7e578280610a7a9061346d565b9350505b8080610a899061346d565b91505061090b565b508080610a9d9061346d565b9150506108ff565b5060008167ffffffffffffffff811115610ae8577f4e487b7100000000000000000000000000000000000000000000000000000000600052604160045260246000fd5b604051908082528060200260200182016040528015610b2157816020015b610b0e612804565b815260200190600190039081610b065790505b50905060005b8551811015610ed75760005b6001878381518110610b6e577f4e487b7100000000000000000000000000000000000000000000000000000000600052603260045260246000fd5b6020026020010151604051610b839190613031565b908152602001604051809103902080549050811015610ec3573373ffffffffffffffffffffffffffffffffffffffff166001888481518110610bee577f4e487b7100000000000000000000000000000000000000000000000000000000600052603260045260246000fd5b6020026020010151604051610c039190613031565b90815260200160405180910390208281548110610c49577f4e487b7100000000000000000000000000000000000000000000000000000000600052603260045260246000fd5b906000526020600020906004020160030160009054906101000a900473ffffffffffffffffffffffffffffffffffffffff1673ffffffffffffffffffffffffffffffffffffffff161415610eb0576001878381518110610cd2577f4e487b7100000000000000000000000000000000000000000000000000000000600052603260045260246000fd5b6020026020010151604051610ce79190613031565b90815260200160405180910390208181548110610d2d577f4e487b7100000000000000000000000000000000000000000000000000000000600052603260045260246000fd5b90600052602060002090600402016040518060a00160405290816000820154815260200160018201548152602001600282018054610d6a9061340a565b80601f0160208091040260200160405190810160405280929190818152602001828054610d969061340a565b8015610de35780601f10610db857610100808354040283529160200191610de3565b820191906000526020600020905b815481529060010190602001808311610dc657829003601f168201915b505050505081526020016003820160009054906101000a900473ffffffffffffffffffffffffffffffffffffffff1673ffffffffffffffffffffffffffffffffffffffff1673ffffffffffffffffffffffffffffffffffffffff1681526020016003820160149054906101000a900460ff161515151581525050838681518110610e96577f4e487b7100000000000000000000000000000000000000000000000000000000600052603260045260246000fd5b60200260200101819052508480610eac9061346d565b9550505b8080610ebb9061346d565b915050610b33565b508080610ecf9061346d565b915050610b27565b50809350505050919050565b6060600182604051610ef59190613031565b9081526020016040518091039020805480602002602001604051908101604052809291908181526020016000905b8282101561106c57838290600052602060002090600402016040518060a00160405290816000820154815260200160018201548152602001600282018054610f6a9061340a565b80601f0160208091040260200160405190810160405280929190818152602001828054610f969061340a565b8015610fe35780601f10610fb857610100808354040283529160200191610fe3565b820191906000526020600020905b815481529060010190602001808311610fc657829003601f168201915b505050505081526020016003820160009054906101000a900473ffffffffffffffffffffffffffffffffffffffff1673ffffffffffffffffffffffffffffffffffffffff1673ffffffffffffffffffffffffffffffffffffffff1681526020016003820160149054906101000a900460ff16151515158152505081526020019060010190610f23565b505050509050919050565b606060006110848461228e565b905060008060005b835181101561110257858482815181106110cf577f4e487b7100000000000000000000000000000000000000000000000000000000600052603260045260246000fd5b602002602001015160200151116110ef5781806110eb9061346d565b9250505b80806110fa9061346d565b91505061108c565b5060008167ffffffffffffffff811115611145577f4e487b7100000000000000000000000000000000000000000000000000000000600052604160045260246000fd5b60405190808252806020026020018201604052801561117e57816020015b61116b612873565b8152602001906001900390816111635790505b50905060005b84518110156112db57868582815181106111c7577f4e487b7100000000000000000000000000000000000000000000000000000000600052603260045260246000fd5b602002602001015160200151116112c857604051806040016040528086838151811061121c577f4e487b7100000000000000000000000000000000000000000000000000000000600052603260045260246000fd5b6020026020010151604001518152602001868381518110611266577f4e487b7100000000000000000000000000000000000000000000000000000000600052603260045260246000fd5b6020026020010151600001518152508285815181106112ae577f4e487b7100000000000000000000000000000000000000000000000000000000600052603260045260246000fd5b602002602001018190525083806112c49061346d565b9450505b80806112d39061346d565b915050611184565b508094505050505092915050565b60006001836040516112fb9190613031565b90815260200160405180910390209050600081600081548110611347577f4e487b7100000000000000000000000000000000000000000000000000000000600052603260045260246000fd5b9060005260206000209060040201905060005b828054905081101561141957838382815481106113a0577f4e487b7100000000000000000000000000000000000000000000000000000000600052603260045260246000fd5b9060005260206000209060040201600001541415611406578281815481106113f1577f4e487b7100000000000000000000000000000000000000000000000000000000600052603260045260246000fd5b90600052602060002090600402019150611419565b80806114119061346d565b91505061135a565b5060018160030160146101000a81548160ff0219169083151502179055507fba5c90629b84246d0de98790c3e19e90034be90a8de33eb4fc85209a87a68c3f81600001548260010154836002018460030160009054906101000a900473ffffffffffffffffffffffffffffffffffffffff16600160405161149e95949392919061312a565b60405180910390a150505050565b60018280516020810182018051848252602083016020850120818352809550505050505081815481106114de57600080fd5b90600052602060002090600402016000915091505080600001549080600101549080600201805461150e9061340a565b80601f016020809104026020016040519081016040528092919081815260200182805461153a9061340a565b80156115875780601f1061155c57610100808354040283529160200191611587565b820191906000526020600020905b81548152906001019060200180831161156a57829003601f168201915b5050505050908060030160009054906101000a900473ffffffffffffffffffffffffffffffffffffffff16908060030160149054906101000a900460ff16905085565b60005b82811015611770576001826040516115e59190613031565b90815260200160405180910390206040518060a0016040528060005481526020018681526020018481526020013373ffffffffffffffffffffffffffffffffffffffff1681526020016001151581525090806001815401808255809150506001900390600052602060002090600402016000909190919091506000820151816000015560208201518160010155604082015181600201908051906020019061168e92919061288d565b5060608201518160030160006101000a81548173ffffffffffffffffffffffffffffffffffffffff021916908373ffffffffffffffffffffffffffffffffffffffff16021790555060808201518160030160146101000a81548160ff021916908315150217905550505060008081548092919061170a9061346d565b91905055507fba5c90629b84246d0de98790c3e19e90034be90a8de33eb4fc85209a87a68c3f600160005461173f919061334c565b85843360016040516117559594939291906130d0565b60405180910390a180806117689061346d565b9150506115cd565b50505050565b61177e612804565b600061178984610ee3565b905060005b815181101561184057838282815181106117d1577f4e487b7100000000000000000000000000000000000000000000000000000000600052603260045260246000fd5b602002602001015160000151141561182d5781818151811061181c577f4e487b7100000000000000000000000000000000000000000000000000000000600052603260045260246000fd5b602002602001015192505050611843565b80806118389061346d565b91505061178e565b50505b92915050565b606060008060005b8451811015611abc5760005b6001868381518110611898577f4e487b7100000000000000000000000000000000000000000000000000000000600052603260045260246000fd5b60200260200101516040516118ad9190613031565b908152602001604051809103902080549050811015611aa8573273ffffffffffffffffffffffffffffffffffffffff166001878481518110611918577f4e487b7100000000000000000000000000000000000000000000000000000000600052603260045260246000fd5b602002602001015160405161192d9190613031565b90815260200160405180910390208281548110611973577f4e487b7100000000000000000000000000000000000000000000000000000000600052603260045260246000fd5b906000526020600020906004020160030160009054906101000a900473ffffffffffffffffffffffffffffffffffffffff1673ffffffffffffffffffffffffffffffffffffffff1614158015611a815750600115156001878481518110611a03577f4e487b7100000000000000000000000000000000000000000000000000000000600052603260045260246000fd5b6020026020010151604051611a189190613031565b90815260200160405180910390208281548110611a5e577f4e487b7100000000000000000000000000000000000000000000000000000000600052603260045260246000fd5b906000526020600020906004020160030160149054906101000a900460ff161515145b15611a95578280611a919061346d565b9350505b8080611aa09061346d565b91505061185d565b508080611ab49061346d565b915050611851565b5060008167ffffffffffffffff811115611aff577f4e487b7100000000000000000000000000000000000000000000000000000000600052604160045260246000fd5b604051908082528060200260200182016040528015611b3857816020015b611b25612804565b815260200190600190039081611b1d5790505b50905060005b8551811015611fb35760005b6001878381518110611b85577f4e487b7100000000000000000000000000000000000000000000000000000000600052603260045260246000fd5b6020026020010151604051611b9a9190613031565b908152602001604051809103902080549050811015611f9f573273ffffffffffffffffffffffffffffffffffffffff166001888481518110611c05577f4e487b7100000000000000000000000000000000000000000000000000000000600052603260045260246000fd5b6020026020010151604051611c1a9190613031565b90815260200160405180910390208281548110611c60577f4e487b7100000000000000000000000000000000000000000000000000000000600052603260045260246000fd5b906000526020600020906004020160030160009054906101000a900473ffffffffffffffffffffffffffffffffffffffff1673ffffffffffffffffffffffffffffffffffffffff1614158015611d6e5750600115156001888481518110611cf0577f4e487b7100000000000000000000000000000000000000000000000000000000600052603260045260246000fd5b6020026020010151604051611d059190613031565b90815260200160405180910390208281548110611d4b577f4e487b7100000000000000000000000000000000000000000000000000000000600052603260045260246000fd5b906000526020600020906004020160030160149054906101000a900460ff161515145b15611f8c576001878381518110611dae577f4e487b7100000000000000000000000000000000000000000000000000000000600052603260045260246000fd5b6020026020010151604051611dc39190613031565b90815260200160405180910390208181548110611e09577f4e487b7100000000000000000000000000000000000000000000000000000000600052603260045260246000fd5b90600052602060002090600402016040518060a00160405290816000820154815260200160018201548152602001600282018054611e469061340a565b80601f0160208091040260200160405190810160405280929190818152602001828054611e729061340a565b8015611ebf5780601f10611e9457610100808354040283529160200191611ebf565b820191906000526020600020905b815481529060010190602001808311611ea257829003601f168201915b505050505081526020016003820160009054906101000a900473ffffffffffffffffffffffffffffffffffffffff1673ffffffffffffffffffffffffffffffffffffffff1673ffffffffffffffffffffffffffffffffffffffff1681526020016003820160149054906101000a900460ff161515151581525050838681518110611f72577f4e487b7100000000000000000000000000000000000000000000000000000000600052603260045260246000fd5b60200260200101819052508480611f889061346d565b9550505b8080611f979061346d565b915050611b4a565b508080611fab9061346d565b915050611b3e565b50809350505050919050565b6000600183604051611fd19190613031565b9081526020016040518091039020905060008160008154811061201d577f4e487b7100000000000000000000000000000000000000000000000000000000600052603260045260246000fd5b9060005260206000209060040201905060005b82805490508110156120ef5783838281548110612076577f4e487b7100000000000000000000000000000000000000000000000000000000600052603260045260246000fd5b90600052602060002090600402016000015414156120dc578281815481106120c7577f4e487b7100000000000000000000000000000000000000000000000000000000600052603260045260246000fd5b906000526020600020906004020191506120ef565b80806120e79061346d565b915050612030565b5060008160030160146101000a81548160ff02191690831515021790555050505050565b60006001846040516121259190613031565b90815260200160405180910390209050600081600081548110612171577f4e487b7100000000000000000000000000000000000000000000000000000000600052603260045260246000fd5b9060005260206000209060040201905060005b828054905081101561224357848382815481106121ca577f4e487b7100000000000000000000000000000000000000000000000000000000600052603260045260246000fd5b90600052602060002090600402016000015414156122305782818154811061221b577f4e487b7100000000000000000000000000000000000000000000000000000000600052603260045260246000fd5b90600052602060002090600402019150612243565b808061223b9061346d565b915050612184565b50828160030160006101000a81548173ffffffffffffffffffffffffffffffffffffffff021916908373ffffffffffffffffffffffffffffffffffffffff1602179055505050505050565b606060008060005b6001856040516122a69190613031565b908152602001604051809103902080549050811015612421573273ffffffffffffffffffffffffffffffffffffffff166001866040516122e69190613031565b9081526020016040518091039020828154811061232c577f4e487b7100000000000000000000000000000000000000000000000000000000600052603260045260246000fd5b906000526020600020906004020160030160009054906101000a900473ffffffffffffffffffffffffffffffffffffffff1673ffffffffffffffffffffffffffffffffffffffff16141580156123fa5750600115156001866040516123919190613031565b908152602001604051809103902082815481106123d7577f4e487b7100000000000000000000000000000000000000000000000000000000600052603260045260246000fd5b906000526020600020906004020160030160149054906101000a900460ff161515145b1561240e57818061240a9061346d565b9250505b80806124199061346d565b915050612296565b5060008167ffffffffffffffff811115612464577f4e487b7100000000000000000000000000000000000000000000000000000000600052604160045260246000fd5b60405190808252806020026020018201604052801561249d57816020015b61248a612804565b8152602001906001900390816124825790505b50905060005b6001866040516124b39190613031565b9081526020016040518091039020805490508110156127f8573273ffffffffffffffffffffffffffffffffffffffff166001876040516124f39190613031565b90815260200160405180910390208281548110612539577f4e487b7100000000000000000000000000000000000000000000000000000000600052603260045260246000fd5b906000526020600020906004020160030160009054906101000a900473ffffffffffffffffffffffffffffffffffffffff1673ffffffffffffffffffffffffffffffffffffffff161415801561260757506001151560018760405161259e9190613031565b908152602001604051809103902082815481106125e4577f4e487b7100000000000000000000000000000000000000000000000000000000600052603260045260246000fd5b906000526020600020906004020160030160149054906101000a900460ff161515145b156127e55760018660405161261c9190613031565b90815260200160405180910390208181548110612662577f4e487b7100000000000000000000000000000000000000000000000000000000600052603260045260246000fd5b90600052602060002090600402016040518060a0016040529081600082015481526020016001820154815260200160028201805461269f9061340a565b80601f01602080910402602001604051908101604052809291908181526020018280546126cb9061340a565b80156127185780601f106126ed57610100808354040283529160200191612718565b820191906000526020600020905b8154815290600101906020018083116126fb57829003601f168201915b505050505081526020016003820160009054906101000a900473ffffffffffffffffffffffffffffffffffffffff1673ffffffffffffffffffffffffffffffffffffffff1673ffffffffffffffffffffffffffffffffffffffff1681526020016003820160149054906101000a900460ff1615151515815250508285815181106127cb577f4e487b7100000000000000000000000000000000000000000000000000000000600052603260045260246000fd5b602002602001018190525083806127e19061346d565b9450505b80806127f09061346d565b9150506124a3565b50809350505050919050565b6040518060a00160405280600081526020016000815260200160608152602001600073ffffffffffffffffffffffffffffffffffffffff1681526020016000151581525090565b6040518060800160405280606081526020016000815260200160008152602001600081525090565b604051806040016040528060608152602001600081525090565b8280546128999061340a565b90600052602060002090601f0160209004810192826128bb5760008555612902565b82601f106128d457805160ff1916838001178555612902565b82800160010185558215612902579182015b828111156129015782518255916020019190600101906128e6565b5b50905061290f9190612913565b5090565b5b8082111561292c576000816000905550600101612914565b5090565b600061294361293e846131a9565b613184565b9050808382526020820190508285602086028201111561296257600080fd5b60005b858110156129ac57813567ffffffffffffffff81111561298457600080fd5b8086016129918982612a33565b85526020850194506020840193505050600181019050612965565b5050509392505050565b60006129c96129c4846131d5565b613184565b9050828152602081018484840111156129e157600080fd5b6129ec8482856133c8565b509392505050565b600081359050612a0381613583565b92915050565b600082601f830112612a1a57600080fd5b8135612a2a848260208601612930565b91505092915050565b600082601f830112612a4457600080fd5b8135612a548482602086016129b6565b91505092915050565b600081359050612a6c8161359a565b92915050565b600060208284031215612a8457600080fd5b600082013567ffffffffffffffff811115612a9e57600080fd5b612aaa84828501612a09565b91505092915050565b600060208284031215612ac557600080fd5b600082013567ffffffffffffffff811115612adf57600080fd5b612aeb84828501612a33565b91505092915050565b60008060408385031215612b0757600080fd5b600083013567ffffffffffffffff811115612b2157600080fd5b612b2d85828601612a33565b9250506020612b3e85828601612a5d565b9150509250929050565b600080600060608486031215612b5d57600080fd5b600084013567ffffffffffffffff811115612b7757600080fd5b612b8386828701612a33565b9350506020612b9486828701612a5d565b9250506040612ba5868287016129f4565b9150509250925092565b600080600060608486031215612bc457600080fd5b6000612bd286828701612a5d565b9350506020612be386828701612a5d565b925050604084013567ffffffffffffffff811115612c0057600080fd5b612c0c86828701612a33565b9150509250925092565b6000612c228383612e87565b905092915050565b6000612c368383612fd6565b905092915050565b612c4781613380565b82525050565b612c5681613380565b82525050565b6000612c678261323b565b612c718185613276565b935083602082028501612c8385613206565b8060005b85811015612cbf5784840389528151612ca08582612c16565b9450612cab8361325c565b925060208a01995050600181019050612c87565b50829750879550505050505092915050565b6000612cdc82613246565b612ce68185613287565b935083602082028501612cf885613216565b8060005b85811015612d345784840389528151612d158582612c2a565b9450612d2083613269565b925060208a01995050600181019050612cfc565b50829750879550505050505092915050565b612d4f81613392565b82525050565b612d5e81613392565b82525050565b6000612d6f82613251565b612d798185613298565b9350612d898185602086016133d7565b612d9281613572565b840191505092915050565b6000612da882613251565b612db281856132a9565b9350612dc28185602086016133d7565b612dcb81613572565b840191505092915050565b6000612de182613251565b612deb81856132ba565b9350612dfb8185602086016133d7565b80840191505092915050565b60008154612e148161340a565b612e1e81866132a9565b94506001821660008114612e395760018114612e4b57612e7e565b60ff1983168652602086019350612e7e565b612e5485613226565b60005b83811015612e7657815481890152600182019150602081019050612e57565b808801955050505b50505092915050565b600060a083016000830151612e9f6000860182613013565b506020830151612eb26020860182613013565b5060408301518482036040860152612eca8282612d64565b9150506060830151612edf6060860182612c3e565b506080830151612ef26080860182612d46565b508091505092915050565b600060a083016000830151612f156000860182613013565b506020830151612f286020860182613013565b5060408301518482036040860152612f408282612d64565b9150506060830151612f556060860182612c3e565b506080830151612f686080860182612d46565b508091505092915050565b60006080830160008301518482036000860152612f908282612d64565b9150506020830151612fa56020860182613013565b506040830151612fb86040860182613013565b506060830151612fcb6060860182613013565b508091505092915050565b60006040830160008301518482036000860152612ff38282612d64565b91505060208301516130086020860182613013565b508091505092915050565b61301c816133be565b82525050565b61302b816133be565b82525050565b600061303d8284612dd6565b915081905092915050565b600060208201905081810360008301526130628184612c5c565b905092915050565b600060208201905081810360008301526130848184612cd1565b905092915050565b600060208201905081810360008301526130a68184612efd565b905092915050565b600060208201905081810360008301526130c88184612f73565b905092915050565b600060a0820190506130e56000830188613022565b6130f26020830187613022565b81810360408301526131048186612d9d565b90506131136060830185612c4d565b6131206080830184612d55565b9695505050505050565b600060a08201905061313f6000830188613022565b61314c6020830187613022565b818103604083015261315e8186612e07565b905061316d6060830185612c4d565b61317a6080830184612d55565b9695505050505050565b600061318e61319f565b905061319a828261343c565b919050565b6000604051905090565b600067ffffffffffffffff8211156131c4576131c3613543565b5b602082029050602081019050919050565b600067ffffffffffffffff8211156131f0576131ef613543565b5b6131f982613572565b9050602081019050919050565b6000819050602082019050919050565b6000819050602082019050919050565b60008190508160005260206000209050919050565b600081519050919050565b600081519050919050565b600081519050919050565b6000602082019050919050565b6000602082019050919050565b600082825260208201905092915050565b600082825260208201905092915050565b600082825260208201905092915050565b600082825260208201905092915050565b600081905092915050565b60006132d0826133be565b91506132db836133be565b9250827fffffffffffffffffffffffffffffffffffffffffffffffffffffffffffffffff038211156133105761330f6134b6565b5b828201905092915050565b6000613326826133be565b9150613331836133be565b925082613341576133406134e5565b5b828204905092915050565b6000613357826133be565b9150613362836133be565b925082821015613375576133746134b6565b5b828203905092915050565b600061338b8261339e565b9050919050565b60008115159050919050565b600073ffffffffffffffffffffffffffffffffffffffff82169050919050565b6000819050919050565b82818337600083830152505050565b60005b838110156133f55780820151818401526020810190506133da565b83811115613404576000848401525b50505050565b6000600282049050600182168061342257607f821691505b6020821081141561343657613435613514565b5b50919050565b61344582613572565b810181811067ffffffffffffffff8211171561346457613463613543565b5b80604052505050565b6000613478826133be565b91507fffffffffffffffffffffffffffffffffffffffffffffffffffffffffffffffff8214156134ab576134aa6134b6565b5b600182019050919050565b7f4e487b7100000000000000000000000000000000000000000000000000000000600052601160045260246000fd5b7f4e487b7100000000000000000000000000000000000000000000000000000000600052601260045260246000fd5b7f4e487b7100000000000000000000000000000000000000000000000000000000600052602260045260246000fd5b7f4e487b7100000000000000000000000000000000000000000000000000000000600052604160045260246000fd5b6000601f19601f8301169050919050565b61358c81613380565b811461359757600080fd5b50565b6135a3816133be565b81146135ae57600080fd5b5056fea26469706673582212200198b8d8210d912e7281f4a903d5bb4d2bd61b24ff53e5a2e1c42ca805fc7b5064736f6c63430008040033",
  "linkReferences": {},
  "deployedLinkReferences": {}
}