{
  "_format": "hh-sol-artifact-1",
  "contractName": "LDToken",
  "sourceName": "contracts/LDToken.sol",
  "abi": [
    {
      "anonymous": false,
      "inputs": [
        {
          "indexed": true,
          "internalType": "address",
          "name": "owner",
          "type": "address"
        },
        {
          "indexed": true,
          "internalType": "address",
          "name": "spender",
          "type": "address"
        },
        {
          "indexed": false,
          "internalType": "uint256",
          "name": "value",
          "type": "uint256"
        }
      ],
      "name": "Approval",
      "type": "event"
    },
    {
      "anonymous": false,
      "inputs": [
        {
          "indexed": true,
          "internalType": "address",
          "name": "from",
          "type": "address"
        },
        {
          "indexed": true,
          "internalType": "address",
          "name": "to",
          "type": "address"
        },
        {
          "indexed": false,
          "internalType": "uint256",
          "name": "value",
          "type": "uint256"
        }
      ],
      "name": "Transfer",
      "type": "event"
    },
    {
      "inputs": [],
      "name": "TransactionContract",
      "outputs": [
        {
          "internalType": "address",
          "name": "",
          "type": "address"
        }
      ],
      "stateMutability": "view",
      "type": "function"
    },
    {
      "inputs": [
        {
          "internalType": "address",
          "name": "owner",
          "type": "address"
        },
        {
          "internalType": "address",
          "name": "spender",
          "type": "address"
        }
      ],
      "name": "allowance",
      "outputs": [
        {
          "internalType": "uint256",
          "name": "",
          "type": "uint256"
        }
      ],
      "stateMutability": "view",
      "type": "function"
    },
    {
      "inputs": [
        {
          "internalType": "address",
          "name": "",
          "type": "address"
        },
        {
          "internalType": "address",
          "name": "",
          "type": "address"
        }
      ],
      "name": "allowed",
      "outputs": [
        {
          "internalType": "uint256",
          "name": "",
          "type": "uint256"
        }
      ],
      "stateMutability": "view",
      "type": "function"
    },
    {
      "inputs": [
        {
          "internalType": "address",
          "name": "spender",
          "type": "address"
        },
        {
          "internalType": "uint256",
          "name": "amount",
          "type": "uint256"
        }
      ],
      "name": "approve",
      "outputs": [
        {
          "internalType": "bool",
          "name": "",
          "type": "bool"
        }
      ],
      "stateMutability": "nonpayable",
      "type": "function"
    },
    {
      "inputs": [
        {
          "internalType": "address",
          "name": "account",
          "type": "address"
        }
      ],
      "name": "balanceOf",
      "outputs": [
        {
          "internalType": "uint256",
          "name": "",
          "type": "uint256"
        }
      ],
      "stateMutability": "view",
      "type": "function"
    },
    {
      "inputs": [
        {
          "internalType": "address",
          "name": "",
          "type": "address"
        }
      ],
      "name": "balances",
      "outputs": [
        {
          "internalType": "uint256",
          "name": "",
          "type": "uint256"
        }
      ],
      "stateMutability": "view",
      "type": "function"
    },
    {
      "inputs": [
        {
          "internalType": "uint256",
          "name": "_amount",
          "type": "uint256"
        }
      ],
      "name": "buyTokens",
      "outputs": [],
      "stateMutability": "payable",
      "type": "function"
    },
    {
      "inputs": [
        {
          "internalType": "address",
          "name": "spender",
          "type": "address"
        },
        {
          "internalType": "uint256",
          "name": "subtractedValue",
          "type": "uint256"
        }
      ],
      "name": "decreaseAllowance",
      "outputs": [
        {
          "internalType": "bool",
          "name": "",
          "type": "bool"
        }
      ],
      "stateMutability": "nonpayable",
      "type": "function"
    },
    {
      "inputs": [
        {
          "internalType": "address",
          "name": "spender",
          "type": "address"
        },
        {
          "internalType": "uint256",
          "name": "addedValue",
          "type": "uint256"
        }
      ],
      "name": "increaseAllowance",
      "outputs": [
        {
          "internalType": "bool",
          "name": "",
          "type": "bool"
        }
      ],
      "stateMutability": "nonpayable",
      "type": "function"
    },
    {
      "inputs": [],
      "name": "owner",
      "outputs": [
        {
          "internalType": "address",
          "name": "",
          "type": "address"
        }
      ],
      "stateMutability": "view",
      "type": "function"
    },
    {
      "inputs": [
        {
          "internalType": "uint256",
          "name": "_amount",
          "type": "uint256"
        }
      ],
      "name": "sellTokens",
      "outputs": [],
      "stateMutability": "payable",
      "type": "function"
    },
    {
      "inputs": [
        {
          "internalType": "address",
          "name": "_transactionContract",
          "type": "address"
        }
      ],
      "name": "setTransactionContract",
      "outputs": [],
      "stateMutability": "nonpayable",
      "type": "function"
    },
    {
      "inputs": [],
      "name": "totalSupply",
      "outputs": [
        {
          "internalType": "uint256",
          "name": "",
          "type": "uint256"
        }
      ],
      "stateMutability": "view",
      "type": "function"
    },
    {
      "inputs": [
        {
          "internalType": "address",
          "name": "_to",
          "type": "address"
        },
        {
          "internalType": "uint256",
          "name": "_value",
          "type": "uint256"
        }
      ],
      "name": "transfer",
      "outputs": [
        {
          "internalType": "bool",
          "name": "",
          "type": "bool"
        }
      ],
      "stateMutability": "nonpayable",
      "type": "function"
    },
    {
      "inputs": [
        {
          "internalType": "address",
          "name": "from",
          "type": "address"
        },
        {
          "internalType": "address",
          "name": "to",
          "type": "address"
        },
        {
          "internalType": "uint256",
          "name": "amount",
          "type": "uint256"
        }
      ],
      "name": "transferFrom",
      "outputs": [
        {
          "internalType": "bool",
          "name": "",
          "type": "bool"
        }
      ],
      "stateMutability": "nonpayable",
      "type": "function"
    },
    {
      "inputs": [
        {
          "internalType": "address",
          "name": "newOwner",
          "type": "address"
        }
      ],
      "name": "transferOwnership",
      "outputs": [],
      "stateMutability": "nonpayable",
      "type": "function"
    }
  ],
  "bytecode": "0x608060405234801561001057600080fd5b50336000806101000a81548173ffffffffffffffffffffffffffffffffffffffff021916908373ffffffffffffffffffffffffffffffffffffffff160217905550600180819055506121e9806100676000396000f3fe6080604052600436106100f35760003560e01c806370a082311161008a578063a9059cbb11610059578063a9059cbb1461035a578063b492b37c14610397578063dd62ed3e146103c2578063f2fde38b146103ff576100f3565b806370a082311461028c5780638da5cb5b146102c9578063a3cd94be146102f4578063a457c2d71461031d576100f3565b80633610724e116100c65780633610724e146101da57806339509351146101f65780635c658165146102335780636c11bcd314610270576100f3565b8063095ea7b3146100f857806318160ddd1461013557806323b872dd1461016057806327e235e31461019d575b600080fd5b34801561010457600080fd5b5061011f600480360381019061011a9190611c30565b610428565b60405161012c9190611df5565b60405180910390f35b34801561014157600080fd5b5061014a61059b565b6040516101579190611f10565b60405180910390f35b34801561016c57600080fd5b5061018760048036038101906101829190611be1565b6105a5565b6040516101949190611df5565b60405180910390f35b3480156101a957600080fd5b506101c460048036038101906101bf9190611b7c565b610aa6565b6040516101d19190611f10565b60405180910390f35b6101f460048036038101906101ef9190611c6c565b610abe565b005b34801561020257600080fd5b5061021d60048036038101906102189190611c30565b610b8f565b60405161022a9190611df5565b60405180910390f35b34801561023f57600080fd5b5061025a60048036038101906102559190611ba5565b610dfa565b6040516102679190611f10565b60405180910390f35b61028a60048036038101906102859190611c6c565b610e1f565b005b34801561029857600080fd5b506102b360048036038101906102ae9190611b7c565b610f4a565b6040516102c09190611f10565b60405180910390f35b3480156102d557600080fd5b506102de610f93565b6040516102eb9190611dda565b60405180910390f35b34801561030057600080fd5b5061031b60048036038101906103169190611b7c565b610fb7565b005b34801561032957600080fd5b50610344600480360381019061033f9190611c30565b611053565b6040516103519190611df5565b60405180910390f35b34801561036657600080fd5b50610381600480360381019061037c9190611c30565b6112be565b60405161038e9190611df5565b60405180910390f35b3480156103a357600080fd5b506103ac6115a0565b6040516103b99190611dda565b60405180910390f35b3480156103ce57600080fd5b506103e960048036038101906103e49190611ba5565b6115c6565b6040516103f69190611f10565b60405180910390f35b34801561040b57600080fd5b5061042660048036038101906104219190611b7c565b61164d565b005b60008073ffffffffffffffffffffffffffffffffffffffff168373ffffffffffffffffffffffffffffffffffffffff161415610499576040517f08c379a000000000000000000000000000000000000000000000000000000000815260040161049090611eb0565b60405180910390fd5b81600760003373ffffffffffffffffffffffffffffffffffffffff1673ffffffffffffffffffffffffffffffffffffffff16815260200190815260200160002060008573ffffffffffffffffffffffffffffffffffffffff1673ffffffffffffffffffffffffffffffffffffffff16815260200190815260200160002060008282546105259190611f3c565b925050819055508273ffffffffffffffffffffffffffffffffffffffff163373ffffffffffffffffffffffffffffffffffffffff167f8c5be1e5ebec7d5bd14f71427d1e84f3dd0314c0f7b2291e5b200ac8c7c3b925846040516105899190611f10565b60405180910390a36001905092915050565b6000600354905090565b600080600760008673ffffffffffffffffffffffffffffffffffffffff1673ffffffffffffffffffffffffffffffffffffffff16815260200190815260200160002060003373ffffffffffffffffffffffffffffffffffffffff1673ffffffffffffffffffffffffffffffffffffffff168152602001908152602001600020549050600460009054906101000a900473ffffffffffffffffffffffffffffffffffffffff1673ffffffffffffffffffffffffffffffffffffffff163373ffffffffffffffffffffffffffffffffffffffff16146107425782600660008773ffffffffffffffffffffffffffffffffffffffff1673ffffffffffffffffffffffffffffffffffffffff1681526020019081526020016000205410156106fe576040517f08c379a00000000000000000000000000000000000000000000000000000000081526004016106f590611e90565b60405180910390fd5b82811015610741576040517f08c379a000000000000000000000000000000000000000000000000000000000815260040161073890611e90565b60405180910390fd5b5b600073ffffffffffffffffffffffffffffffffffffffff168573ffffffffffffffffffffffffffffffffffffffff1614156107b2576040517f08c379a00000000000000000000000000000000000000000000000000000000081526004016107a990611e10565b60405180910390fd5b600073ffffffffffffffffffffffffffffffffffffffff168473ffffffffffffffffffffffffffffffffffffffff161415610822576040517f08c379a000000000000000000000000000000000000000000000000000000000815260040161081990611e50565b60405180910390fd5b61087483600660008873ffffffffffffffffffffffffffffffffffffffff1673ffffffffffffffffffffffffffffffffffffffff1681526020019081526020016000205461171d90919063ffffffff16565b600660008773ffffffffffffffffffffffffffffffffffffffff1673ffffffffffffffffffffffffffffffffffffffff1681526020019081526020016000208190555061090983600660008773ffffffffffffffffffffffffffffffffffffffff1673ffffffffffffffffffffffffffffffffffffffff1681526020019081526020016000205461176a90919063ffffffff16565b600660008673ffffffffffffffffffffffffffffffffffffffff1673ffffffffffffffffffffffffffffffffffffffff16815260200190815260200160002081905550600460009054906101000a900473ffffffffffffffffffffffffffffffffffffffff1673ffffffffffffffffffffffffffffffffffffffff163373ffffffffffffffffffffffffffffffffffffffff1614610a35576109b4838261171d90919063ffffffff16565b600760008773ffffffffffffffffffffffffffffffffffffffff1673ffffffffffffffffffffffffffffffffffffffff16815260200190815260200160002060003373ffffffffffffffffffffffffffffffffffffffff1673ffffffffffffffffffffffffffffffffffffffff168152602001908152602001600020819055505b8373ffffffffffffffffffffffffffffffffffffffff168573ffffffffffffffffffffffffffffffffffffffff167fddf252ad1be2c89b69c2b068fc378daa952ba7f163c4a11628f55a4df523b3ef85604051610a929190611f10565b60405180910390a360019150509392505050565b60066020528060005260406000206000915090505481565b60026001541415610b04576040517f08c379a0000000000000000000000000000000000000000000000000000000008152600401610afb90611ef0565b60405180910390fd5b6002600181905550803414610b4e576040517f08c379a0000000000000000000000000000000000000000000000000000000008152600401610b4590611e30565b60405180910390fd5b610b7a600460009054906101000a900473ffffffffffffffffffffffffffffffffffffffff1682610428565b50610b8533826117bc565b6001808190555050565b60008073ffffffffffffffffffffffffffffffffffffffff168373ffffffffffffffffffffffffffffffffffffffff161415610c00576040517f08c379a0000000000000000000000000000000000000000000000000000000008152600401610bf790611e10565b60405180910390fd5b610c8f82600760003373ffffffffffffffffffffffffffffffffffffffff1673ffffffffffffffffffffffffffffffffffffffff16815260200190815260200160002060008673ffffffffffffffffffffffffffffffffffffffff1673ffffffffffffffffffffffffffffffffffffffff1681526020019081526020016000205461176a90919063ffffffff16565b600760003373ffffffffffffffffffffffffffffffffffffffff1673ffffffffffffffffffffffffffffffffffffffff16815260200190815260200160002060008573ffffffffffffffffffffffffffffffffffffffff1673ffffffffffffffffffffffffffffffffffffffff168152602001908152602001600020819055508273ffffffffffffffffffffffffffffffffffffffff163373ffffffffffffffffffffffffffffffffffffffff167f8c5be1e5ebec7d5bd14f71427d1e84f3dd0314c0f7b2291e5b200ac8c7c3b925600760003373ffffffffffffffffffffffffffffffffffffffff1673ffffffffffffffffffffffffffffffffffffffff16815260200190815260200160002060008773ffffffffffffffffffffffffffffffffffffffff1673ffffffffffffffffffffffffffffffffffffffff16815260200190815260200160002054604051610de89190611f10565b60405180910390a36001905092915050565b6007602052816000526040600020602052806000526040600020600091509150505481565b60026001541415610e65576040517f08c379a0000000000000000000000000000000000000000000000000000000008152600401610e5c90611ef0565b60405180910390fd5b600260018190555080600660003373ffffffffffffffffffffffffffffffffffffffff1673ffffffffffffffffffffffffffffffffffffffff168152602001908152602001600020541015610eef576040517f08c379a0000000000000000000000000000000000000000000000000000000008152600401610ee690611e30565b60405180910390fd5b610ef93382611946565b3373ffffffffffffffffffffffffffffffffffffffff166108fc829081150290604051600060405180830381858888f19350505050158015610f3f573d6000803e3d6000fd5b506001808190555050565b6000600660008373ffffffffffffffffffffffffffffffffffffffff1673ffffffffffffffffffffffffffffffffffffffff168152602001908152602001600020549050919050565b60008054906101000a900473ffffffffffffffffffffffffffffffffffffffff1681565b60008054906101000a900473ffffffffffffffffffffffffffffffffffffffff1673ffffffffffffffffffffffffffffffffffffffff163373ffffffffffffffffffffffffffffffffffffffff161461100f57600080fd5b80600460006101000a81548173ffffffffffffffffffffffffffffffffffffffff021916908373ffffffffffffffffffffffffffffffffffffffff16021790555050565b60008073ffffffffffffffffffffffffffffffffffffffff168373ffffffffffffffffffffffffffffffffffffffff1614156110c4576040517f08c379a00000000000000000000000000000000000000000000000000000000081526004016110bb90611e10565b60405180910390fd5b61115382600760003373ffffffffffffffffffffffffffffffffffffffff1673ffffffffffffffffffffffffffffffffffffffff16815260200190815260200160002060008673ffffffffffffffffffffffffffffffffffffffff1673ffffffffffffffffffffffffffffffffffffffff1681526020019081526020016000205461171d90919063ffffffff16565b600760003373ffffffffffffffffffffffffffffffffffffffff1673ffffffffffffffffffffffffffffffffffffffff16815260200190815260200160002060008573ffffffffffffffffffffffffffffffffffffffff1673ffffffffffffffffffffffffffffffffffffffff168152602001908152602001600020819055508273ffffffffffffffffffffffffffffffffffffffff163373ffffffffffffffffffffffffffffffffffffffff167f8c5be1e5ebec7d5bd14f71427d1e84f3dd0314c0f7b2291e5b200ac8c7c3b925600760003373ffffffffffffffffffffffffffffffffffffffff1673ffffffffffffffffffffffffffffffffffffffff16815260200190815260200160002060008773ffffffffffffffffffffffffffffffffffffffff1673ffffffffffffffffffffffffffffffffffffffff168152602001908152602001600020546040516112ac9190611f10565b60405180910390a36001905092915050565b600060026001541415611306576040517f08c379a00000000000000000000000000000000000000000000000000000000081526004016112fd90611ef0565b60405180910390fd5b6002600181905550600073ffffffffffffffffffffffffffffffffffffffff168373ffffffffffffffffffffffffffffffffffffffff16141561137e576040517f08c379a000000000000000000000000000000000000000000000000000000000815260040161137590611e70565b60405180910390fd5b81600660003373ffffffffffffffffffffffffffffffffffffffff1673ffffffffffffffffffffffffffffffffffffffff168152602001908152602001600020541015611400576040517f08c379a00000000000000000000000000000000000000000000000000000000081526004016113f790611ed0565b60405180910390fd5b61145282600660003373ffffffffffffffffffffffffffffffffffffffff1673ffffffffffffffffffffffffffffffffffffffff1681526020019081526020016000205461171d90919063ffffffff16565b600660003373ffffffffffffffffffffffffffffffffffffffff1673ffffffffffffffffffffffffffffffffffffffff168152602001908152602001600020819055506114e782600660008673ffffffffffffffffffffffffffffffffffffffff1673ffffffffffffffffffffffffffffffffffffffff1681526020019081526020016000205461176a90919063ffffffff16565b600660008573ffffffffffffffffffffffffffffffffffffffff1673ffffffffffffffffffffffffffffffffffffffff168152602001908152602001600020819055508273ffffffffffffffffffffffffffffffffffffffff163373ffffffffffffffffffffffffffffffffffffffff167fddf252ad1be2c89b69c2b068fc378daa952ba7f163c4a11628f55a4df523b3ef846040516115879190611f10565b60405180910390a3600190506001808190555092915050565b600460009054906101000a900473ffffffffffffffffffffffffffffffffffffffff1681565b6000600760008473ffffffffffffffffffffffffffffffffffffffff1673ffffffffffffffffffffffffffffffffffffffff16815260200190815260200160002060008373ffffffffffffffffffffffffffffffffffffffff1673ffffffffffffffffffffffffffffffffffffffff16815260200190815260200160002054905092915050565b60008054906101000a900473ffffffffffffffffffffffffffffffffffffffff1673ffffffffffffffffffffffffffffffffffffffff163373ffffffffffffffffffffffffffffffffffffffff16146116a557600080fd5b600073ffffffffffffffffffffffffffffffffffffffff168173ffffffffffffffffffffffffffffffffffffffff161461171a57806000806101000a81548173ffffffffffffffffffffffffffffffffffffffff021916908373ffffffffffffffffffffffffffffffffffffffff1602179055505b50565b600082821115611756577f4e487b7100000000000000000000000000000000000000000000000000000000600052600160045260246000fd5b81836117629190611f92565b905092915050565b60008082846117799190611f3c565b9050838110156117b2577f4e487b7100000000000000000000000000000000000000000000000000000000600052600160045260246000fd5b8091505092915050565b600073ffffffffffffffffffffffffffffffffffffffff168273ffffffffffffffffffffffffffffffffffffffff16141561182c576040517f08c379a000000000000000000000000000000000000000000000000000000000815260040161182390611e10565b60405180910390fd5b61187e81600660008573ffffffffffffffffffffffffffffffffffffffff1673ffffffffffffffffffffffffffffffffffffffff1681526020019081526020016000205461176a90919063ffffffff16565b600660008473ffffffffffffffffffffffffffffffffffffffff1673ffffffffffffffffffffffffffffffffffffffff168152602001908152602001600020819055506118d68160035461176a90919063ffffffff16565b6003819055508173ffffffffffffffffffffffffffffffffffffffff16600073ffffffffffffffffffffffffffffffffffffffff167fddf252ad1be2c89b69c2b068fc378daa952ba7f163c4a11628f55a4df523b3ef8360405161193a9190611f10565b60405180910390a35050565b600073ffffffffffffffffffffffffffffffffffffffff168273ffffffffffffffffffffffffffffffffffffffff1614156119b6576040517f08c379a00000000000000000000000000000000000000000000000000000000081526004016119ad90611e10565b60405180910390fd5b80600660008473ffffffffffffffffffffffffffffffffffffffff1673ffffffffffffffffffffffffffffffffffffffff168152602001908152602001600020541015611a38576040517f08c379a0000000000000000000000000000000000000000000000000000000008152600401611a2f90611e10565b60405180910390fd5b611a8a81600660008573ffffffffffffffffffffffffffffffffffffffff1673ffffffffffffffffffffffffffffffffffffffff1681526020019081526020016000205461171d90919063ffffffff16565b600660008473ffffffffffffffffffffffffffffffffffffffff1673ffffffffffffffffffffffffffffffffffffffff16815260200190815260200160002081905550611ae28160035461176a90919063ffffffff16565b600381905550600073ffffffffffffffffffffffffffffffffffffffff168273ffffffffffffffffffffffffffffffffffffffff167fddf252ad1be2c89b69c2b068fc378daa952ba7f163c4a11628f55a4df523b3ef83604051611b469190611f10565b60405180910390a35050565b600081359050611b6181612185565b92915050565b600081359050611b768161219c565b92915050565b600060208284031215611b8e57600080fd5b6000611b9c84828501611b52565b91505092915050565b60008060408385031215611bb857600080fd5b6000611bc685828601611b52565b9250506020611bd785828601611b52565b9150509250929050565b600080600060608486031215611bf657600080fd5b6000611c0486828701611b52565b9350506020611c1586828701611b52565b9250506040611c2686828701611b67565b9150509250925092565b60008060408385031215611c4357600080fd5b6000611c5185828601611b52565b9250506020611c6285828601611b67565b9150509250929050565b600060208284031215611c7e57600080fd5b6000611c8c84828501611b67565b91505092915050565b611c9e81611fc6565b82525050565b611cad81611fd8565b82525050565b6000611cc0601583611f2b565b9150611ccb8261203d565b602082019050919050565b6000611ce3600b83611f2b565b9150611cee82612066565b602082019050919050565b6000611d06601383611f2b565b9150611d118261208f565b602082019050919050565b6000611d29601083611f2b565b9150611d34826120b8565b602082019050919050565b6000611d4c601183611f2b565b9150611d57826120e1565b602082019050919050565b6000611d6f601883611f2b565b9150611d7a8261210a565b602082019050919050565b6000611d92601283611f2b565b9150611d9d82612133565b602082019050919050565b6000611db5601f83611f2b565b9150611dc08261215c565b602082019050919050565b611dd481612004565b82525050565b6000602082019050611def6000830184611c95565b92915050565b6000602082019050611e0a6000830184611ca4565b92915050565b60006020820190508181036000830152611e2981611cb3565b9050919050565b60006020820190508181036000830152611e4981611cd6565b9050919050565b60006020820190508181036000830152611e6981611cf9565b9050919050565b60006020820190508181036000830152611e8981611d1c565b9050919050565b60006020820190508181036000830152611ea981611d3f565b9050919050565b60006020820190508181036000830152611ec981611d62565b9050919050565b60006020820190508181036000830152611ee981611d85565b9050919050565b60006020820190508181036000830152611f0981611da8565b9050919050565b6000602082019050611f256000830184611dcb565b92915050565b600082825260208201905092915050565b6000611f4782612004565b9150611f5283612004565b9250827fffffffffffffffffffffffffffffffffffffffffffffffffffffffffffffffff03821115611f8757611f8661200e565b5b828201905092915050565b6000611f9d82612004565b9150611fa883612004565b925082821015611fbb57611fba61200e565b5b828203905092915050565b6000611fd182611fe4565b9050919050565b60008115159050919050565b600073ffffffffffffffffffffffffffffffffffffffff82169050919050565b6000819050919050565b7f4e487b7100000000000000000000000000000000000000000000000000000000600052601160045260246000fd5b7f66726f6d206164647265737320697320656d7074790000000000000000000000600082015250565b7f49747320697320676f6f64000000000000000000000000000000000000000000600082015250565b7f746f206164647265737320697320656d70747900000000000000000000000000600082015250565b7f4164647265737320697320656d70747900000000000000000000000000000000600082015250565b7f496e737566666963656e742066756e6473000000000000000000000000000000600082015250565b7f4163636f756e74206164647265737320697320656d7074790000000000000000600082015250565b7f496e73756666696563656e742046756e64730000000000000000000000000000600082015250565b7f5265656e7472616e637947756172643a207265656e7472616e742063616c6c00600082015250565b61218e81611fc6565b811461219957600080fd5b50565b6121a581612004565b81146121b057600080fd5b5056fea26469706673582212208c2ef49478fab88450ed85131a7495645b5f0e654ab16d61689ab6ca2f72d22c64736f6c63430008040033",
  "linkReferences": {},
  "deployedLinkReferences": {}
}