{
  "_format": "hh-sol-artifact-1",
  "contractName": "LDToken",
  "sourceName": "contracts/LDToken.sol",
  "abi": [
    {
      "inputs": [
        {
          "internalType": "address",
          "name": "_operataionsContract",
          "type": "address"
        }
      ],
      "stateMutability": "nonpayable",
      "type": "constructor"
    },
    {
      "anonymous": false,
      "inputs": [
        {
          "indexed": true,
          "internalType": "address",
          "name": "owner",
          "type": "address"
        },
        {
          "indexed": true,
          "internalType": "address",
          "name": "spender",
          "type": "address"
        },
        {
          "indexed": false,
          "internalType": "uint256",
          "name": "value",
          "type": "uint256"
        }
      ],
      "name": "Approval",
      "type": "event"
    },
    {
      "anonymous": false,
      "inputs": [
        {
          "indexed": true,
          "internalType": "address",
          "name": "from",
          "type": "address"
        },
        {
          "indexed": true,
          "internalType": "address",
          "name": "to",
          "type": "address"
        },
        {
          "indexed": false,
          "internalType": "uint256",
          "name": "value",
          "type": "uint256"
        }
      ],
      "name": "Transfer",
      "type": "event"
    },
    {
      "inputs": [],
      "name": "TransactionContract",
      "outputs": [
        {
          "internalType": "address",
          "name": "",
          "type": "address"
        }
      ],
      "stateMutability": "view",
      "type": "function"
    },
    {
      "inputs": [
        {
          "internalType": "address",
          "name": "owner",
          "type": "address"
        },
        {
          "internalType": "address",
          "name": "spender",
          "type": "address"
        }
      ],
      "name": "allowance",
      "outputs": [
        {
          "internalType": "uint256",
          "name": "",
          "type": "uint256"
        }
      ],
      "stateMutability": "view",
      "type": "function"
    },
    {
      "inputs": [
        {
          "internalType": "address",
          "name": "",
          "type": "address"
        },
        {
          "internalType": "address",
          "name": "",
          "type": "address"
        }
      ],
      "name": "allowed",
      "outputs": [
        {
          "internalType": "uint256",
          "name": "",
          "type": "uint256"
        }
      ],
      "stateMutability": "view",
      "type": "function"
    },
    {
      "inputs": [
        {
          "internalType": "address",
          "name": "spender",
          "type": "address"
        },
        {
          "internalType": "uint256",
          "name": "amount",
          "type": "uint256"
        }
      ],
      "name": "approve",
      "outputs": [
        {
          "internalType": "bool",
          "name": "",
          "type": "bool"
        }
      ],
      "stateMutability": "nonpayable",
      "type": "function"
    },
    {
      "inputs": [
        {
          "internalType": "address",
          "name": "account",
          "type": "address"
        }
      ],
      "name": "balanceOf",
      "outputs": [
        {
          "internalType": "uint256",
          "name": "",
          "type": "uint256"
        }
      ],
      "stateMutability": "view",
      "type": "function"
    },
    {
      "inputs": [
        {
          "internalType": "address",
          "name": "",
          "type": "address"
        }
      ],
      "name": "balances",
      "outputs": [
        {
          "internalType": "uint256",
          "name": "",
          "type": "uint256"
        }
      ],
      "stateMutability": "view",
      "type": "function"
    },
    {
      "inputs": [
        {
          "internalType": "uint256",
          "name": "_amount",
          "type": "uint256"
        }
      ],
      "name": "buyTokens",
      "outputs": [],
      "stateMutability": "payable",
      "type": "function"
    },
    {
      "inputs": [
        {
          "internalType": "address",
          "name": "spender",
          "type": "address"
        },
        {
          "internalType": "uint256",
          "name": "subtractedValue",
          "type": "uint256"
        }
      ],
      "name": "decreaseAllowance",
      "outputs": [
        {
          "internalType": "bool",
          "name": "",
          "type": "bool"
        }
      ],
      "stateMutability": "nonpayable",
      "type": "function"
    },
    {
      "inputs": [
        {
          "internalType": "address",
          "name": "spender",
          "type": "address"
        },
        {
          "internalType": "uint256",
          "name": "addedValue",
          "type": "uint256"
        }
      ],
      "name": "increaseAllowance",
      "outputs": [
        {
          "internalType": "bool",
          "name": "",
          "type": "bool"
        }
      ],
      "stateMutability": "nonpayable",
      "type": "function"
    },
    {
      "inputs": [],
      "name": "owner",
      "outputs": [
        {
          "internalType": "address",
          "name": "",
          "type": "address"
        }
      ],
      "stateMutability": "view",
      "type": "function"
    },
    {
      "inputs": [
        {
          "internalType": "uint256",
          "name": "_amount",
          "type": "uint256"
        }
      ],
      "name": "sellTokens",
      "outputs": [],
      "stateMutability": "payable",
      "type": "function"
    },
    {
      "inputs": [
        {
          "internalType": "address",
          "name": "_transactionContract",
          "type": "address"
        }
      ],
      "name": "setTransactionContract",
      "outputs": [],
      "stateMutability": "nonpayable",
      "type": "function"
    },
    {
      "inputs": [],
      "name": "totalSupply",
      "outputs": [
        {
          "internalType": "uint256",
          "name": "",
          "type": "uint256"
        }
      ],
      "stateMutability": "view",
      "type": "function"
    },
    {
      "inputs": [
        {
          "internalType": "address",
          "name": "_to",
          "type": "address"
        },
        {
          "internalType": "uint256",
          "name": "_value",
          "type": "uint256"
        }
      ],
      "name": "transfer",
      "outputs": [
        {
          "internalType": "bool",
          "name": "",
          "type": "bool"
        }
      ],
      "stateMutability": "nonpayable",
      "type": "function"
    },
    {
      "inputs": [
        {
          "internalType": "address",
          "name": "from",
          "type": "address"
        },
        {
          "internalType": "address",
          "name": "to",
          "type": "address"
        },
        {
          "internalType": "uint256",
          "name": "amount",
          "type": "uint256"
        }
      ],
      "name": "transferFrom",
      "outputs": [
        {
          "internalType": "bool",
          "name": "",
          "type": "bool"
        }
      ],
      "stateMutability": "nonpayable",
      "type": "function"
    },
    {
      "inputs": [
        {
          "internalType": "address",
          "name": "newOwner",
          "type": "address"
        }
      ],
      "name": "transferOwnership",
      "outputs": [],
      "stateMutability": "nonpayable",
      "type": "function"
    }
  ],
  "bytecode": "0x60806040523480156200001157600080fd5b50604051620025cd380380620025cd8339818101604052810190620000379190620000dd565b336000806101000a81548173ffffffffffffffffffffffffffffffffffffffff021916908373ffffffffffffffffffffffffffffffffffffffff1602179055506001808190555080600560006101000a81548173ffffffffffffffffffffffffffffffffffffffff021916908373ffffffffffffffffffffffffffffffffffffffff1602179055505062000157565b600081519050620000d7816200013d565b92915050565b600060208284031215620000f057600080fd5b60006200010084828501620000c6565b91505092915050565b600062000116826200011d565b9050919050565b600073ffffffffffffffffffffffffffffffffffffffff82169050919050565b620001488162000109565b81146200015457600080fd5b50565b61246680620001676000396000f3fe6080604052600436106100f35760003560e01c806370a082311161008a578063a9059cbb11610059578063a9059cbb1461035a578063b492b37c14610397578063dd62ed3e146103c2578063f2fde38b146103ff576100f3565b806370a082311461028c5780638da5cb5b146102c9578063a3cd94be146102f4578063a457c2d71461031d576100f3565b80633610724e116100c65780633610724e146101da57806339509351146101f65780635c658165146102335780636c11bcd314610270576100f3565b8063095ea7b3146100f857806318160ddd1461013557806323b872dd1461016057806327e235e31461019d575b600080fd5b34801561010457600080fd5b5061011f600480360381019061011a9190611e76565b610428565b60405161012c9190612072565b60405180910390f35b34801561014157600080fd5b5061014a61059b565b604051610157919061218d565b60405180910390f35b34801561016c57600080fd5b5061018760048036038101906101829190611e27565b6105a5565b6040516101949190612072565b60405180910390f35b3480156101a957600080fd5b506101c460048036038101906101bf9190611dc2565b610b37565b6040516101d1919061218d565b60405180910390f35b6101f460048036038101906101ef9190611eb2565b610b4f565b005b34801561020257600080fd5b5061021d60048036038101906102189190611e76565b610cb2565b60405161022a9190612072565b60405180910390f35b34801561023f57600080fd5b5061025a60048036038101906102559190611deb565b610f1d565b604051610267919061218d565b60405180910390f35b61028a60048036038101906102859190611eb2565b610f42565b005b34801561029857600080fd5b506102b360048036038101906102ae9190611dc2565b6110ff565b6040516102c0919061218d565b60405180910390f35b3480156102d557600080fd5b506102de611148565b6040516102eb9190612020565b60405180910390f35b34801561030057600080fd5b5061031b60048036038101906103169190611dc2565b61116c565b005b34801561032957600080fd5b50610344600480360381019061033f9190611e76565b611208565b6040516103519190612072565b60405180910390f35b34801561036657600080fd5b50610381600480360381019061037c9190611e76565b611473565b60405161038e9190612072565b60405180910390f35b3480156103a357600080fd5b506103ac6117e6565b6040516103b99190612020565b60405180910390f35b3480156103ce57600080fd5b506103e960048036038101906103e49190611deb565b61180c565b6040516103f6919061218d565b60405180910390f35b34801561040b57600080fd5b5061042660048036038101906104219190611dc2565b611893565b005b60008073ffffffffffffffffffffffffffffffffffffffff168373ffffffffffffffffffffffffffffffffffffffff161415610499576040517f08c379a00000000000000000000000000000000000000000000000000000000081526004016104909061212d565b60405180910390fd5b81600860003373ffffffffffffffffffffffffffffffffffffffff1673ffffffffffffffffffffffffffffffffffffffff16815260200190815260200160002060008573ffffffffffffffffffffffffffffffffffffffff1673ffffffffffffffffffffffffffffffffffffffff168152602001908152602001600020600082825461052591906121b9565b925050819055508273ffffffffffffffffffffffffffffffffffffffff163373ffffffffffffffffffffffffffffffffffffffff167f8c5be1e5ebec7d5bd14f71427d1e84f3dd0314c0f7b2291e5b200ac8c7c3b92584604051610589919061218d565b60405180910390a36001905092915050565b6000600354905090565b600080600860008673ffffffffffffffffffffffffffffffffffffffff1673ffffffffffffffffffffffffffffffffffffffff16815260200190815260200160002060003373ffffffffffffffffffffffffffffffffffffffff1673ffffffffffffffffffffffffffffffffffffffff168152602001908152602001600020549050600460009054906101000a900473ffffffffffffffffffffffffffffffffffffffff1673ffffffffffffffffffffffffffffffffffffffff163373ffffffffffffffffffffffffffffffffffffffff16146107425782600760008773ffffffffffffffffffffffffffffffffffffffff1673ffffffffffffffffffffffffffffffffffffffff1681526020019081526020016000205410156106fe576040517f08c379a00000000000000000000000000000000000000000000000000000000081526004016106f59061210d565b60405180910390fd5b82811015610741576040517f08c379a00000000000000000000000000000000000000000000000000000000081526004016107389061210d565b60405180910390fd5b5b600073ffffffffffffffffffffffffffffffffffffffff168573ffffffffffffffffffffffffffffffffffffffff1614156107b2576040517f08c379a00000000000000000000000000000000000000000000000000000000081526004016107a99061208d565b60405180910390fd5b600073ffffffffffffffffffffffffffffffffffffffff168473ffffffffffffffffffffffffffffffffffffffff161415610822576040517f08c379a0000000000000000000000000000000000000000000000000000000008152600401610819906120cd565b60405180910390fd5b61087483600760008873ffffffffffffffffffffffffffffffffffffffff1673ffffffffffffffffffffffffffffffffffffffff1681526020019081526020016000205461196390919063ffffffff16565b600760008773ffffffffffffffffffffffffffffffffffffffff1673ffffffffffffffffffffffffffffffffffffffff1681526020019081526020016000208190555061090983600760008773ffffffffffffffffffffffffffffffffffffffff1673ffffffffffffffffffffffffffffffffffffffff168152602001908152602001600020546119b090919063ffffffff16565b600760008673ffffffffffffffffffffffffffffffffffffffff1673ffffffffffffffffffffffffffffffffffffffff16815260200190815260200160002081905550600460009054906101000a900473ffffffffffffffffffffffffffffffffffffffff1673ffffffffffffffffffffffffffffffffffffffff163373ffffffffffffffffffffffffffffffffffffffff1614610a35576109b4838261196390919063ffffffff16565b600860008773ffffffffffffffffffffffffffffffffffffffff1673ffffffffffffffffffffffffffffffffffffffff16815260200190815260200160002060003373ffffffffffffffffffffffffffffffffffffffff1673ffffffffffffffffffffffffffffffffffffffff168152602001908152602001600020819055505b600560009054906101000a900473ffffffffffffffffffffffffffffffffffffffff1673ffffffffffffffffffffffffffffffffffffffff166306b4af798686866040518463ffffffff1660e01b8152600401610a949392919061203b565b600060405180830381600087803b158015610aae57600080fd5b505af1158015610ac2573d6000803e3d6000fd5b505050508373ffffffffffffffffffffffffffffffffffffffff168573ffffffffffffffffffffffffffffffffffffffff167fddf252ad1be2c89b69c2b068fc378daa952ba7f163c4a11628f55a4df523b3ef85604051610b23919061218d565b60405180910390a360019150509392505050565b60076020528060005260406000206000915090505481565b60026001541415610b95576040517f08c379a0000000000000000000000000000000000000000000000000000000008152600401610b8c9061216d565b60405180910390fd5b6002600181905550803414610bdf576040517f08c379a0000000000000000000000000000000000000000000000000000000008152600401610bd6906120ad565b60405180910390fd5b610c0b600460009054906101000a900473ffffffffffffffffffffffffffffffffffffffff1682610428565b50610c163382611a02565b600560009054906101000a900473ffffffffffffffffffffffffffffffffffffffff1673ffffffffffffffffffffffffffffffffffffffff166306b4af79336000846040518463ffffffff1660e01b8152600401610c769392919061203b565b600060405180830381600087803b158015610c9057600080fd5b505af1158015610ca4573d6000803e3d6000fd5b505050506001808190555050565b60008073ffffffffffffffffffffffffffffffffffffffff168373ffffffffffffffffffffffffffffffffffffffff161415610d23576040517f08c379a0000000000000000000000000000000000000000000000000000000008152600401610d1a9061208d565b60405180910390fd5b610db282600860003373ffffffffffffffffffffffffffffffffffffffff1673ffffffffffffffffffffffffffffffffffffffff16815260200190815260200160002060008673ffffffffffffffffffffffffffffffffffffffff1673ffffffffffffffffffffffffffffffffffffffff168152602001908152602001600020546119b090919063ffffffff16565b600860003373ffffffffffffffffffffffffffffffffffffffff1673ffffffffffffffffffffffffffffffffffffffff16815260200190815260200160002060008573ffffffffffffffffffffffffffffffffffffffff1673ffffffffffffffffffffffffffffffffffffffff168152602001908152602001600020819055508273ffffffffffffffffffffffffffffffffffffffff163373ffffffffffffffffffffffffffffffffffffffff167f8c5be1e5ebec7d5bd14f71427d1e84f3dd0314c0f7b2291e5b200ac8c7c3b925600860003373ffffffffffffffffffffffffffffffffffffffff1673ffffffffffffffffffffffffffffffffffffffff16815260200190815260200160002060008773ffffffffffffffffffffffffffffffffffffffff1673ffffffffffffffffffffffffffffffffffffffff16815260200190815260200160002054604051610f0b919061218d565b60405180910390a36001905092915050565b6008602052816000526040600020602052806000526040600020600091509150505481565b60026001541415610f88576040517f08c379a0000000000000000000000000000000000000000000000000000000008152600401610f7f9061216d565b60405180910390fd5b600260018190555080600760003373ffffffffffffffffffffffffffffffffffffffff1673ffffffffffffffffffffffffffffffffffffffff168152602001908152602001600020541015611012576040517f08c379a0000000000000000000000000000000000000000000000000000000008152600401611009906120ad565b60405180910390fd5b61101c3382611b8c565b3373ffffffffffffffffffffffffffffffffffffffff166108fc829081150290604051600060405180830381858888f19350505050158015611062573d6000803e3d6000fd5b50600560009054906101000a900473ffffffffffffffffffffffffffffffffffffffff1673ffffffffffffffffffffffffffffffffffffffff166306b4af79600033846040518463ffffffff1660e01b81526004016110c39392919061203b565b600060405180830381600087803b1580156110dd57600080fd5b505af11580156110f1573d6000803e3d6000fd5b505050506001808190555050565b6000600760008373ffffffffffffffffffffffffffffffffffffffff1673ffffffffffffffffffffffffffffffffffffffff168152602001908152602001600020549050919050565b60008054906101000a900473ffffffffffffffffffffffffffffffffffffffff1681565b60008054906101000a900473ffffffffffffffffffffffffffffffffffffffff1673ffffffffffffffffffffffffffffffffffffffff163373ffffffffffffffffffffffffffffffffffffffff16146111c457600080fd5b80600460006101000a81548173ffffffffffffffffffffffffffffffffffffffff021916908373ffffffffffffffffffffffffffffffffffffffff16021790555050565b60008073ffffffffffffffffffffffffffffffffffffffff168373ffffffffffffffffffffffffffffffffffffffff161415611279576040517f08c379a00000000000000000000000000000000000000000000000000000000081526004016112709061208d565b60405180910390fd5b61130882600860003373ffffffffffffffffffffffffffffffffffffffff1673ffffffffffffffffffffffffffffffffffffffff16815260200190815260200160002060008673ffffffffffffffffffffffffffffffffffffffff1673ffffffffffffffffffffffffffffffffffffffff1681526020019081526020016000205461196390919063ffffffff16565b600860003373ffffffffffffffffffffffffffffffffffffffff1673ffffffffffffffffffffffffffffffffffffffff16815260200190815260200160002060008573ffffffffffffffffffffffffffffffffffffffff1673ffffffffffffffffffffffffffffffffffffffff168152602001908152602001600020819055508273ffffffffffffffffffffffffffffffffffffffff163373ffffffffffffffffffffffffffffffffffffffff167f8c5be1e5ebec7d5bd14f71427d1e84f3dd0314c0f7b2291e5b200ac8c7c3b925600860003373ffffffffffffffffffffffffffffffffffffffff1673ffffffffffffffffffffffffffffffffffffffff16815260200190815260200160002060008773ffffffffffffffffffffffffffffffffffffffff1673ffffffffffffffffffffffffffffffffffffffff16815260200190815260200160002054604051611461919061218d565b60405180910390a36001905092915050565b6000600260015414156114bb576040517f08c379a00000000000000000000000000000000000000000000000000000000081526004016114b29061216d565b60405180910390fd5b6002600181905550600073ffffffffffffffffffffffffffffffffffffffff168373ffffffffffffffffffffffffffffffffffffffff161415611533576040517f08c379a000000000000000000000000000000000000000000000000000000000815260040161152a906120ed565b60405180910390fd5b81600760003373ffffffffffffffffffffffffffffffffffffffff1673ffffffffffffffffffffffffffffffffffffffff1681526020019081526020016000205410156115b5576040517f08c379a00000000000000000000000000000000000000000000000000000000081526004016115ac9061214d565b60405180910390fd5b61160782600760003373ffffffffffffffffffffffffffffffffffffffff1673ffffffffffffffffffffffffffffffffffffffff1681526020019081526020016000205461196390919063ffffffff16565b600760003373ffffffffffffffffffffffffffffffffffffffff1673ffffffffffffffffffffffffffffffffffffffff1681526020019081526020016000208190555061169c82600760008673ffffffffffffffffffffffffffffffffffffffff1673ffffffffffffffffffffffffffffffffffffffff168152602001908152602001600020546119b090919063ffffffff16565b600760008573ffffffffffffffffffffffffffffffffffffffff1673ffffffffffffffffffffffffffffffffffffffff16815260200190815260200160002081905550600560009054906101000a900473ffffffffffffffffffffffffffffffffffffffff1673ffffffffffffffffffffffffffffffffffffffff166306b4af793385856040518463ffffffff1660e01b815260040161173e9392919061203b565b600060405180830381600087803b15801561175857600080fd5b505af115801561176c573d6000803e3d6000fd5b505050508273ffffffffffffffffffffffffffffffffffffffff163373ffffffffffffffffffffffffffffffffffffffff167fddf252ad1be2c89b69c2b068fc378daa952ba7f163c4a11628f55a4df523b3ef846040516117cd919061218d565b60405180910390a3600190506001808190555092915050565b600460009054906101000a900473ffffffffffffffffffffffffffffffffffffffff1681565b6000600860008473ffffffffffffffffffffffffffffffffffffffff1673ffffffffffffffffffffffffffffffffffffffff16815260200190815260200160002060008373ffffffffffffffffffffffffffffffffffffffff1673ffffffffffffffffffffffffffffffffffffffff16815260200190815260200160002054905092915050565b60008054906101000a900473ffffffffffffffffffffffffffffffffffffffff1673ffffffffffffffffffffffffffffffffffffffff163373ffffffffffffffffffffffffffffffffffffffff16146118eb57600080fd5b600073ffffffffffffffffffffffffffffffffffffffff168173ffffffffffffffffffffffffffffffffffffffff161461196057806000806101000a81548173ffffffffffffffffffffffffffffffffffffffff021916908373ffffffffffffffffffffffffffffffffffffffff1602179055505b50565b60008282111561199c577f4e487b7100000000000000000000000000000000000000000000000000000000600052600160045260246000fd5b81836119a8919061220f565b905092915050565b60008082846119bf91906121b9565b9050838110156119f8577f4e487b7100000000000000000000000000000000000000000000000000000000600052600160045260246000fd5b8091505092915050565b600073ffffffffffffffffffffffffffffffffffffffff168273ffffffffffffffffffffffffffffffffffffffff161415611a72576040517f08c379a0000000000000000000000000000000000000000000000000000000008152600401611a699061208d565b60405180910390fd5b611ac481600760008573ffffffffffffffffffffffffffffffffffffffff1673ffffffffffffffffffffffffffffffffffffffff168152602001908152602001600020546119b090919063ffffffff16565b600760008473ffffffffffffffffffffffffffffffffffffffff1673ffffffffffffffffffffffffffffffffffffffff16815260200190815260200160002081905550611b1c816003546119b090919063ffffffff16565b6003819055508173ffffffffffffffffffffffffffffffffffffffff16600073ffffffffffffffffffffffffffffffffffffffff167fddf252ad1be2c89b69c2b068fc378daa952ba7f163c4a11628f55a4df523b3ef83604051611b80919061218d565b60405180910390a35050565b600073ffffffffffffffffffffffffffffffffffffffff168273ffffffffffffffffffffffffffffffffffffffff161415611bfc576040517f08c379a0000000000000000000000000000000000000000000000000000000008152600401611bf39061208d565b60405180910390fd5b80600760008473ffffffffffffffffffffffffffffffffffffffff1673ffffffffffffffffffffffffffffffffffffffff168152602001908152602001600020541015611c7e576040517f08c379a0000000000000000000000000000000000000000000000000000000008152600401611c759061208d565b60405180910390fd5b611cd081600760008573ffffffffffffffffffffffffffffffffffffffff1673ffffffffffffffffffffffffffffffffffffffff1681526020019081526020016000205461196390919063ffffffff16565b600760008473ffffffffffffffffffffffffffffffffffffffff1673ffffffffffffffffffffffffffffffffffffffff16815260200190815260200160002081905550611d28816003546119b090919063ffffffff16565b600381905550600073ffffffffffffffffffffffffffffffffffffffff168273ffffffffffffffffffffffffffffffffffffffff167fddf252ad1be2c89b69c2b068fc378daa952ba7f163c4a11628f55a4df523b3ef83604051611d8c919061218d565b60405180910390a35050565b600081359050611da781612402565b92915050565b600081359050611dbc81612419565b92915050565b600060208284031215611dd457600080fd5b6000611de284828501611d98565b91505092915050565b60008060408385031215611dfe57600080fd5b6000611e0c85828601611d98565b9250506020611e1d85828601611d98565b9150509250929050565b600080600060608486031215611e3c57600080fd5b6000611e4a86828701611d98565b9350506020611e5b86828701611d98565b9250506040611e6c86828701611dad565b9150509250925092565b60008060408385031215611e8957600080fd5b6000611e9785828601611d98565b9250506020611ea885828601611dad565b9150509250929050565b600060208284031215611ec457600080fd5b6000611ed284828501611dad565b91505092915050565b611ee481612243565b82525050565b611ef381612255565b82525050565b6000611f066015836121a8565b9150611f11826122ba565b602082019050919050565b6000611f29600b836121a8565b9150611f34826122e3565b602082019050919050565b6000611f4c6013836121a8565b9150611f578261230c565b602082019050919050565b6000611f6f6010836121a8565b9150611f7a82612335565b602082019050919050565b6000611f926011836121a8565b9150611f9d8261235e565b602082019050919050565b6000611fb56018836121a8565b9150611fc082612387565b602082019050919050565b6000611fd86012836121a8565b9150611fe3826123b0565b602082019050919050565b6000611ffb601f836121a8565b9150612006826123d9565b602082019050919050565b61201a81612281565b82525050565b60006020820190506120356000830184611edb565b92915050565b60006060820190506120506000830186611edb565b61205d6020830185611edb565b61206a6040830184612011565b949350505050565b60006020820190506120876000830184611eea565b92915050565b600060208201905081810360008301526120a681611ef9565b9050919050565b600060208201905081810360008301526120c681611f1c565b9050919050565b600060208201905081810360008301526120e681611f3f565b9050919050565b6000602082019050818103600083015261210681611f62565b9050919050565b6000602082019050818103600083015261212681611f85565b9050919050565b6000602082019050818103600083015261214681611fa8565b9050919050565b6000602082019050818103600083015261216681611fcb565b9050919050565b6000602082019050818103600083015261218681611fee565b9050919050565b60006020820190506121a26000830184612011565b92915050565b600082825260208201905092915050565b60006121c482612281565b91506121cf83612281565b9250827fffffffffffffffffffffffffffffffffffffffffffffffffffffffffffffffff038211156122045761220361228b565b5b828201905092915050565b600061221a82612281565b915061222583612281565b9250828210156122385761223761228b565b5b828203905092915050565b600061224e82612261565b9050919050565b60008115159050919050565b600073ffffffffffffffffffffffffffffffffffffffff82169050919050565b6000819050919050565b7f4e487b7100000000000000000000000000000000000000000000000000000000600052601160045260246000fd5b7f66726f6d206164647265737320697320656d7074790000000000000000000000600082015250565b7f49747320697320676f6f64000000000000000000000000000000000000000000600082015250565b7f746f206164647265737320697320656d70747900000000000000000000000000600082015250565b7f4164647265737320697320656d70747900000000000000000000000000000000600082015250565b7f496e737566666963656e742066756e6473000000000000000000000000000000600082015250565b7f4163636f756e74206164647265737320697320656d7074790000000000000000600082015250565b7f496e73756666696563656e742046756e64730000000000000000000000000000600082015250565b7f5265656e7472616e637947756172643a207265656e7472616e742063616c6c00600082015250565b61240b81612243565b811461241657600080fd5b50565b61242281612281565b811461242d57600080fd5b5056fea2646970667358221220f91b55b065eb8973aaba0cdc5a516191637955917eaf5146f22ea7dcf026897a64736f6c63430008040033",
  "linkReferences": {},
  "deployedLinkReferences": {}
}