{
  "_format": "hh-sol-artifact-1",
  "contractName": "OperationHistoryContract",
  "sourceName": "contracts/OpeartionsHistory.sol",
  "abi": [
    {
      "inputs": [
        {
          "internalType": "address",
          "name": "buyer",
          "type": "address"
        },
        {
          "internalType": "address",
          "name": "seller",
          "type": "address"
        },
        {
          "internalType": "uint256",
          "name": "quantity",
          "type": "uint256"
        }
      ],
      "name": "addOperation",
      "outputs": [],
      "stateMutability": "nonpayable",
      "type": "function"
    },
    {
      "inputs": [],
      "name": "getUserOperations",
      "outputs": [
        {
          "components": [
            {
              "internalType": "uint256",
              "name": "id",
              "type": "uint256"
            },
            {
              "internalType": "address",
              "name": "from",
              "type": "address"
            },
            {
              "internalType": "address",
              "name": "to",
              "type": "address"
            },
            {
              "internalType": "uint256",
              "name": "quantity",
              "type": "uint256"
            },
            {
              "internalType": "uint256",
              "name": "timestamp",
              "type": "uint256"
            },
            {
              "internalType": "bool",
              "name": "isBuyer",
              "type": "bool"
            }
          ],
          "internalType": "struct OperationHistoryContract.Operation[]",
          "name": "",
          "type": "tuple[]"
        }
      ],
      "stateMutability": "view",
      "type": "function"
    }
  ],
  "bytecode": "0x60806040526000805534801561001457600080fd5b5061082b806100246000396000f3fe608060405234801561001057600080fd5b50600436106100365760003560e01c806306b4af791461003b578063ee6cc2fd14610057575b600080fd5b610055600480360381019061005091906105b7565b610075565b005b61005f61040c565b60405161006c9190610724565b60405180910390f35b600073ffffffffffffffffffffffffffffffffffffffff168373ffffffffffffffffffffffffffffffffffffffff161461023e57600160008473ffffffffffffffffffffffffffffffffffffffff1673ffffffffffffffffffffffffffffffffffffffff1681526020019081526020016000206040518060c0016040528060005481526020018573ffffffffffffffffffffffffffffffffffffffff1681526020018473ffffffffffffffffffffffffffffffffffffffff1681526020018381526020014281526020016001151581525090806001815401808255809150506001900390600052602060002090600602016000909190919091506000820151816000015560208201518160010160006101000a81548173ffffffffffffffffffffffffffffffffffffffff021916908373ffffffffffffffffffffffffffffffffffffffff16021790555060408201518160020160006101000a81548173ffffffffffffffffffffffffffffffffffffffff021916908373ffffffffffffffffffffffffffffffffffffffff160217905550606082015181600301556080820151816004015560a08201518160050160006101000a81548160ff02191690831515021790555050505b600073ffffffffffffffffffffffffffffffffffffffff168273ffffffffffffffffffffffffffffffffffffffff161461040757600160008373ffffffffffffffffffffffffffffffffffffffff1673ffffffffffffffffffffffffffffffffffffffff1681526020019081526020016000206040518060c0016040528060005481526020018573ffffffffffffffffffffffffffffffffffffffff1681526020018473ffffffffffffffffffffffffffffffffffffffff1681526020018381526020014281526020016000151581525090806001815401808255809150506001900390600052602060002090600602016000909190919091506000820151816000015560208201518160010160006101000a81548173ffffffffffffffffffffffffffffffffffffffff021916908373ffffffffffffffffffffffffffffffffffffffff16021790555060408201518160020160006101000a81548173ffffffffffffffffffffffffffffffffffffffff021916908373ffffffffffffffffffffffffffffffffffffffff160217905550606082015181600301556080820151816004015560a08201518160050160006101000a81548160ff02191690831515021790555050505b505050565b6060600160003373ffffffffffffffffffffffffffffffffffffffff1673ffffffffffffffffffffffffffffffffffffffff168152602001908152602001600020805480602002602001604051908101604052809291908181526020016000905b8282101561058457838290600052602060002090600602016040518060c0016040529081600082015481526020016001820160009054906101000a900473ffffffffffffffffffffffffffffffffffffffff1673ffffffffffffffffffffffffffffffffffffffff1673ffffffffffffffffffffffffffffffffffffffff1681526020016002820160009054906101000a900473ffffffffffffffffffffffffffffffffffffffff1673ffffffffffffffffffffffffffffffffffffffff1673ffffffffffffffffffffffffffffffffffffffff16815260200160038201548152602001600482015481526020016005820160009054906101000a900460ff1615151515815250508152602001906001019061046d565b50505050905090565b60008135905061059c816107c7565b92915050565b6000813590506105b1816107de565b92915050565b6000806000606084860312156105cc57600080fd5b60006105da8682870161058d565b93505060206105eb8682870161058d565b92505060406105fc868287016105a2565b9150509250925092565b6000610612838361069a565b60c08301905092915050565b6106278161077f565b82525050565b600061063882610756565b610642818561076e565b935061064d83610746565b8060005b8381101561067e5781516106658882610606565b975061067083610761565b925050600181019050610651565b5085935050505092915050565b61069481610791565b82525050565b60c0820160008201516106b06000850182610715565b5060208201516106c3602085018261061e565b5060408201516106d6604085018261061e565b5060608201516106e96060850182610715565b5060808201516106fc6080850182610715565b5060a082015161070f60a085018261068b565b50505050565b61071e816107bd565b82525050565b6000602082019050818103600083015261073e818461062d565b905092915050565b6000819050602082019050919050565b600081519050919050565b6000602082019050919050565b600082825260208201905092915050565b600061078a8261079d565b9050919050565b60008115159050919050565b600073ffffffffffffffffffffffffffffffffffffffff82169050919050565b6000819050919050565b6107d08161077f565b81146107db57600080fd5b50565b6107e7816107bd565b81146107f257600080fd5b5056fea264697066735822122052f641ea29bc71056d307a657cc7b397d8d2d1ea31126db004fd2e7f4ed967d564736f6c63430008040033",
  "linkReferences": {},
  "deployedLinkReferences": {}
}