{
  "_format": "hh-sol-artifact-1",
  "contractName": "OrderContract",
  "sourceName": "contracts/Order.sol",
  "abi": [
    {
      "inputs": [
        {
          "internalType": "address",
          "name": "_AssetContract",
          "type": "address"
        }
      ],
      "stateMutability": "nonpayable",
      "type": "constructor"
    },
    {
      "anonymous": false,
      "inputs": [
        {
          "indexed": false,
          "internalType": "uint256",
          "name": "id",
          "type": "uint256"
        },
        {
          "indexed": false,
          "internalType": "string",
          "name": "company_id",
          "type": "string"
        },
        {
          "indexed": false,
          "internalType": "uint256",
          "name": "price",
          "type": "uint256"
        },
        {
          "indexed": false,
          "internalType": "uint256",
          "name": "quantity",
          "type": "uint256"
        },
        {
          "indexed": false,
          "internalType": "uint256",
          "name": "timestamp",
          "type": "uint256"
        },
        {
          "indexed": false,
          "internalType": "address",
          "name": "seller",
          "type": "address"
        },
        {
          "indexed": false,
          "internalType": "address",
          "name": "buyer",
          "type": "address"
        },
        {
          "indexed": false,
          "internalType": "bool",
          "name": "isActive",
          "type": "bool"
        }
      ],
      "name": "BuyOrder",
      "type": "event"
    },
    {
      "anonymous": false,
      "inputs": [
        {
          "indexed": false,
          "internalType": "uint256",
          "name": "id",
          "type": "uint256"
        },
        {
          "indexed": false,
          "internalType": "string",
          "name": "company_id",
          "type": "string"
        },
        {
          "indexed": false,
          "internalType": "uint256",
          "name": "price",
          "type": "uint256"
        },
        {
          "indexed": false,
          "internalType": "uint256",
          "name": "quantity",
          "type": "uint256"
        },
        {
          "indexed": false,
          "internalType": "uint256",
          "name": "timestamp",
          "type": "uint256"
        },
        {
          "indexed": false,
          "internalType": "address",
          "name": "seller",
          "type": "address"
        },
        {
          "indexed": false,
          "internalType": "address",
          "name": "buyer",
          "type": "address"
        },
        {
          "indexed": false,
          "internalType": "bool",
          "name": "isActive",
          "type": "bool"
        }
      ],
      "name": "SellOrder",
      "type": "event"
    },
    {
      "inputs": [],
      "name": "_assetContract",
      "outputs": [
        {
          "internalType": "contract AssetContract",
          "name": "",
          "type": "address"
        }
      ],
      "stateMutability": "view",
      "type": "function"
    },
    {
      "inputs": [
        {
          "internalType": "uint256",
          "name": "_id",
          "type": "uint256"
        }
      ],
      "name": "activateBuyOrder",
      "outputs": [],
      "stateMutability": "nonpayable",
      "type": "function"
    },
    {
      "inputs": [
        {
          "internalType": "uint256",
          "name": "_id",
          "type": "uint256"
        }
      ],
      "name": "cancelBuyOrder",
      "outputs": [],
      "stateMutability": "nonpayable",
      "type": "function"
    },
    {
      "inputs": [
        {
          "internalType": "string",
          "name": "company_id",
          "type": "string"
        },
        {
          "internalType": "uint256",
          "name": "price",
          "type": "uint256"
        },
        {
          "internalType": "uint256",
          "name": "quantity",
          "type": "uint256"
        }
      ],
      "name": "createBuyOrder",
      "outputs": [],
      "stateMutability": "nonpayable",
      "type": "function"
    },
    {
      "inputs": [],
      "name": "getAllBuyOrders",
      "outputs": [
        {
          "components": [
            {
              "internalType": "uint256",
              "name": "id",
              "type": "uint256"
            },
            {
              "internalType": "string",
              "name": "company_id",
              "type": "string"
            },
            {
              "internalType": "uint256",
              "name": "price",
              "type": "uint256"
            },
            {
              "internalType": "uint256",
              "name": "quantity",
              "type": "uint256"
            },
            {
              "internalType": "uint256",
              "name": "timestamp",
              "type": "uint256"
            },
            {
              "internalType": "address",
              "name": "seller",
              "type": "address"
            },
            {
              "internalType": "address",
              "name": "buyer",
              "type": "address"
            },
            {
              "internalType": "bool",
              "name": "isActive",
              "type": "bool"
            }
          ],
          "internalType": "struct OrderContract.Order[]",
          "name": "",
          "type": "tuple[]"
        }
      ],
      "stateMutability": "view",
      "type": "function"
    },
    {
      "inputs": [
        {
          "internalType": "uint256",
          "name": "_id",
          "type": "uint256"
        }
      ],
      "name": "getBuyOrder",
      "outputs": [
        {
          "components": [
            {
              "internalType": "uint256",
              "name": "id",
              "type": "uint256"
            },
            {
              "internalType": "string",
              "name": "company_id",
              "type": "string"
            },
            {
              "internalType": "uint256",
              "name": "price",
              "type": "uint256"
            },
            {
              "internalType": "uint256",
              "name": "quantity",
              "type": "uint256"
            },
            {
              "internalType": "uint256",
              "name": "timestamp",
              "type": "uint256"
            },
            {
              "internalType": "address",
              "name": "seller",
              "type": "address"
            },
            {
              "internalType": "address",
              "name": "buyer",
              "type": "address"
            },
            {
              "internalType": "bool",
              "name": "isActive",
              "type": "bool"
            }
          ],
          "internalType": "struct OrderContract.Order",
          "name": "",
          "type": "tuple"
        }
      ],
      "stateMutability": "view",
      "type": "function"
    },
    {
      "inputs": [
        {
          "internalType": "string",
          "name": "_company_id",
          "type": "string"
        }
      ],
      "name": "getCurrentCompanyBuyOrder",
      "outputs": [
        {
          "components": [
            {
              "internalType": "uint256",
              "name": "id",
              "type": "uint256"
            },
            {
              "internalType": "string",
              "name": "company_id",
              "type": "string"
            },
            {
              "internalType": "uint256",
              "name": "price",
              "type": "uint256"
            },
            {
              "internalType": "uint256",
              "name": "quantity",
              "type": "uint256"
            },
            {
              "internalType": "uint256",
              "name": "timestamp",
              "type": "uint256"
            },
            {
              "internalType": "address",
              "name": "seller",
              "type": "address"
            },
            {
              "internalType": "address",
              "name": "buyer",
              "type": "address"
            },
            {
              "internalType": "bool",
              "name": "isActive",
              "type": "bool"
            }
          ],
          "internalType": "struct OrderContract.Order",
          "name": "",
          "type": "tuple"
        }
      ],
      "stateMutability": "view",
      "type": "function"
    },
    {
      "inputs": [],
      "name": "getMarketBuyOrders",
      "outputs": [
        {
          "components": [
            {
              "internalType": "uint256",
              "name": "id",
              "type": "uint256"
            },
            {
              "internalType": "string",
              "name": "company_id",
              "type": "string"
            },
            {
              "internalType": "uint256",
              "name": "price",
              "type": "uint256"
            },
            {
              "internalType": "uint256",
              "name": "quantity",
              "type": "uint256"
            },
            {
              "internalType": "uint256",
              "name": "timestamp",
              "type": "uint256"
            },
            {
              "internalType": "address",
              "name": "seller",
              "type": "address"
            },
            {
              "internalType": "address",
              "name": "buyer",
              "type": "address"
            },
            {
              "internalType": "bool",
              "name": "isActive",
              "type": "bool"
            }
          ],
          "internalType": "struct OrderContract.Order[]",
          "name": "",
          "type": "tuple[]"
        }
      ],
      "stateMutability": "view",
      "type": "function"
    },
    {
      "inputs": [],
      "name": "getReadyBuyOrders",
      "outputs": [
        {
          "components": [
            {
              "internalType": "uint256",
              "name": "order_id",
              "type": "uint256"
            },
            {
              "internalType": "uint256",
              "name": "asset_id",
              "type": "uint256"
            },
            {
              "internalType": "string",
              "name": "company_id",
              "type": "string"
            },
            {
              "internalType": "bool",
              "name": "isBuyOrder",
              "type": "bool"
            }
          ],
          "internalType": "struct OrderContract.OrderAssets[]",
          "name": "",
          "type": "tuple[]"
        }
      ],
      "stateMutability": "view",
      "type": "function"
    },
    {
      "inputs": [],
      "name": "getUserBuyOrders",
      "outputs": [
        {
          "components": [
            {
              "internalType": "uint256",
              "name": "id",
              "type": "uint256"
            },
            {
              "internalType": "string",
              "name": "company_id",
              "type": "string"
            },
            {
              "internalType": "uint256",
              "name": "price",
              "type": "uint256"
            },
            {
              "internalType": "uint256",
              "name": "quantity",
              "type": "uint256"
            },
            {
              "internalType": "uint256",
              "name": "timestamp",
              "type": "uint256"
            },
            {
              "internalType": "address",
              "name": "seller",
              "type": "address"
            },
            {
              "internalType": "address",
              "name": "buyer",
              "type": "address"
            },
            {
              "internalType": "bool",
              "name": "isActive",
              "type": "bool"
            }
          ],
          "internalType": "struct OrderContract.Order[]",
          "name": "",
          "type": "tuple[]"
        }
      ],
      "stateMutability": "view",
      "type": "function"
    },
    {
      "inputs": [
        {
          "internalType": "uint256",
          "name": "_id",
          "type": "uint256"
        },
        {
          "internalType": "uint256",
          "name": "price",
          "type": "uint256"
        },
        {
          "internalType": "uint256",
          "name": "quantity",
          "type": "uint256"
        }
      ],
      "name": "modifyOrder",
      "outputs": [],
      "stateMutability": "nonpayable",
      "type": "function"
    }
  ],
  "bytecode": "0x60806040523480156200001157600080fd5b5060405162002d7a38038062002d7a833981810160405281019062000037919062000096565b80600260006101000a81548173ffffffffffffffffffffffffffffffffffffffff021916908373ffffffffffffffffffffffffffffffffffffffff1602179055505062000110565b6000815190506200009081620000f6565b92915050565b600060208284031215620000a957600080fd5b6000620000b9848285016200007f565b91505092915050565b6000620000cf82620000d6565b9050919050565b600073ffffffffffffffffffffffffffffffffffffffff82169050919050565b6200010181620000c2565b81146200010d57600080fd5b50565b612c5a80620001206000396000f3fe608060405234801561001057600080fd5b50600436106100a95760003560e01c8063a318997011610071578063a318997014610150578063ab92b32a1461016e578063b1af1bda1461018c578063be5d147f146101bc578063c5ddf0d3146101d8578063e64a97cf146101f6576100a9565b8063228d0129146100ae5780632a59e53e146100ca5780632e98613e146100fa578063434cae61146101185780637eeafd3414610134575b600080fd5b6100c860048036038101906100c39190612264565b610214565b005b6100e460048036038101906100df91906121bc565b61034a565b6040516100f191906127f9565b60405180910390f35b6101026105f4565b60405161010f919061278c565b60405180910390f35b610132600480360381019061012d919061228d565b6108c6565b005b61014e600480360381019061014991906121fd565b6109f3565b005b610158610bf0565b604051610165919061278c565b60405180910390f35b610176611031565b604051610183919061276a565b60405180910390f35b6101a660048036038101906101a19190612264565b611638565b6040516101b391906127f9565b60405180910390f35b6101d660048036038101906101d19190612264565b611897565b005b6101e06119c4565b6040516101ed919061278c565b60405180910390f35b6101fe611e07565b60405161020b91906127ae565b60405180910390f35b60006003600081548110610251577f4e487b7100000000000000000000000000000000000000000000000000000000600052603260045260246000fd5b9060005260206000209060070201905060005b60005481101561031f5782600382815481106102a9577f4e487b7100000000000000000000000000000000000000000000000000000000600052603260045260246000fd5b906000526020600020906007020160000154141561030c57600381815481106102fb577f4e487b7100000000000000000000000000000000000000000000000000000000600052603260045260246000fd5b906000526020600020906007020191505b808061031790612b26565b915050610264565b5060018160060160146101000a81548160ff0219169083151502179055504281600401819055505050565b610352611e2d565b60005b6000548110156105ed5782604051602001610370919061273c565b60405160208183030381529060405280519060200120600382815481106103c0577f4e487b7100000000000000000000000000000000000000000000000000000000600052603260045260246000fd5b90600052602060002090600702016001016040516020016103e19190612753565b6040516020818303038152906040528051906020012014156105da5760038181548110610437577f4e487b7100000000000000000000000000000000000000000000000000000000600052603260045260246000fd5b9060005260206000209060070201604051806101000160405290816000820154815260200160018201805461046b90612ac3565b80601f016020809104026020016040519081016040528092919081815260200182805461049790612ac3565b80156104e45780601f106104b9576101008083540402835291602001916104e4565b820191906000526020600020905b8154815290600101906020018083116104c757829003601f168201915b505050505081526020016002820154815260200160038201548152602001600482015481526020016005820160009054906101000a900473ffffffffffffffffffffffffffffffffffffffff1673ffffffffffffffffffffffffffffffffffffffff1673ffffffffffffffffffffffffffffffffffffffff1681526020016006820160009054906101000a900473ffffffffffffffffffffffffffffffffffffffff1673ffffffffffffffffffffffffffffffffffffffff1673ffffffffffffffffffffffffffffffffffffffff1681526020016006820160149054906101000a900460ff1615151515815250509150506105ef565b80806105e590612b26565b915050610355565b505b919050565b6060600080805467ffffffffffffffff81111561063a577f4e487b7100000000000000000000000000000000000000000000000000000000600052604160045260246000fd5b60405190808252806020026020018201604052801561067357816020015b610660611e2d565b8152602001906001900390816106585790505b50905060005b6000548110156108bd57600381815481106106bd577f4e487b7100000000000000000000000000000000000000000000000000000000600052603260045260246000fd5b906000526020600020906007020160405180610100016040529081600082015481526020016001820180546106f190612ac3565b80601f016020809104026020016040519081016040528092919081815260200182805461071d90612ac3565b801561076a5780601f1061073f5761010080835404028352916020019161076a565b820191906000526020600020905b81548152906001019060200180831161074d57829003601f168201915b505050505081526020016002820154815260200160038201548152602001600482015481526020016005820160009054906101000a900473ffffffffffffffffffffffffffffffffffffffff1673ffffffffffffffffffffffffffffffffffffffff1673ffffffffffffffffffffffffffffffffffffffff1681526020016006820160009054906101000a900473ffffffffffffffffffffffffffffffffffffffff1673ffffffffffffffffffffffffffffffffffffffff1673ffffffffffffffffffffffffffffffffffffffff1681526020016006820160149054906101000a900460ff161515151581525050828481518110610891577f4e487b7100000000000000000000000000000000000000000000000000000000600052603260045260246000fd5b602002602001018190525082806108a790612b26565b93505080806108b590612b26565b915050610679565b50809250505090565b60006003600081548110610903577f4e487b7100000000000000000000000000000000000000000000000000000000600052603260045260246000fd5b9060005260206000209060070201905060005b6000548110156109d157846003828154811061095b577f4e487b7100000000000000000000000000000000000000000000000000000000600052603260045260246000fd5b90600052602060002090600702016000015414156109be57600381815481106109ad577f4e487b7100000000000000000000000000000000000000000000000000000000600052603260045260246000fd5b906000526020600020906007020191505b80806109c990612b26565b915050610916565b5082816002018190555081816003018190555042816004018190555050505050565b60036040518061010001604052806000548152602001858152602001848152602001838152602001428152602001600073ffffffffffffffffffffffffffffffffffffffff1681526020013373ffffffffffffffffffffffffffffffffffffffff168152602001600115158152509080600181540180825580915050600190039060005260206000209060070201600090919091909150600082015181600001556020820151816001019080519060200190610ab0929190611ea0565b5060408201518160020155606082015181600301556080820151816004015560a08201518160050160006101000a81548173ffffffffffffffffffffffffffffffffffffffff021916908373ffffffffffffffffffffffffffffffffffffffff16021790555060c08201518160060160006101000a81548173ffffffffffffffffffffffffffffffffffffffff021916908373ffffffffffffffffffffffffffffffffffffffff16021790555060e08201518160060160146101000a81548160ff0219169083151502179055505050600080815480929190610b9190612b26565b91905055507f23972ca93473282728158a3be07109f16d6944be14cfd432fe2035dd4e486a4c6001600054610bc691906129e1565b848484426000336001604051610be398979695949392919061281b565b60405180910390a1505050565b606060008060005b600054811015610cc2573273ffffffffffffffffffffffffffffffffffffffff1660038281548110610c53577f4e487b7100000000000000000000000000000000000000000000000000000000600052603260045260246000fd5b906000526020600020906007020160060160009054906101000a900473ffffffffffffffffffffffffffffffffffffffff1673ffffffffffffffffffffffffffffffffffffffff1614610caf578280610cab90612b26565b9350505b8080610cba90612b26565b915050610bf8565b5060008267ffffffffffffffff811115610d05577f4e487b7100000000000000000000000000000000000000000000000000000000600052604160045260246000fd5b604051908082528060200260200182016040528015610d3e57816020015b610d2b611e2d565b815260200190600190039081610d235790505b50905060005b600054811015611027573273ffffffffffffffffffffffffffffffffffffffff1660038281548110610d9f577f4e487b7100000000000000000000000000000000000000000000000000000000600052603260045260246000fd5b906000526020600020906007020160060160009054906101000a900473ffffffffffffffffffffffffffffffffffffffff1673ffffffffffffffffffffffffffffffffffffffff16146110145760038181548110610e26577f4e487b7100000000000000000000000000000000000000000000000000000000600052603260045260246000fd5b90600052602060002090600702016040518061010001604052908160008201548152602001600182018054610e5a90612ac3565b80601f0160208091040260200160405190810160405280929190818152602001828054610e8690612ac3565b8015610ed35780601f10610ea857610100808354040283529160200191610ed3565b820191906000526020600020905b815481529060010190602001808311610eb657829003601f168201915b505050505081526020016002820154815260200160038201548152602001600482015481526020016005820160009054906101000a900473ffffffffffffffffffffffffffffffffffffffff1673ffffffffffffffffffffffffffffffffffffffff1673ffffffffffffffffffffffffffffffffffffffff1681526020016006820160009054906101000a900473ffffffffffffffffffffffffffffffffffffffff1673ffffffffffffffffffffffffffffffffffffffff1673ffffffffffffffffffffffffffffffffffffffff1681526020016006820160149054906101000a900460ff161515151581525050828481518110610ffa577f4e487b7100000000000000000000000000000000000000000000000000000000600052603260045260246000fd5b6020026020010181905250828061101090612b26565b9350505b808061101f90612b26565b915050610d44565b5080935050505090565b606060008060006110406105f4565b905060005b815181101561125e576000600260009054906101000a900473ffffffffffffffffffffffffffffffffffffffff1673ffffffffffffffffffffffffffffffffffffffff16638dc289668484815181106110c7577f4e487b7100000000000000000000000000000000000000000000000000000000600052603260045260246000fd5b60200260200101516020015185858151811061110c577f4e487b7100000000000000000000000000000000000000000000000000000000600052603260045260246000fd5b6020026020010151604001516040518363ffffffff1660e01b81526004016111359291906127c9565b60006040518083038186803b15801561114d57600080fd5b505afa158015611161573d6000803e3d6000fd5b505050506040513d6000823e3d601f19601f8201168201806040525081019061118a919061217b565b90508282815181106111c5577f4e487b7100000000000000000000000000000000000000000000000000000000600052603260045260246000fd5b60200260200101516060015181511061124a5760005b838381518110611214577f4e487b7100000000000000000000000000000000000000000000000000000000600052603260045260246000fd5b60200260200101516060015181101561124857848061123290612b26565b955050808061124090612b26565b9150506111db565b505b50808061125690612b26565b915050611045565b5060008267ffffffffffffffff8111156112a1577f4e487b7100000000000000000000000000000000000000000000000000000000600052604160045260246000fd5b6040519080825280602002602001820160405280156112da57816020015b6112c7611f26565b8152602001906001900390816112bf5790505b50905060005b825181101561162d576000600260009054906101000a900473ffffffffffffffffffffffffffffffffffffffff1673ffffffffffffffffffffffffffffffffffffffff16638dc28966858481518110611362577f4e487b7100000000000000000000000000000000000000000000000000000000600052603260045260246000fd5b6020026020010151602001518685815181106113a7577f4e487b7100000000000000000000000000000000000000000000000000000000600052603260045260246000fd5b6020026020010151604001516040518363ffffffff1660e01b81526004016113d09291906127c9565b60006040518083038186803b1580156113e857600080fd5b505afa1580156113fc573d6000803e3d6000fd5b505050506040513d6000823e3d601f19601f82011682018060405250810190611425919061217b565b9050838281518110611460577f4e487b7100000000000000000000000000000000000000000000000000000000600052603260045260246000fd5b6020026020010151606001518151106116195760005b8483815181106114af577f4e487b7100000000000000000000000000000000000000000000000000000000600052603260045260246000fd5b602002602001015160600151811015611617576040518060800160405280868581518110611506577f4e487b7100000000000000000000000000000000000000000000000000000000600052603260045260246000fd5b6020026020010151600001518152602001838381518110611550577f4e487b7100000000000000000000000000000000000000000000000000000000600052603260045260246000fd5b602002602001015160200151815260200186858151811061159a577f4e487b7100000000000000000000000000000000000000000000000000000000600052603260045260246000fd5b6020026020010151602001518152602001600115158152508488815181106115eb577f4e487b7100000000000000000000000000000000000000000000000000000000600052603260045260246000fd5b6020026020010181905250868061160190612b26565b975050808061160f90612b26565b915050611476565b505b50808061162590612b26565b9150506112e0565b508094505050505090565b611640611e2d565b60005b600054811015611890578260038281548110611688577f4e487b7100000000000000000000000000000000000000000000000000000000600052603260045260246000fd5b906000526020600020906007020160000154141561187d57600381815481106116da577f4e487b7100000000000000000000000000000000000000000000000000000000600052603260045260246000fd5b9060005260206000209060070201604051806101000160405290816000820154815260200160018201805461170e90612ac3565b80601f016020809104026020016040519081016040528092919081815260200182805461173a90612ac3565b80156117875780601f1061175c57610100808354040283529160200191611787565b820191906000526020600020905b81548152906001019060200180831161176a57829003601f168201915b505050505081526020016002820154815260200160038201548152602001600482015481526020016005820160009054906101000a900473ffffffffffffffffffffffffffffffffffffffff1673ffffffffffffffffffffffffffffffffffffffff1673ffffffffffffffffffffffffffffffffffffffff1681526020016006820160009054906101000a900473ffffffffffffffffffffffffffffffffffffffff1673ffffffffffffffffffffffffffffffffffffffff1673ffffffffffffffffffffffffffffffffffffffff1681526020016006820160149054906101000a900460ff161515151581525050915050611892565b808061188890612b26565b915050611643565b505b919050565b600060036000815481106118d4577f4e487b7100000000000000000000000000000000000000000000000000000000600052603260045260246000fd5b9060005260206000209060070201905060005b6000548110156119a257826003828154811061192c577f4e487b7100000000000000000000000000000000000000000000000000000000600052603260045260246000fd5b906000526020600020906007020160000154141561198f576003818154811061197e577f4e487b7100000000000000000000000000000000000000000000000000000000600052603260045260246000fd5b906000526020600020906007020191505b808061199a90612b26565b9150506118e7565b5060008160060160146101000a81548160ff0219169083151502179055505050565b606060008060005b600054811015611a97573273ffffffffffffffffffffffffffffffffffffffff1660038281548110611a27577f4e487b7100000000000000000000000000000000000000000000000000000000600052603260045260246000fd5b906000526020600020906007020160060160009054906101000a900473ffffffffffffffffffffffffffffffffffffffff1673ffffffffffffffffffffffffffffffffffffffff161415611a84578280611a8090612b26565b9350505b8080611a8f90612b26565b9150506119cc565b5060008267ffffffffffffffff811115611ada577f4e487b7100000000000000000000000000000000000000000000000000000000600052604160045260246000fd5b604051908082528060200260200182016040528015611b1357816020015b611b00611e2d565b815260200190600190039081611af85790505b50905060005b600054811015611dfd573273ffffffffffffffffffffffffffffffffffffffff1660038281548110611b74577f4e487b7100000000000000000000000000000000000000000000000000000000600052603260045260246000fd5b906000526020600020906007020160060160009054906101000a900473ffffffffffffffffffffffffffffffffffffffff1673ffffffffffffffffffffffffffffffffffffffff161415611dea5760038181548110611bfc577f4e487b7100000000000000000000000000000000000000000000000000000000600052603260045260246000fd5b90600052602060002090600702016040518061010001604052908160008201548152602001600182018054611c3090612ac3565b80601f0160208091040260200160405190810160405280929190818152602001828054611c5c90612ac3565b8015611ca95780601f10611c7e57610100808354040283529160200191611ca9565b820191906000526020600020905b815481529060010190602001808311611c8c57829003601f168201915b505050505081526020016002820154815260200160038201548152602001600482015481526020016005820160009054906101000a900473ffffffffffffffffffffffffffffffffffffffff1673ffffffffffffffffffffffffffffffffffffffff1673ffffffffffffffffffffffffffffffffffffffff1681526020016006820160009054906101000a900473ffffffffffffffffffffffffffffffffffffffff1673ffffffffffffffffffffffffffffffffffffffff1673ffffffffffffffffffffffffffffffffffffffff1681526020016006820160149054906101000a900460ff161515151581525050828481518110611dd0577f4e487b7100000000000000000000000000000000000000000000000000000000600052603260045260246000fd5b60200260200101819052508280611de690612b26565b9350505b8080611df590612b26565b915050611b19565b5080935050505090565b600260009054906101000a900473ffffffffffffffffffffffffffffffffffffffff1681565b6040518061010001604052806000815260200160608152602001600081526020016000815260200160008152602001600073ffffffffffffffffffffffffffffffffffffffff168152602001600073ffffffffffffffffffffffffffffffffffffffff1681526020016000151581525090565b828054611eac90612ac3565b90600052602060002090601f016020900481019282611ece5760008555611f15565b82601f10611ee757805160ff1916838001178555611f15565b82800160010185558215611f15579182015b82811115611f14578251825591602001919060010190611ef9565b5b509050611f229190611f50565b5090565b60405180608001604052806000815260200160008152602001606081526020016000151581525090565b5b80821115611f69576000816000905550600101611f51565b5090565b6000611f80611f7b846128c5565b6128a0565b90508083825260208201905082856020860282011115611f9f57600080fd5b60005b85811015611fe957815167ffffffffffffffff811115611fc157600080fd5b808601611fce89826120ed565b85526020850194506020840193505050600181019050611fa2565b5050509392505050565b6000612006612001846128f1565b6128a0565b90508281526020810184848401111561201e57600080fd5b612029848285612a81565b509392505050565b600061204461203f846128f1565b6128a0565b90508281526020810184848401111561205c57600080fd5b612067848285612a90565b509392505050565b600082601f83011261208057600080fd5b8151612090848260208601611f6d565b91505092915050565b600082601f8301126120aa57600080fd5b81356120ba848260208601611ff3565b91505092915050565b600082601f8301126120d457600080fd5b81516120e4848260208601612031565b91505092915050565b6000604082840312156120ff57600080fd5b61210960406128a0565b9050600082015167ffffffffffffffff81111561212557600080fd5b612131848285016120c3565b600083015250602061214584828501612166565b60208301525092915050565b60008135905061216081612c0d565b92915050565b60008151905061217581612c0d565b92915050565b60006020828403121561218d57600080fd5b600082015167ffffffffffffffff8111156121a757600080fd5b6121b38482850161206f565b91505092915050565b6000602082840312156121ce57600080fd5b600082013567ffffffffffffffff8111156121e857600080fd5b6121f484828501612099565b91505092915050565b60008060006060848603121561221257600080fd5b600084013567ffffffffffffffff81111561222c57600080fd5b61223886828701612099565b935050602061224986828701612151565b925050604061225a86828701612151565b9150509250925092565b60006020828403121561227657600080fd5b600061228484828501612151565b91505092915050565b6000806000606084860312156122a257600080fd5b60006122b086828701612151565b93505060206122c186828701612151565b92505060406122d286828701612151565b9150509250925092565b60006122e8838361255b565b905092915050565b60006122fc83836125be565b905092915050565b61230d81612a15565b82525050565b61231c81612a15565b82525050565b600061232d82612957565b6123378185612992565b93508360208202850161234985612922565b8060005b85811015612385578484038952815161236685826122dc565b945061237183612978565b925060208a0199505060018101905061234d565b50829750879550505050505092915050565b60006123a282612962565b6123ac81856129a3565b9350836020820285016123be85612932565b8060005b858110156123fa57848403895281516123db85826122f0565b94506123e683612985565b925060208a019950506001810190506123c2565b50829750879550505050505092915050565b61241581612a27565b82525050565b61242481612a27565b82525050565b61243381612a5d565b82525050565b60006124448261296d565b61244e81856129b4565b935061245e818560208601612a90565b61246781612bfc565b840191505092915050565b600061247d8261296d565b61248781856129c5565b9350612497818560208601612a90565b6124a081612bfc565b840191505092915050565b60006124b68261296d565b6124c081856129d6565b93506124d0818560208601612a90565b80840191505092915050565b600081546124e981612ac3565b6124f381866129d6565b9450600182166000811461250e576001811461251f57612552565b60ff19831686528186019350612552565b61252885612942565b60005b8381101561254a5781548189015260018201915060208101905061252b565b838801955050505b50505092915050565b6000608083016000830151612573600086018261271e565b506020830151612586602086018261271e565b506040830151848203604086015261259e8282612439565b91505060608301516125b3606086018261240c565b508091505092915050565b6000610100830160008301516125d7600086018261271e565b50602083015184820360208601526125ef8282612439565b9150506040830151612604604086018261271e565b506060830151612617606086018261271e565b50608083015161262a608086018261271e565b5060a083015161263d60a0860182612304565b5060c083015161265060c0860182612304565b5060e083015161266360e086018261240c565b508091505092915050565b600061010083016000830151612687600086018261271e565b506020830151848203602086015261269f8282612439565b91505060408301516126b4604086018261271e565b5060608301516126c7606086018261271e565b5060808301516126da608086018261271e565b5060a08301516126ed60a0860182612304565b5060c083015161270060c0860182612304565b5060e083015161271360e086018261240c565b508091505092915050565b61272781612a53565b82525050565b61273681612a53565b82525050565b600061274882846124ab565b915081905092915050565b600061275f82846124dc565b915081905092915050565b600060208201905081810360008301526127848184612322565b905092915050565b600060208201905081810360008301526127a68184612397565b905092915050565b60006020820190506127c3600083018461242a565b92915050565b600060408201905081810360008301526127e38185612472565b90506127f2602083018461272d565b9392505050565b60006020820190508181036000830152612813818461266e565b905092915050565b600061010082019050612831600083018b61272d565b8181036020830152612843818a612472565b9050612852604083018961272d565b61285f606083018861272d565b61286c608083018761272d565b61287960a0830186612313565b61288660c0830185612313565b61289360e083018461241b565b9998505050505050505050565b60006128aa6128bb565b90506128b68282612af5565b919050565b6000604051905090565b600067ffffffffffffffff8211156128e0576128df612bcd565b5b602082029050602081019050919050565b600067ffffffffffffffff82111561290c5761290b612bcd565b5b61291582612bfc565b9050602081019050919050565b6000819050602082019050919050565b6000819050602082019050919050565b60008190508160005260206000209050919050565b600081519050919050565b600081519050919050565b600081519050919050565b6000602082019050919050565b6000602082019050919050565b600082825260208201905092915050565b600082825260208201905092915050565b600082825260208201905092915050565b600082825260208201905092915050565b600081905092915050565b60006129ec82612a53565b91506129f783612a53565b925082821015612a0a57612a09612b6f565b5b828203905092915050565b6000612a2082612a33565b9050919050565b60008115159050919050565b600073ffffffffffffffffffffffffffffffffffffffff82169050919050565b6000819050919050565b6000612a6882612a6f565b9050919050565b6000612a7a82612a33565b9050919050565b82818337600083830152505050565b60005b83811015612aae578082015181840152602081019050612a93565b83811115612abd576000848401525b50505050565b60006002820490506001821680612adb57607f821691505b60208210811415612aef57612aee612b9e565b5b50919050565b612afe82612bfc565b810181811067ffffffffffffffff82111715612b1d57612b1c612bcd565b5b80604052505050565b6000612b3182612a53565b91507fffffffffffffffffffffffffffffffffffffffffffffffffffffffffffffffff821415612b6457612b63612b6f565b5b600182019050919050565b7f4e487b7100000000000000000000000000000000000000000000000000000000600052601160045260246000fd5b7f4e487b7100000000000000000000000000000000000000000000000000000000600052602260045260246000fd5b7f4e487b7100000000000000000000000000000000000000000000000000000000600052604160045260246000fd5b6000601f19601f8301169050919050565b612c1681612a53565b8114612c2157600080fd5b5056fea2646970667358221220e2332a552f358d1668459013b81d4ec0f172f600a35b40c6755784085f20bf6764736f6c63430008040033",
  "linkReferences": {},
  "deployedLinkReferences": {}
}