{
  "_format": "hh-sol-artifact-1",
  "contractName": "OrderContract",
  "sourceName": "contracts/Order.sol",
  "abi": [
    {
      "inputs": [
        {
          "internalType": "address",
          "name": "_AssetContract",
          "type": "address"
        }
      ],
      "stateMutability": "nonpayable",
      "type": "constructor"
    },
    {
      "anonymous": false,
      "inputs": [
        {
          "indexed": false,
          "internalType": "uint256",
          "name": "id",
          "type": "uint256"
        },
        {
          "indexed": false,
          "internalType": "string",
          "name": "company_id",
          "type": "string"
        },
        {
          "indexed": false,
          "internalType": "uint256",
          "name": "price",
          "type": "uint256"
        },
        {
          "indexed": false,
          "internalType": "uint256",
          "name": "quantity",
          "type": "uint256"
        },
        {
          "indexed": false,
          "internalType": "uint256",
          "name": "timestamp",
          "type": "uint256"
        },
        {
          "indexed": false,
          "internalType": "address",
          "name": "seller",
          "type": "address"
        },
        {
          "indexed": false,
          "internalType": "address",
          "name": "buyer",
          "type": "address"
        },
        {
          "indexed": false,
          "internalType": "bool",
          "name": "isFullfield",
          "type": "bool"
        },
        {
          "indexed": false,
          "internalType": "bool",
          "name": "isActive",
          "type": "bool"
        }
      ],
      "name": "BuyOrder",
      "type": "event"
    },
    {
      "inputs": [],
      "name": "_assetContract",
      "outputs": [
        {
          "internalType": "contract AssetContract",
          "name": "",
          "type": "address"
        }
      ],
      "stateMutability": "view",
      "type": "function"
    },
    {
      "inputs": [
        {
          "internalType": "uint256",
          "name": "_id",
          "type": "uint256"
        }
      ],
      "name": "activateBuyOrder",
      "outputs": [],
      "stateMutability": "nonpayable",
      "type": "function"
    },
    {
      "inputs": [
        {
          "internalType": "uint256",
          "name": "_id",
          "type": "uint256"
        }
      ],
      "name": "cancelBuyOrder",
      "outputs": [],
      "stateMutability": "nonpayable",
      "type": "function"
    },
    {
      "inputs": [
        {
          "internalType": "string",
          "name": "company_id",
          "type": "string"
        },
        {
          "internalType": "uint256",
          "name": "price",
          "type": "uint256"
        },
        {
          "internalType": "uint256",
          "name": "quantity",
          "type": "uint256"
        }
      ],
      "name": "createBuyOrder",
      "outputs": [],
      "stateMutability": "nonpayable",
      "type": "function"
    },
    {
      "inputs": [],
      "name": "getAllBuyOrders",
      "outputs": [
        {
          "components": [
            {
              "internalType": "uint256",
              "name": "id",
              "type": "uint256"
            },
            {
              "internalType": "string",
              "name": "company_id",
              "type": "string"
            },
            {
              "internalType": "uint256",
              "name": "price",
              "type": "uint256"
            },
            {
              "internalType": "uint256",
              "name": "quantity",
              "type": "uint256"
            },
            {
              "internalType": "uint256",
              "name": "timestamp",
              "type": "uint256"
            },
            {
              "internalType": "address",
              "name": "seller",
              "type": "address"
            },
            {
              "internalType": "address",
              "name": "buyer",
              "type": "address"
            },
            {
              "internalType": "bool",
              "name": "isFullfield",
              "type": "bool"
            },
            {
              "internalType": "bool",
              "name": "isActive",
              "type": "bool"
            }
          ],
          "internalType": "struct OrderContract.Order[]",
          "name": "",
          "type": "tuple[]"
        }
      ],
      "stateMutability": "view",
      "type": "function"
    },
    {
      "inputs": [
        {
          "internalType": "uint256",
          "name": "_id",
          "type": "uint256"
        }
      ],
      "name": "getBuyOrder",
      "outputs": [
        {
          "components": [
            {
              "internalType": "uint256",
              "name": "id",
              "type": "uint256"
            },
            {
              "internalType": "string",
              "name": "company_id",
              "type": "string"
            },
            {
              "internalType": "uint256",
              "name": "price",
              "type": "uint256"
            },
            {
              "internalType": "uint256",
              "name": "quantity",
              "type": "uint256"
            },
            {
              "internalType": "uint256",
              "name": "timestamp",
              "type": "uint256"
            },
            {
              "internalType": "address",
              "name": "seller",
              "type": "address"
            },
            {
              "internalType": "address",
              "name": "buyer",
              "type": "address"
            },
            {
              "internalType": "bool",
              "name": "isFullfield",
              "type": "bool"
            },
            {
              "internalType": "bool",
              "name": "isActive",
              "type": "bool"
            }
          ],
          "internalType": "struct OrderContract.Order",
          "name": "",
          "type": "tuple"
        }
      ],
      "stateMutability": "view",
      "type": "function"
    },
    {
      "inputs": [
        {
          "internalType": "string",
          "name": "_company_id",
          "type": "string"
        }
      ],
      "name": "getCurrentCompanyBuyOrder",
      "outputs": [
        {
          "components": [
            {
              "internalType": "uint256",
              "name": "id",
              "type": "uint256"
            },
            {
              "internalType": "string",
              "name": "company_id",
              "type": "string"
            },
            {
              "internalType": "uint256",
              "name": "price",
              "type": "uint256"
            },
            {
              "internalType": "uint256",
              "name": "quantity",
              "type": "uint256"
            },
            {
              "internalType": "uint256",
              "name": "timestamp",
              "type": "uint256"
            },
            {
              "internalType": "address",
              "name": "seller",
              "type": "address"
            },
            {
              "internalType": "address",
              "name": "buyer",
              "type": "address"
            },
            {
              "internalType": "bool",
              "name": "isFullfield",
              "type": "bool"
            },
            {
              "internalType": "bool",
              "name": "isActive",
              "type": "bool"
            }
          ],
          "internalType": "struct OrderContract.Order",
          "name": "",
          "type": "tuple"
        }
      ],
      "stateMutability": "view",
      "type": "function"
    },
    {
      "inputs": [],
      "name": "getMarketBuyOrders",
      "outputs": [
        {
          "components": [
            {
              "internalType": "uint256",
              "name": "id",
              "type": "uint256"
            },
            {
              "internalType": "string",
              "name": "company_id",
              "type": "string"
            },
            {
              "internalType": "uint256",
              "name": "price",
              "type": "uint256"
            },
            {
              "internalType": "uint256",
              "name": "quantity",
              "type": "uint256"
            },
            {
              "internalType": "uint256",
              "name": "timestamp",
              "type": "uint256"
            },
            {
              "internalType": "address",
              "name": "seller",
              "type": "address"
            },
            {
              "internalType": "address",
              "name": "buyer",
              "type": "address"
            },
            {
              "internalType": "bool",
              "name": "isFullfield",
              "type": "bool"
            },
            {
              "internalType": "bool",
              "name": "isActive",
              "type": "bool"
            }
          ],
          "internalType": "struct OrderContract.Order[]",
          "name": "",
          "type": "tuple[]"
        }
      ],
      "stateMutability": "view",
      "type": "function"
    },
    {
      "inputs": [],
      "name": "getReadyBuyOrders",
      "outputs": [
        {
          "components": [
            {
              "internalType": "uint256",
              "name": "order_id",
              "type": "uint256"
            },
            {
              "internalType": "uint256",
              "name": "asset_id",
              "type": "uint256"
            },
            {
              "internalType": "string",
              "name": "company_id",
              "type": "string"
            },
            {
              "internalType": "bool",
              "name": "isBuyOrder",
              "type": "bool"
            }
          ],
          "internalType": "struct OrderContract.OrderAssets[]",
          "name": "",
          "type": "tuple[]"
        }
      ],
      "stateMutability": "view",
      "type": "function"
    },
    {
      "inputs": [],
      "name": "getUserBuyOrders",
      "outputs": [
        {
          "components": [
            {
              "internalType": "uint256",
              "name": "id",
              "type": "uint256"
            },
            {
              "internalType": "string",
              "name": "company_id",
              "type": "string"
            },
            {
              "internalType": "uint256",
              "name": "price",
              "type": "uint256"
            },
            {
              "internalType": "uint256",
              "name": "quantity",
              "type": "uint256"
            },
            {
              "internalType": "uint256",
              "name": "timestamp",
              "type": "uint256"
            },
            {
              "internalType": "address",
              "name": "seller",
              "type": "address"
            },
            {
              "internalType": "address",
              "name": "buyer",
              "type": "address"
            },
            {
              "internalType": "bool",
              "name": "isFullfield",
              "type": "bool"
            },
            {
              "internalType": "bool",
              "name": "isActive",
              "type": "bool"
            }
          ],
          "internalType": "struct OrderContract.Order[]",
          "name": "",
          "type": "tuple[]"
        }
      ],
      "stateMutability": "view",
      "type": "function"
    },
    {
      "inputs": [
        {
          "internalType": "uint256",
          "name": "_id",
          "type": "uint256"
        },
        {
          "internalType": "uint256",
          "name": "price",
          "type": "uint256"
        },
        {
          "internalType": "uint256",
          "name": "quantity",
          "type": "uint256"
        }
      ],
      "name": "modifyOrder",
      "outputs": [],
      "stateMutability": "nonpayable",
      "type": "function"
    }
  ],
  "bytecode": "0x60806040523480156200001157600080fd5b5060405162002f3538038062002f35833981810160405281019062000037919062000096565b80600260006101000a81548173ffffffffffffffffffffffffffffffffffffffff021916908373ffffffffffffffffffffffffffffffffffffffff1602179055505062000110565b6000815190506200009081620000f6565b92915050565b600060208284031215620000a957600080fd5b6000620000b9848285016200007f565b91505092915050565b6000620000cf82620000d6565b9050919050565b600073ffffffffffffffffffffffffffffffffffffffff82169050919050565b6200010181620000c2565b81146200010d57600080fd5b50565b612e1580620001206000396000f3fe608060405234801561001057600080fd5b50600436106100a95760003560e01c8063a318997011610071578063a318997014610150578063ab92b32a1461016e578063b1af1bda1461018c578063be5d147f146101bc578063c5ddf0d3146101d8578063e64a97cf146101f6576100a9565b8063228d0129146100ae5780632a59e53e146100ca5780632e98613e146100fa578063434cae61146101185780637eeafd3414610134575b600080fd5b6100c860048036038101906100c391906123e6565b610214565b005b6100e460048036038101906100df919061233e565b61034a565b6040516100f191906129a5565b60405180910390f35b61010261060f565b60405161010f9190612938565b60405180910390f35b610132600480360381019061012d919061240f565b6108fc565b005b61014e6004803603810190610149919061237f565b610a29565b005b610158610c53565b6040516101659190612938565b60405180910390f35b610176611174565b6040516101839190612916565b60405180910390f35b6101a660048036038101906101a191906123e6565b61177b565b6040516101b391906129a5565b60405180910390f35b6101d660048036038101906101d191906123e6565b6119f5565b005b6101e0611b22565b6040516101ed9190612938565b60405180910390f35b6101fe611f80565b60405161020b919061295a565b60405180910390f35b60006003600081548110610251577f4e487b7100000000000000000000000000000000000000000000000000000000600052603260045260246000fd5b9060005260206000209060070201905060005b60005481101561031f5782600382815481106102a9577f4e487b7100000000000000000000000000000000000000000000000000000000600052603260045260246000fd5b906000526020600020906007020160000154141561030c57600381815481106102fb577f4e487b7100000000000000000000000000000000000000000000000000000000600052603260045260246000fd5b906000526020600020906007020191505b808061031790612ce1565b915050610264565b5060018160060160156101000a81548160ff0219169083151502179055504281600401819055505050565b610352611fa6565b60005b600054811015610608578260405160200161037091906128e8565b60405160208183030381529060405280519060200120600382815481106103c0577f4e487b7100000000000000000000000000000000000000000000000000000000600052603260045260246000fd5b90600052602060002090600702016001016040516020016103e191906128ff565b6040516020818303038152906040528051906020012014156105f55760038181548110610437577f4e487b7100000000000000000000000000000000000000000000000000000000600052603260045260246000fd5b9060005260206000209060070201604051806101200160405290816000820154815260200160018201805461046b90612c7e565b80601f016020809104026020016040519081016040528092919081815260200182805461049790612c7e565b80156104e45780601f106104b9576101008083540402835291602001916104e4565b820191906000526020600020905b8154815290600101906020018083116104c757829003601f168201915b505050505081526020016002820154815260200160038201548152602001600482015481526020016005820160009054906101000a900473ffffffffffffffffffffffffffffffffffffffff1673ffffffffffffffffffffffffffffffffffffffff1673ffffffffffffffffffffffffffffffffffffffff1681526020016006820160009054906101000a900473ffffffffffffffffffffffffffffffffffffffff1673ffffffffffffffffffffffffffffffffffffffff1673ffffffffffffffffffffffffffffffffffffffff1681526020016006820160149054906101000a900460ff161515151581526020016006820160159054906101000a900460ff16151515158152505091505061060a565b808061060090612ce1565b915050610355565b505b919050565b6060600080805467ffffffffffffffff811115610655577f4e487b7100000000000000000000000000000000000000000000000000000000600052604160045260246000fd5b60405190808252806020026020018201604052801561068e57816020015b61067b611fa6565b8152602001906001900390816106735790505b50905060005b6000548110156108f357600381815481106106d8577f4e487b7100000000000000000000000000000000000000000000000000000000600052603260045260246000fd5b9060005260206000209060070201604051806101200160405290816000820154815260200160018201805461070c90612c7e565b80601f016020809104026020016040519081016040528092919081815260200182805461073890612c7e565b80156107855780601f1061075a57610100808354040283529160200191610785565b820191906000526020600020905b81548152906001019060200180831161076857829003601f168201915b505050505081526020016002820154815260200160038201548152602001600482015481526020016005820160009054906101000a900473ffffffffffffffffffffffffffffffffffffffff1673ffffffffffffffffffffffffffffffffffffffff1673ffffffffffffffffffffffffffffffffffffffff1681526020016006820160009054906101000a900473ffffffffffffffffffffffffffffffffffffffff1673ffffffffffffffffffffffffffffffffffffffff1673ffffffffffffffffffffffffffffffffffffffff1681526020016006820160149054906101000a900460ff161515151581526020016006820160159054906101000a900460ff1615151515815250508284815181106108c7577f4e487b7100000000000000000000000000000000000000000000000000000000600052603260045260246000fd5b602002602001018190525082806108dd90612ce1565b93505080806108eb90612ce1565b915050610694565b50809250505090565b60006003600081548110610939577f4e487b7100000000000000000000000000000000000000000000000000000000600052603260045260246000fd5b9060005260206000209060070201905060005b600054811015610a07578460038281548110610991577f4e487b7100000000000000000000000000000000000000000000000000000000600052603260045260246000fd5b90600052602060002090600702016000015414156109f457600381815481106109e3577f4e487b7100000000000000000000000000000000000000000000000000000000600052603260045260246000fd5b906000526020600020906007020191505b80806109ff90612ce1565b91505061094c565b5082816002018190555081816003018190555042816004018190555050505050565b60036040518061012001604052806000548152602001858152602001848152602001838152602001428152602001600073ffffffffffffffffffffffffffffffffffffffff1681526020013373ffffffffffffffffffffffffffffffffffffffff168152602001600015158152602001600115158152509080600181540180825580915050600190039060005260206000209060070201600090919091909150600082015181600001556020820151816001019080519060200190610aef929190612022565b5060408201518160020155606082015181600301556080820151816004015560a08201518160050160006101000a81548173ffffffffffffffffffffffffffffffffffffffff021916908373ffffffffffffffffffffffffffffffffffffffff16021790555060c08201518160060160006101000a81548173ffffffffffffffffffffffffffffffffffffffff021916908373ffffffffffffffffffffffffffffffffffffffff16021790555060e08201518160060160146101000a81548160ff0219169083151502179055506101008201518160060160156101000a81548160ff0219169083151502179055505050600080815480929190610bf190612ce1565b91905055507f9d9699d67dcc808249be804683210dbc3d4d04b4625cfead4750f8aec40e22f76001600054610c269190612b9c565b8484844260003360006001604051610c46999897969594939291906129c7565b60405180910390a1505050565b606060008060005b600054811015610d25573273ffffffffffffffffffffffffffffffffffffffff1660038281548110610cb6577f4e487b7100000000000000000000000000000000000000000000000000000000600052603260045260246000fd5b906000526020600020906007020160060160009054906101000a900473ffffffffffffffffffffffffffffffffffffffff1673ffffffffffffffffffffffffffffffffffffffff1614610d12578280610d0e90612ce1565b9350505b8080610d1d90612ce1565b915050610c5b565b5060008267ffffffffffffffff811115610d68577f4e487b7100000000000000000000000000000000000000000000000000000000600052604160045260246000fd5b604051908082528060200260200182016040528015610da157816020015b610d8e611fa6565b815260200190600190039081610d865790505b50905060005b60005481101561116a573273ffffffffffffffffffffffffffffffffffffffff1660038281548110610e02577f4e487b7100000000000000000000000000000000000000000000000000000000600052603260045260246000fd5b906000526020600020906007020160060160009054906101000a900473ffffffffffffffffffffffffffffffffffffffff1673ffffffffffffffffffffffffffffffffffffffff1614158015610ead575060038181548110610e8d577f4e487b7100000000000000000000000000000000000000000000000000000000600052603260045260246000fd5b906000526020600020906007020160060160159054906101000a900460ff165b8015610f0f575060038181548110610eee577f4e487b7100000000000000000000000000000000000000000000000000000000600052603260045260246000fd5b906000526020600020906007020160060160149054906101000a900460ff16155b156111575760038181548110610f4e577f4e487b7100000000000000000000000000000000000000000000000000000000600052603260045260246000fd5b90600052602060002090600702016040518061012001604052908160008201548152602001600182018054610f8290612c7e565b80601f0160208091040260200160405190810160405280929190818152602001828054610fae90612c7e565b8015610ffb5780601f10610fd057610100808354040283529160200191610ffb565b820191906000526020600020905b815481529060010190602001808311610fde57829003601f168201915b505050505081526020016002820154815260200160038201548152602001600482015481526020016005820160009054906101000a900473ffffffffffffffffffffffffffffffffffffffff1673ffffffffffffffffffffffffffffffffffffffff1673ffffffffffffffffffffffffffffffffffffffff1681526020016006820160009054906101000a900473ffffffffffffffffffffffffffffffffffffffff1673ffffffffffffffffffffffffffffffffffffffff1673ffffffffffffffffffffffffffffffffffffffff1681526020016006820160149054906101000a900460ff161515151581526020016006820160159054906101000a900460ff16151515158152505082848151811061113d577f4e487b7100000000000000000000000000000000000000000000000000000000600052603260045260246000fd5b6020026020010181905250828061115390612ce1565b9350505b808061116290612ce1565b915050610da7565b5080935050505090565b6060600080600061118361060f565b905060005b81518110156113a1576000600260009054906101000a900473ffffffffffffffffffffffffffffffffffffffff1673ffffffffffffffffffffffffffffffffffffffff16638dc2896684848151811061120a577f4e487b7100000000000000000000000000000000000000000000000000000000600052603260045260246000fd5b60200260200101516020015185858151811061124f577f4e487b7100000000000000000000000000000000000000000000000000000000600052603260045260246000fd5b6020026020010151604001516040518363ffffffff1660e01b8152600401611278929190612975565b60006040518083038186803b15801561129057600080fd5b505afa1580156112a4573d6000803e3d6000fd5b505050506040513d6000823e3d601f19601f820116820180604052508101906112cd91906122fd565b9050828281518110611308577f4e487b7100000000000000000000000000000000000000000000000000000000600052603260045260246000fd5b60200260200101516060015181511061138d5760005b838381518110611357577f4e487b7100000000000000000000000000000000000000000000000000000000600052603260045260246000fd5b60200260200101516060015181101561138b57848061137590612ce1565b955050808061138390612ce1565b91505061131e565b505b50808061139990612ce1565b915050611188565b5060008267ffffffffffffffff8111156113e4577f4e487b7100000000000000000000000000000000000000000000000000000000600052604160045260246000fd5b60405190808252806020026020018201604052801561141d57816020015b61140a6120a8565b8152602001906001900390816114025790505b50905060005b8251811015611770576000600260009054906101000a900473ffffffffffffffffffffffffffffffffffffffff1673ffffffffffffffffffffffffffffffffffffffff16638dc289668584815181106114a5577f4e487b7100000000000000000000000000000000000000000000000000000000600052603260045260246000fd5b6020026020010151602001518685815181106114ea577f4e487b7100000000000000000000000000000000000000000000000000000000600052603260045260246000fd5b6020026020010151604001516040518363ffffffff1660e01b8152600401611513929190612975565b60006040518083038186803b15801561152b57600080fd5b505afa15801561153f573d6000803e3d6000fd5b505050506040513d6000823e3d601f19601f8201168201806040525081019061156891906122fd565b90508382815181106115a3577f4e487b7100000000000000000000000000000000000000000000000000000000600052603260045260246000fd5b60200260200101516060015181511061175c5760005b8483815181106115f2577f4e487b7100000000000000000000000000000000000000000000000000000000600052603260045260246000fd5b60200260200101516060015181101561175a576040518060800160405280868581518110611649577f4e487b7100000000000000000000000000000000000000000000000000000000600052603260045260246000fd5b6020026020010151600001518152602001838381518110611693577f4e487b7100000000000000000000000000000000000000000000000000000000600052603260045260246000fd5b60200260200101516020015181526020018685815181106116dd577f4e487b7100000000000000000000000000000000000000000000000000000000600052603260045260246000fd5b60200260200101516020015181526020016001151581525084888151811061172e577f4e487b7100000000000000000000000000000000000000000000000000000000600052603260045260246000fd5b6020026020010181905250868061174490612ce1565b975050808061175290612ce1565b9150506115b9565b505b50808061176890612ce1565b915050611423565b508094505050505090565b611783611fa6565b60005b6000548110156119ee5782600382815481106117cb577f4e487b7100000000000000000000000000000000000000000000000000000000600052603260045260246000fd5b90600052602060002090600702016000015414156119db576003818154811061181d577f4e487b7100000000000000000000000000000000000000000000000000000000600052603260045260246000fd5b9060005260206000209060070201604051806101200160405290816000820154815260200160018201805461185190612c7e565b80601f016020809104026020016040519081016040528092919081815260200182805461187d90612c7e565b80156118ca5780601f1061189f576101008083540402835291602001916118ca565b820191906000526020600020905b8154815290600101906020018083116118ad57829003601f168201915b505050505081526020016002820154815260200160038201548152602001600482015481526020016005820160009054906101000a900473ffffffffffffffffffffffffffffffffffffffff1673ffffffffffffffffffffffffffffffffffffffff1673ffffffffffffffffffffffffffffffffffffffff1681526020016006820160009054906101000a900473ffffffffffffffffffffffffffffffffffffffff1673ffffffffffffffffffffffffffffffffffffffff1673ffffffffffffffffffffffffffffffffffffffff1681526020016006820160149054906101000a900460ff161515151581526020016006820160159054906101000a900460ff1615151515815250509150506119f0565b80806119e690612ce1565b915050611786565b505b919050565b60006003600081548110611a32577f4e487b7100000000000000000000000000000000000000000000000000000000600052603260045260246000fd5b9060005260206000209060070201905060005b600054811015611b00578260038281548110611a8a577f4e487b7100000000000000000000000000000000000000000000000000000000600052603260045260246000fd5b9060005260206000209060070201600001541415611aed5760038181548110611adc577f4e487b7100000000000000000000000000000000000000000000000000000000600052603260045260246000fd5b906000526020600020906007020191505b8080611af890612ce1565b915050611a45565b5060008160060160156101000a81548160ff0219169083151502179055505050565b606060008060005b600054811015611bf5573273ffffffffffffffffffffffffffffffffffffffff1660038281548110611b85577f4e487b7100000000000000000000000000000000000000000000000000000000600052603260045260246000fd5b906000526020600020906007020160060160009054906101000a900473ffffffffffffffffffffffffffffffffffffffff1673ffffffffffffffffffffffffffffffffffffffff161415611be2578280611bde90612ce1565b9350505b8080611bed90612ce1565b915050611b2a565b5060008267ffffffffffffffff811115611c38577f4e487b7100000000000000000000000000000000000000000000000000000000600052604160045260246000fd5b604051908082528060200260200182016040528015611c7157816020015b611c5e611fa6565b815260200190600190039081611c565790505b50905060005b600054811015611f76573273ffffffffffffffffffffffffffffffffffffffff1660038281548110611cd2577f4e487b7100000000000000000000000000000000000000000000000000000000600052603260045260246000fd5b906000526020600020906007020160060160009054906101000a900473ffffffffffffffffffffffffffffffffffffffff1673ffffffffffffffffffffffffffffffffffffffff161415611f635760038181548110611d5a577f4e487b7100000000000000000000000000000000000000000000000000000000600052603260045260246000fd5b90600052602060002090600702016040518061012001604052908160008201548152602001600182018054611d8e90612c7e565b80601f0160208091040260200160405190810160405280929190818152602001828054611dba90612c7e565b8015611e075780601f10611ddc57610100808354040283529160200191611e07565b820191906000526020600020905b815481529060010190602001808311611dea57829003601f168201915b505050505081526020016002820154815260200160038201548152602001600482015481526020016005820160009054906101000a900473ffffffffffffffffffffffffffffffffffffffff1673ffffffffffffffffffffffffffffffffffffffff1673ffffffffffffffffffffffffffffffffffffffff1681526020016006820160009054906101000a900473ffffffffffffffffffffffffffffffffffffffff1673ffffffffffffffffffffffffffffffffffffffff1673ffffffffffffffffffffffffffffffffffffffff1681526020016006820160149054906101000a900460ff161515151581526020016006820160159054906101000a900460ff161515151581525050828481518110611f49577f4e487b7100000000000000000000000000000000000000000000000000000000600052603260045260246000fd5b60200260200101819052508280611f5f90612ce1565b9350505b8080611f6e90612ce1565b915050611c77565b5080935050505090565b600260009054906101000a900473ffffffffffffffffffffffffffffffffffffffff1681565b6040518061012001604052806000815260200160608152602001600081526020016000815260200160008152602001600073ffffffffffffffffffffffffffffffffffffffff168152602001600073ffffffffffffffffffffffffffffffffffffffff1681526020016000151581526020016000151581525090565b82805461202e90612c7e565b90600052602060002090601f0160209004810192826120505760008555612097565b82601f1061206957805160ff1916838001178555612097565b82800160010185558215612097579182015b8281111561209657825182559160200191906001019061207b565b5b5090506120a491906120d2565b5090565b60405180608001604052806000815260200160008152602001606081526020016000151581525090565b5b808211156120eb5760008160009055506001016120d3565b5090565b60006121026120fd84612a80565b612a5b565b9050808382526020820190508285602086028201111561212157600080fd5b60005b8581101561216b57815167ffffffffffffffff81111561214357600080fd5b808601612150898261226f565b85526020850194506020840193505050600181019050612124565b5050509392505050565b600061218861218384612aac565b612a5b565b9050828152602081018484840111156121a057600080fd5b6121ab848285612c3c565b509392505050565b60006121c66121c184612aac565b612a5b565b9050828152602081018484840111156121de57600080fd5b6121e9848285612c4b565b509392505050565b600082601f83011261220257600080fd5b81516122128482602086016120ef565b91505092915050565b600082601f83011261222c57600080fd5b813561223c848260208601612175565b91505092915050565b600082601f83011261225657600080fd5b81516122668482602086016121b3565b91505092915050565b60006040828403121561228157600080fd5b61228b6040612a5b565b9050600082015167ffffffffffffffff8111156122a757600080fd5b6122b384828501612245565b60008301525060206122c7848285016122e8565b60208301525092915050565b6000813590506122e281612dc8565b92915050565b6000815190506122f781612dc8565b92915050565b60006020828403121561230f57600080fd5b600082015167ffffffffffffffff81111561232957600080fd5b612335848285016121f1565b91505092915050565b60006020828403121561235057600080fd5b600082013567ffffffffffffffff81111561236a57600080fd5b6123768482850161221b565b91505092915050565b60008060006060848603121561239457600080fd5b600084013567ffffffffffffffff8111156123ae57600080fd5b6123ba8682870161221b565b93505060206123cb868287016122d3565b92505060406123dc868287016122d3565b9150509250925092565b6000602082840312156123f857600080fd5b6000612406848285016122d3565b91505092915050565b60008060006060848603121561242457600080fd5b6000612432868287016122d3565b9350506020612443868287016122d3565b9250506040612454868287016122d3565b9150509250925092565b600061246a83836126dd565b905092915050565b600061247e8383612740565b905092915050565b61248f81612bd0565b82525050565b61249e81612bd0565b82525050565b60006124af82612b12565b6124b98185612b4d565b9350836020820285016124cb85612add565b8060005b8581101561250757848403895281516124e8858261245e565b94506124f383612b33565b925060208a019950506001810190506124cf565b50829750879550505050505092915050565b600061252482612b1d565b61252e8185612b5e565b93508360208202850161254085612aed565b8060005b8581101561257c578484038952815161255d8582612472565b945061256883612b40565b925060208a01995050600181019050612544565b50829750879550505050505092915050565b61259781612be2565b82525050565b6125a681612be2565b82525050565b6125b581612c18565b82525050565b60006125c682612b28565b6125d08185612b6f565b93506125e0818560208601612c4b565b6125e981612db7565b840191505092915050565b60006125ff82612b28565b6126098185612b80565b9350612619818560208601612c4b565b61262281612db7565b840191505092915050565b600061263882612b28565b6126428185612b91565b9350612652818560208601612c4b565b80840191505092915050565b6000815461266b81612c7e565b6126758186612b91565b9450600182166000811461269057600181146126a1576126d4565b60ff198316865281860193506126d4565b6126aa85612afd565b60005b838110156126cc578154818901526001820191506020810190506126ad565b838801955050505b50505092915050565b60006080830160008301516126f560008601826128ca565b50602083015161270860208601826128ca565b506040830151848203604086015261272082826125bb565b9150506060830151612735606086018261258e565b508091505092915050565b60006101208301600083015161275960008601826128ca565b506020830151848203602086015261277182826125bb565b915050604083015161278660408601826128ca565b50606083015161279960608601826128ca565b5060808301516127ac60808601826128ca565b5060a08301516127bf60a0860182612486565b5060c08301516127d260c0860182612486565b5060e08301516127e560e086018261258e565b506101008301516127fa61010086018261258e565b508091505092915050565b60006101208301600083015161281e60008601826128ca565b506020830151848203602086015261283682826125bb565b915050604083015161284b60408601826128ca565b50606083015161285e60608601826128ca565b50608083015161287160808601826128ca565b5060a083015161288460a0860182612486565b5060c083015161289760c0860182612486565b5060e08301516128aa60e086018261258e565b506101008301516128bf61010086018261258e565b508091505092915050565b6128d381612c0e565b82525050565b6128e281612c0e565b82525050565b60006128f4828461262d565b915081905092915050565b600061290b828461265e565b915081905092915050565b6000602082019050818103600083015261293081846124a4565b905092915050565b600060208201905081810360008301526129528184612519565b905092915050565b600060208201905061296f60008301846125ac565b92915050565b6000604082019050818103600083015261298f81856125f4565b905061299e60208301846128d9565b9392505050565b600060208201905081810360008301526129bf8184612805565b905092915050565b6000610120820190506129dd600083018c6128d9565b81810360208301526129ef818b6125f4565b90506129fe604083018a6128d9565b612a0b60608301896128d9565b612a1860808301886128d9565b612a2560a0830187612495565b612a3260c0830186612495565b612a3f60e083018561259d565b612a4d61010083018461259d565b9a9950505050505050505050565b6000612a65612a76565b9050612a718282612cb0565b919050565b6000604051905090565b600067ffffffffffffffff821115612a9b57612a9a612d88565b5b602082029050602081019050919050565b600067ffffffffffffffff821115612ac757612ac6612d88565b5b612ad082612db7565b9050602081019050919050565b6000819050602082019050919050565b6000819050602082019050919050565b60008190508160005260206000209050919050565b600081519050919050565b600081519050919050565b600081519050919050565b6000602082019050919050565b6000602082019050919050565b600082825260208201905092915050565b600082825260208201905092915050565b600082825260208201905092915050565b600082825260208201905092915050565b600081905092915050565b6000612ba782612c0e565b9150612bb283612c0e565b925082821015612bc557612bc4612d2a565b5b828203905092915050565b6000612bdb82612bee565b9050919050565b60008115159050919050565b600073ffffffffffffffffffffffffffffffffffffffff82169050919050565b6000819050919050565b6000612c2382612c2a565b9050919050565b6000612c3582612bee565b9050919050565b82818337600083830152505050565b60005b83811015612c69578082015181840152602081019050612c4e565b83811115612c78576000848401525b50505050565b60006002820490506001821680612c9657607f821691505b60208210811415612caa57612ca9612d59565b5b50919050565b612cb982612db7565b810181811067ffffffffffffffff82111715612cd857612cd7612d88565b5b80604052505050565b6000612cec82612c0e565b91507fffffffffffffffffffffffffffffffffffffffffffffffffffffffffffffffff821415612d1f57612d1e612d2a565b5b600182019050919050565b7f4e487b7100000000000000000000000000000000000000000000000000000000600052601160045260246000fd5b7f4e487b7100000000000000000000000000000000000000000000000000000000600052602260045260246000fd5b7f4e487b7100000000000000000000000000000000000000000000000000000000600052604160045260246000fd5b6000601f19601f8301169050919050565b612dd181612c0e565b8114612ddc57600080fd5b5056fea2646970667358221220e814257d3ef97f296b9c5db5de06d9d9cfebc4fb334c3eda8eb86a17a76a2dec64736f6c63430008040033",
  "linkReferences": {},
  "deployedLinkReferences": {}
}