{
  "_format": "hh-sol-artifact-1",
  "contractName": "OrderContract",
  "sourceName": "contracts/Order.sol",
  "abi": [
    {
      "inputs": [
        {
          "internalType": "address",
          "name": "_AssetContract",
          "type": "address"
        }
      ],
      "stateMutability": "nonpayable",
      "type": "constructor"
    },
    {
      "anonymous": false,
      "inputs": [
        {
          "indexed": false,
          "internalType": "uint256",
          "name": "id",
          "type": "uint256"
        },
        {
          "indexed": false,
          "internalType": "string",
          "name": "company_id",
          "type": "string"
        },
        {
          "indexed": false,
          "internalType": "uint256",
          "name": "price",
          "type": "uint256"
        },
        {
          "indexed": false,
          "internalType": "uint256",
          "name": "quantity",
          "type": "uint256"
        },
        {
          "indexed": false,
          "internalType": "uint256",
          "name": "timestamp",
          "type": "uint256"
        },
        {
          "indexed": false,
          "internalType": "address",
          "name": "seller",
          "type": "address"
        },
        {
          "indexed": false,
          "internalType": "address",
          "name": "buyer",
          "type": "address"
        },
        {
          "indexed": false,
          "internalType": "bool",
          "name": "isActive",
          "type": "bool"
        }
      ],
      "name": "BuyOrder",
      "type": "event"
    },
    {
      "anonymous": false,
      "inputs": [
        {
          "indexed": false,
          "internalType": "uint256",
          "name": "id",
          "type": "uint256"
        },
        {
          "indexed": false,
          "internalType": "string",
          "name": "company_id",
          "type": "string"
        },
        {
          "indexed": false,
          "internalType": "uint256",
          "name": "price",
          "type": "uint256"
        },
        {
          "indexed": false,
          "internalType": "uint256",
          "name": "quantity",
          "type": "uint256"
        },
        {
          "indexed": false,
          "internalType": "uint256",
          "name": "timestamp",
          "type": "uint256"
        },
        {
          "indexed": false,
          "internalType": "address",
          "name": "seller",
          "type": "address"
        },
        {
          "indexed": false,
          "internalType": "address",
          "name": "buyer",
          "type": "address"
        },
        {
          "indexed": false,
          "internalType": "bool",
          "name": "isActive",
          "type": "bool"
        }
      ],
      "name": "SellOrder",
      "type": "event"
    },
    {
      "inputs": [],
      "name": "_assetContract",
      "outputs": [
        {
          "internalType": "contract AssetContract",
          "name": "",
          "type": "address"
        }
      ],
      "stateMutability": "view",
      "type": "function"
    },
    {
      "inputs": [
        {
          "internalType": "uint256",
          "name": "_id",
          "type": "uint256"
        }
      ],
      "name": "activateBuyOrder",
      "outputs": [],
      "stateMutability": "nonpayable",
      "type": "function"
    },
    {
      "inputs": [
        {
          "internalType": "uint256",
          "name": "_id",
          "type": "uint256"
        }
      ],
      "name": "cancelBuyOrder",
      "outputs": [],
      "stateMutability": "nonpayable",
      "type": "function"
    },
    {
      "inputs": [
        {
          "internalType": "string",
          "name": "company_id",
          "type": "string"
        },
        {
          "internalType": "uint256",
          "name": "price",
          "type": "uint256"
        },
        {
          "internalType": "uint256",
          "name": "quantity",
          "type": "uint256"
        }
      ],
      "name": "createBuyOrder",
      "outputs": [],
      "stateMutability": "nonpayable",
      "type": "function"
    },
    {
      "inputs": [
        {
          "internalType": "string",
          "name": "company_id",
          "type": "string"
        },
        {
          "internalType": "uint256",
          "name": "price",
          "type": "uint256"
        },
        {
          "internalType": "uint256",
          "name": "quantity",
          "type": "uint256"
        }
      ],
      "name": "createSellOrder",
      "outputs": [],
      "stateMutability": "nonpayable",
      "type": "function"
    },
    {
      "inputs": [],
      "name": "getAllBuyOrders",
      "outputs": [
        {
          "components": [
            {
              "internalType": "uint256",
              "name": "id",
              "type": "uint256"
            },
            {
              "internalType": "string",
              "name": "company_id",
              "type": "string"
            },
            {
              "internalType": "uint256",
              "name": "price",
              "type": "uint256"
            },
            {
              "internalType": "uint256",
              "name": "quantity",
              "type": "uint256"
            },
            {
              "internalType": "uint256",
              "name": "timestamp",
              "type": "uint256"
            },
            {
              "internalType": "address",
              "name": "seller",
              "type": "address"
            },
            {
              "internalType": "address",
              "name": "buyer",
              "type": "address"
            },
            {
              "internalType": "bool",
              "name": "isActive",
              "type": "bool"
            }
          ],
          "internalType": "struct OrderContract.Order[]",
          "name": "",
          "type": "tuple[]"
        }
      ],
      "stateMutability": "view",
      "type": "function"
    },
    {
      "inputs": [],
      "name": "getAllSellOrders",
      "outputs": [
        {
          "components": [
            {
              "internalType": "uint256",
              "name": "id",
              "type": "uint256"
            },
            {
              "internalType": "string",
              "name": "company_id",
              "type": "string"
            },
            {
              "internalType": "uint256",
              "name": "price",
              "type": "uint256"
            },
            {
              "internalType": "uint256",
              "name": "quantity",
              "type": "uint256"
            },
            {
              "internalType": "uint256",
              "name": "timestamp",
              "type": "uint256"
            },
            {
              "internalType": "address",
              "name": "seller",
              "type": "address"
            },
            {
              "internalType": "address",
              "name": "buyer",
              "type": "address"
            },
            {
              "internalType": "bool",
              "name": "isActive",
              "type": "bool"
            }
          ],
          "internalType": "struct OrderContract.Order[]",
          "name": "",
          "type": "tuple[]"
        }
      ],
      "stateMutability": "view",
      "type": "function"
    },
    {
      "inputs": [
        {
          "internalType": "uint256",
          "name": "_id",
          "type": "uint256"
        }
      ],
      "name": "getBuyOrder",
      "outputs": [
        {
          "components": [
            {
              "internalType": "uint256",
              "name": "id",
              "type": "uint256"
            },
            {
              "internalType": "string",
              "name": "company_id",
              "type": "string"
            },
            {
              "internalType": "uint256",
              "name": "price",
              "type": "uint256"
            },
            {
              "internalType": "uint256",
              "name": "quantity",
              "type": "uint256"
            },
            {
              "internalType": "uint256",
              "name": "timestamp",
              "type": "uint256"
            },
            {
              "internalType": "address",
              "name": "seller",
              "type": "address"
            },
            {
              "internalType": "address",
              "name": "buyer",
              "type": "address"
            },
            {
              "internalType": "bool",
              "name": "isActive",
              "type": "bool"
            }
          ],
          "internalType": "struct OrderContract.Order",
          "name": "",
          "type": "tuple"
        }
      ],
      "stateMutability": "view",
      "type": "function"
    },
    {
      "inputs": [
        {
          "internalType": "string",
          "name": "_company_id",
          "type": "string"
        }
      ],
      "name": "getCurrentCompanyBuyOrder",
      "outputs": [
        {
          "components": [
            {
              "internalType": "uint256",
              "name": "id",
              "type": "uint256"
            },
            {
              "internalType": "string",
              "name": "company_id",
              "type": "string"
            },
            {
              "internalType": "uint256",
              "name": "price",
              "type": "uint256"
            },
            {
              "internalType": "uint256",
              "name": "quantity",
              "type": "uint256"
            },
            {
              "internalType": "uint256",
              "name": "timestamp",
              "type": "uint256"
            },
            {
              "internalType": "address",
              "name": "seller",
              "type": "address"
            },
            {
              "internalType": "address",
              "name": "buyer",
              "type": "address"
            },
            {
              "internalType": "bool",
              "name": "isActive",
              "type": "bool"
            }
          ],
          "internalType": "struct OrderContract.Order",
          "name": "",
          "type": "tuple"
        }
      ],
      "stateMutability": "view",
      "type": "function"
    },
    {
      "inputs": [],
      "name": "getMarketBuyOrders",
      "outputs": [
        {
          "components": [
            {
              "internalType": "uint256",
              "name": "id",
              "type": "uint256"
            },
            {
              "internalType": "string",
              "name": "company_id",
              "type": "string"
            },
            {
              "internalType": "uint256",
              "name": "price",
              "type": "uint256"
            },
            {
              "internalType": "uint256",
              "name": "quantity",
              "type": "uint256"
            },
            {
              "internalType": "uint256",
              "name": "timestamp",
              "type": "uint256"
            },
            {
              "internalType": "address",
              "name": "seller",
              "type": "address"
            },
            {
              "internalType": "address",
              "name": "buyer",
              "type": "address"
            },
            {
              "internalType": "bool",
              "name": "isActive",
              "type": "bool"
            }
          ],
          "internalType": "struct OrderContract.Order[]",
          "name": "",
          "type": "tuple[]"
        }
      ],
      "stateMutability": "view",
      "type": "function"
    },
    {
      "inputs": [],
      "name": "getMarketSellOrders",
      "outputs": [
        {
          "components": [
            {
              "internalType": "uint256",
              "name": "id",
              "type": "uint256"
            },
            {
              "internalType": "string",
              "name": "company_id",
              "type": "string"
            },
            {
              "internalType": "uint256",
              "name": "price",
              "type": "uint256"
            },
            {
              "internalType": "uint256",
              "name": "quantity",
              "type": "uint256"
            },
            {
              "internalType": "uint256",
              "name": "timestamp",
              "type": "uint256"
            },
            {
              "internalType": "address",
              "name": "seller",
              "type": "address"
            },
            {
              "internalType": "address",
              "name": "buyer",
              "type": "address"
            },
            {
              "internalType": "bool",
              "name": "isActive",
              "type": "bool"
            }
          ],
          "internalType": "struct OrderContract.Order[]",
          "name": "",
          "type": "tuple[]"
        }
      ],
      "stateMutability": "view",
      "type": "function"
    },
    {
      "inputs": [],
      "name": "getReadyBuyOrders",
      "outputs": [
        {
          "components": [
            {
              "internalType": "uint256",
              "name": "order_id",
              "type": "uint256"
            },
            {
              "internalType": "uint256",
              "name": "asset_id",
              "type": "uint256"
            },
            {
              "internalType": "string",
              "name": "company_id",
              "type": "string"
            },
            {
              "internalType": "bool",
              "name": "isBuyOrder",
              "type": "bool"
            }
          ],
          "internalType": "struct OrderContract.OrderAssets[]",
          "name": "",
          "type": "tuple[]"
        }
      ],
      "stateMutability": "view",
      "type": "function"
    },
    {
      "inputs": [
        {
          "internalType": "uint256",
          "name": "_id",
          "type": "uint256"
        }
      ],
      "name": "getSellOrder",
      "outputs": [
        {
          "components": [
            {
              "internalType": "uint256",
              "name": "id",
              "type": "uint256"
            },
            {
              "internalType": "string",
              "name": "company_id",
              "type": "string"
            },
            {
              "internalType": "uint256",
              "name": "price",
              "type": "uint256"
            },
            {
              "internalType": "uint256",
              "name": "quantity",
              "type": "uint256"
            },
            {
              "internalType": "uint256",
              "name": "timestamp",
              "type": "uint256"
            },
            {
              "internalType": "address",
              "name": "seller",
              "type": "address"
            },
            {
              "internalType": "address",
              "name": "buyer",
              "type": "address"
            },
            {
              "internalType": "bool",
              "name": "isActive",
              "type": "bool"
            }
          ],
          "internalType": "struct OrderContract.Order",
          "name": "",
          "type": "tuple"
        }
      ],
      "stateMutability": "view",
      "type": "function"
    },
    {
      "inputs": [],
      "name": "getUserBuyOrders",
      "outputs": [
        {
          "components": [
            {
              "internalType": "uint256",
              "name": "id",
              "type": "uint256"
            },
            {
              "internalType": "string",
              "name": "company_id",
              "type": "string"
            },
            {
              "internalType": "uint256",
              "name": "price",
              "type": "uint256"
            },
            {
              "internalType": "uint256",
              "name": "quantity",
              "type": "uint256"
            },
            {
              "internalType": "uint256",
              "name": "timestamp",
              "type": "uint256"
            },
            {
              "internalType": "address",
              "name": "seller",
              "type": "address"
            },
            {
              "internalType": "address",
              "name": "buyer",
              "type": "address"
            },
            {
              "internalType": "bool",
              "name": "isActive",
              "type": "bool"
            }
          ],
          "internalType": "struct OrderContract.Order[]",
          "name": "",
          "type": "tuple[]"
        }
      ],
      "stateMutability": "view",
      "type": "function"
    }
  ],
  "bytecode": "0x60806040523480156200001157600080fd5b506040516200381938038062003819833981810160405281019062000037919062000096565b80600260006101000a81548173ffffffffffffffffffffffffffffffffffffffff021916908373ffffffffffffffffffffffffffffffffffffffff1602179055505062000110565b6000815190506200009081620000f6565b92915050565b600060208284031215620000a957600080fd5b6000620000b9848285016200007f565b91505092915050565b6000620000cf82620000d6565b9050919050565b600073ffffffffffffffffffffffffffffffffffffffff82169050919050565b6200010181620000c2565b81146200010d57600080fd5b50565b6136f980620001206000396000f3fe608060405234801561001057600080fd5b50600436106100ea5760003560e01c8063ab92b32a1161008c578063c5ddf0d311610066578063c5ddf0d31461024b578063e1a8e59514610269578063e64a97cf14610285578063ef6e7389146102a3576100ea565b8063ab92b32a146101e1578063b1af1bda146101ff578063be5d147f1461022f576100ea565b8063390ce0d3116100c8578063390ce0d314610159578063730412e8146101895780637eeafd34146101a7578063a3189970146101c3576100ea565b8063228d0129146100ef5780632a59e53e1461010b5780632e98613e1461013b575b600080fd5b61010960048036038101906101049190612d52565b6102c1565b005b61012560048036038101906101209190612caa565b6103f7565b6040516101329190613298565b60405180910390f35b6101436106a1565b604051610150919061322b565b60405180910390f35b610173600480360381019061016e9190612d52565b610973565b6040516101809190613298565b60405180910390f35b610191610bd2565b60405161019e919061322b565b60405180910390f35b6101c160048036038101906101bc9190612ceb565b610ea4565b005b6101cb6110a1565b6040516101d8919061322b565b60405180910390f35b6101e96114e2565b6040516101f69190613209565b60405180910390f35b61021960048036038101906102149190612d52565b611ae9565b6040516102269190613298565b60405180910390f35b61024960048036038101906102449190612d52565b611d48565b005b610253611e75565b604051610260919061322b565b60405180910390f35b610283600480360381019061027e9190612ceb565b6122b8565b005b61028d6124b4565b60405161029a919061324d565b60405180910390f35b6102ab6124da565b6040516102b8919061322b565b60405180910390f35b600060036000815481106102fe577f4e487b7100000000000000000000000000000000000000000000000000000000600052603260045260246000fd5b9060005260206000209060070201905060005b6000548110156103cc578260038281548110610356577f4e487b7100000000000000000000000000000000000000000000000000000000600052603260045260246000fd5b90600052602060002090600702016000015414156103b957600381815481106103a8577f4e487b7100000000000000000000000000000000000000000000000000000000600052603260045260246000fd5b906000526020600020906007020191505b80806103c4906135c5565b915050610311565b5060018160060160146101000a81548160ff0219169083151502179055504281600401819055505050565b6103ff61291b565b60005b60005481101561069a578260405160200161041d91906131db565b604051602081830303815290604052805190602001206003828154811061046d577f4e487b7100000000000000000000000000000000000000000000000000000000600052603260045260246000fd5b906000526020600020906007020160010160405160200161048e91906131f2565b60405160208183030381529060405280519060200120141561068757600381815481106104e4577f4e487b7100000000000000000000000000000000000000000000000000000000600052603260045260246000fd5b9060005260206000209060070201604051806101000160405290816000820154815260200160018201805461051890613562565b80601f016020809104026020016040519081016040528092919081815260200182805461054490613562565b80156105915780601f1061056657610100808354040283529160200191610591565b820191906000526020600020905b81548152906001019060200180831161057457829003601f168201915b505050505081526020016002820154815260200160038201548152602001600482015481526020016005820160009054906101000a900473ffffffffffffffffffffffffffffffffffffffff1673ffffffffffffffffffffffffffffffffffffffff1673ffffffffffffffffffffffffffffffffffffffff1681526020016006820160009054906101000a900473ffffffffffffffffffffffffffffffffffffffff1673ffffffffffffffffffffffffffffffffffffffff1673ffffffffffffffffffffffffffffffffffffffff1681526020016006820160149054906101000a900460ff16151515158152505091505061069c565b8080610692906135c5565b915050610402565b505b919050565b6060600080805467ffffffffffffffff8111156106e7577f4e487b7100000000000000000000000000000000000000000000000000000000600052604160045260246000fd5b60405190808252806020026020018201604052801561072057816020015b61070d61291b565b8152602001906001900390816107055790505b50905060005b60005481101561096a576003818154811061076a577f4e487b7100000000000000000000000000000000000000000000000000000000600052603260045260246000fd5b9060005260206000209060070201604051806101000160405290816000820154815260200160018201805461079e90613562565b80601f01602080910402602001604051908101604052809291908181526020018280546107ca90613562565b80156108175780601f106107ec57610100808354040283529160200191610817565b820191906000526020600020905b8154815290600101906020018083116107fa57829003601f168201915b505050505081526020016002820154815260200160038201548152602001600482015481526020016005820160009054906101000a900473ffffffffffffffffffffffffffffffffffffffff1673ffffffffffffffffffffffffffffffffffffffff1673ffffffffffffffffffffffffffffffffffffffff1681526020016006820160009054906101000a900473ffffffffffffffffffffffffffffffffffffffff1673ffffffffffffffffffffffffffffffffffffffff1673ffffffffffffffffffffffffffffffffffffffff1681526020016006820160149054906101000a900460ff16151515158152505082848151811061093e577f4e487b7100000000000000000000000000000000000000000000000000000000600052603260045260246000fd5b60200260200101819052508280610954906135c5565b9350508080610962906135c5565b915050610726565b50809250505090565b61097b61291b565b60005b600154811015610bcb5782600482815481106109c3577f4e487b7100000000000000000000000000000000000000000000000000000000600052603260045260246000fd5b9060005260206000209060070201600001541415610bb85760048181548110610a15577f4e487b7100000000000000000000000000000000000000000000000000000000600052603260045260246000fd5b90600052602060002090600702016040518061010001604052908160008201548152602001600182018054610a4990613562565b80601f0160208091040260200160405190810160405280929190818152602001828054610a7590613562565b8015610ac25780601f10610a9757610100808354040283529160200191610ac2565b820191906000526020600020905b815481529060010190602001808311610aa557829003601f168201915b505050505081526020016002820154815260200160038201548152602001600482015481526020016005820160009054906101000a900473ffffffffffffffffffffffffffffffffffffffff1673ffffffffffffffffffffffffffffffffffffffff1673ffffffffffffffffffffffffffffffffffffffff1681526020016006820160009054906101000a900473ffffffffffffffffffffffffffffffffffffffff1673ffffffffffffffffffffffffffffffffffffffff1673ffffffffffffffffffffffffffffffffffffffff1681526020016006820160149054906101000a900460ff161515151581525050915050610bcd565b8080610bc3906135c5565b91505061097e565b505b919050565b6060600080805467ffffffffffffffff811115610c18577f4e487b7100000000000000000000000000000000000000000000000000000000600052604160045260246000fd5b604051908082528060200260200182016040528015610c5157816020015b610c3e61291b565b815260200190600190039081610c365790505b50905060005b600154811015610e9b5760048181548110610c9b577f4e487b7100000000000000000000000000000000000000000000000000000000600052603260045260246000fd5b90600052602060002090600702016040518061010001604052908160008201548152602001600182018054610ccf90613562565b80601f0160208091040260200160405190810160405280929190818152602001828054610cfb90613562565b8015610d485780601f10610d1d57610100808354040283529160200191610d48565b820191906000526020600020905b815481529060010190602001808311610d2b57829003601f168201915b505050505081526020016002820154815260200160038201548152602001600482015481526020016005820160009054906101000a900473ffffffffffffffffffffffffffffffffffffffff1673ffffffffffffffffffffffffffffffffffffffff1673ffffffffffffffffffffffffffffffffffffffff1681526020016006820160009054906101000a900473ffffffffffffffffffffffffffffffffffffffff1673ffffffffffffffffffffffffffffffffffffffff1673ffffffffffffffffffffffffffffffffffffffff1681526020016006820160149054906101000a900460ff161515151581525050828481518110610e6f577f4e487b7100000000000000000000000000000000000000000000000000000000600052603260045260246000fd5b60200260200101819052508280610e85906135c5565b9350508080610e93906135c5565b915050610c57565b50809250505090565b60036040518061010001604052806000548152602001858152602001848152602001838152602001428152602001600073ffffffffffffffffffffffffffffffffffffffff1681526020013373ffffffffffffffffffffffffffffffffffffffff168152602001600015158152509080600181540180825580915050600190039060005260206000209060070201600090919091909150600082015181600001556020820151816001019080519060200190610f6192919061298e565b5060408201518160020155606082015181600301556080820151816004015560a08201518160050160006101000a81548173ffffffffffffffffffffffffffffffffffffffff021916908373ffffffffffffffffffffffffffffffffffffffff16021790555060c08201518160060160006101000a81548173ffffffffffffffffffffffffffffffffffffffff021916908373ffffffffffffffffffffffffffffffffffffffff16021790555060e08201518160060160146101000a81548160ff0219169083151502179055505050600080815480929190611042906135c5565b91905055507f23972ca93473282728158a3be07109f16d6944be14cfd432fe2035dd4e486a4c60016000546110779190613480565b8484844260003360006040516110949897969594939291906132ba565b60405180910390a1505050565b606060008060005b600054811015611173573273ffffffffffffffffffffffffffffffffffffffff1660038281548110611104577f4e487b7100000000000000000000000000000000000000000000000000000000600052603260045260246000fd5b906000526020600020906007020160060160009054906101000a900473ffffffffffffffffffffffffffffffffffffffff1673ffffffffffffffffffffffffffffffffffffffff161461116057828061115c906135c5565b9350505b808061116b906135c5565b9150506110a9565b5060008267ffffffffffffffff8111156111b6577f4e487b7100000000000000000000000000000000000000000000000000000000600052604160045260246000fd5b6040519080825280602002602001820160405280156111ef57816020015b6111dc61291b565b8152602001906001900390816111d45790505b50905060005b6000548110156114d8573273ffffffffffffffffffffffffffffffffffffffff1660038281548110611250577f4e487b7100000000000000000000000000000000000000000000000000000000600052603260045260246000fd5b906000526020600020906007020160060160009054906101000a900473ffffffffffffffffffffffffffffffffffffffff1673ffffffffffffffffffffffffffffffffffffffff16146114c557600381815481106112d7577f4e487b7100000000000000000000000000000000000000000000000000000000600052603260045260246000fd5b9060005260206000209060070201604051806101000160405290816000820154815260200160018201805461130b90613562565b80601f016020809104026020016040519081016040528092919081815260200182805461133790613562565b80156113845780601f1061135957610100808354040283529160200191611384565b820191906000526020600020905b81548152906001019060200180831161136757829003601f168201915b505050505081526020016002820154815260200160038201548152602001600482015481526020016005820160009054906101000a900473ffffffffffffffffffffffffffffffffffffffff1673ffffffffffffffffffffffffffffffffffffffff1673ffffffffffffffffffffffffffffffffffffffff1681526020016006820160009054906101000a900473ffffffffffffffffffffffffffffffffffffffff1673ffffffffffffffffffffffffffffffffffffffff1673ffffffffffffffffffffffffffffffffffffffff1681526020016006820160149054906101000a900460ff1615151515815250508284815181106114ab577f4e487b7100000000000000000000000000000000000000000000000000000000600052603260045260246000fd5b602002602001018190525082806114c1906135c5565b9350505b80806114d0906135c5565b9150506111f5565b5080935050505090565b606060008060006114f16106a1565b905060005b815181101561170f576000600260009054906101000a900473ffffffffffffffffffffffffffffffffffffffff1673ffffffffffffffffffffffffffffffffffffffff16638dc28966848481518110611578577f4e487b7100000000000000000000000000000000000000000000000000000000600052603260045260246000fd5b6020026020010151602001518585815181106115bd577f4e487b7100000000000000000000000000000000000000000000000000000000600052603260045260246000fd5b6020026020010151604001516040518363ffffffff1660e01b81526004016115e6929190613268565b60006040518083038186803b1580156115fe57600080fd5b505afa158015611612573d6000803e3d6000fd5b505050506040513d6000823e3d601f19601f8201168201806040525081019061163b9190612c69565b9050828281518110611676577f4e487b7100000000000000000000000000000000000000000000000000000000600052603260045260246000fd5b6020026020010151606001518151106116fb5760005b8383815181106116c5577f4e487b7100000000000000000000000000000000000000000000000000000000600052603260045260246000fd5b6020026020010151606001518110156116f95784806116e3906135c5565b95505080806116f1906135c5565b91505061168c565b505b508080611707906135c5565b9150506114f6565b5060008267ffffffffffffffff811115611752577f4e487b7100000000000000000000000000000000000000000000000000000000600052604160045260246000fd5b60405190808252806020026020018201604052801561178b57816020015b611778612a14565b8152602001906001900390816117705790505b50905060005b8251811015611ade576000600260009054906101000a900473ffffffffffffffffffffffffffffffffffffffff1673ffffffffffffffffffffffffffffffffffffffff16638dc28966858481518110611813577f4e487b7100000000000000000000000000000000000000000000000000000000600052603260045260246000fd5b602002602001015160200151868581518110611858577f4e487b7100000000000000000000000000000000000000000000000000000000600052603260045260246000fd5b6020026020010151604001516040518363ffffffff1660e01b8152600401611881929190613268565b60006040518083038186803b15801561189957600080fd5b505afa1580156118ad573d6000803e3d6000fd5b505050506040513d6000823e3d601f19601f820116820180604052508101906118d69190612c69565b9050838281518110611911577f4e487b7100000000000000000000000000000000000000000000000000000000600052603260045260246000fd5b602002602001015160600151815110611aca5760005b848381518110611960577f4e487b7100000000000000000000000000000000000000000000000000000000600052603260045260246000fd5b602002602001015160600151811015611ac85760405180608001604052808685815181106119b7577f4e487b7100000000000000000000000000000000000000000000000000000000600052603260045260246000fd5b6020026020010151600001518152602001838381518110611a01577f4e487b7100000000000000000000000000000000000000000000000000000000600052603260045260246000fd5b6020026020010151602001518152602001868581518110611a4b577f4e487b7100000000000000000000000000000000000000000000000000000000600052603260045260246000fd5b602002602001015160200151815260200160011515815250848881518110611a9c577f4e487b7100000000000000000000000000000000000000000000000000000000600052603260045260246000fd5b60200260200101819052508680611ab2906135c5565b9750508080611ac0906135c5565b915050611927565b505b508080611ad6906135c5565b915050611791565b508094505050505090565b611af161291b565b60005b600054811015611d41578260038281548110611b39577f4e487b7100000000000000000000000000000000000000000000000000000000600052603260045260246000fd5b9060005260206000209060070201600001541415611d2e5760038181548110611b8b577f4e487b7100000000000000000000000000000000000000000000000000000000600052603260045260246000fd5b90600052602060002090600702016040518061010001604052908160008201548152602001600182018054611bbf90613562565b80601f0160208091040260200160405190810160405280929190818152602001828054611beb90613562565b8015611c385780601f10611c0d57610100808354040283529160200191611c38565b820191906000526020600020905b815481529060010190602001808311611c1b57829003601f168201915b505050505081526020016002820154815260200160038201548152602001600482015481526020016005820160009054906101000a900473ffffffffffffffffffffffffffffffffffffffff1673ffffffffffffffffffffffffffffffffffffffff1673ffffffffffffffffffffffffffffffffffffffff1681526020016006820160009054906101000a900473ffffffffffffffffffffffffffffffffffffffff1673ffffffffffffffffffffffffffffffffffffffff1673ffffffffffffffffffffffffffffffffffffffff1681526020016006820160149054906101000a900460ff161515151581525050915050611d43565b8080611d39906135c5565b915050611af4565b505b919050565b60006003600081548110611d85577f4e487b7100000000000000000000000000000000000000000000000000000000600052603260045260246000fd5b9060005260206000209060070201905060005b600054811015611e53578260038281548110611ddd577f4e487b7100000000000000000000000000000000000000000000000000000000600052603260045260246000fd5b9060005260206000209060070201600001541415611e405760038181548110611e2f577f4e487b7100000000000000000000000000000000000000000000000000000000600052603260045260246000fd5b906000526020600020906007020191505b8080611e4b906135c5565b915050611d98565b5060008160060160146101000a81548160ff0219169083151502179055505050565b606060008060005b600054811015611f48573273ffffffffffffffffffffffffffffffffffffffff1660038281548110611ed8577f4e487b7100000000000000000000000000000000000000000000000000000000600052603260045260246000fd5b906000526020600020906007020160060160009054906101000a900473ffffffffffffffffffffffffffffffffffffffff1673ffffffffffffffffffffffffffffffffffffffff161415611f35578280611f31906135c5565b9350505b8080611f40906135c5565b915050611e7d565b5060008267ffffffffffffffff811115611f8b577f4e487b7100000000000000000000000000000000000000000000000000000000600052604160045260246000fd5b604051908082528060200260200182016040528015611fc457816020015b611fb161291b565b815260200190600190039081611fa95790505b50905060005b6000548110156122ae573273ffffffffffffffffffffffffffffffffffffffff1660038281548110612025577f4e487b7100000000000000000000000000000000000000000000000000000000600052603260045260246000fd5b906000526020600020906007020160060160009054906101000a900473ffffffffffffffffffffffffffffffffffffffff1673ffffffffffffffffffffffffffffffffffffffff16141561229b57600381815481106120ad577f4e487b7100000000000000000000000000000000000000000000000000000000600052603260045260246000fd5b906000526020600020906007020160405180610100016040529081600082015481526020016001820180546120e190613562565b80601f016020809104026020016040519081016040528092919081815260200182805461210d90613562565b801561215a5780601f1061212f5761010080835404028352916020019161215a565b820191906000526020600020905b81548152906001019060200180831161213d57829003601f168201915b505050505081526020016002820154815260200160038201548152602001600482015481526020016005820160009054906101000a900473ffffffffffffffffffffffffffffffffffffffff1673ffffffffffffffffffffffffffffffffffffffff1673ffffffffffffffffffffffffffffffffffffffff1681526020016006820160009054906101000a900473ffffffffffffffffffffffffffffffffffffffff1673ffffffffffffffffffffffffffffffffffffffff1673ffffffffffffffffffffffffffffffffffffffff1681526020016006820160149054906101000a900460ff161515151581525050828481518110612281577f4e487b7100000000000000000000000000000000000000000000000000000000600052603260045260246000fd5b60200260200101819052508280612297906135c5565b9350505b80806122a6906135c5565b915050611fca565b5080935050505090565b600460405180610100016040528060015481526020018581526020018481526020018381526020014281526020013373ffffffffffffffffffffffffffffffffffffffff168152602001600073ffffffffffffffffffffffffffffffffffffffff16815260200160001515815250908060018154018082558091505060019003906000526020600020906007020160009091909190915060008201518160000155602082015181600101908051906020019061237592919061298e565b5060408201518160020155606082015181600301556080820151816004015560a08201518160050160006101000a81548173ffffffffffffffffffffffffffffffffffffffff021916908373ffffffffffffffffffffffffffffffffffffffff16021790555060c08201518160060160006101000a81548173ffffffffffffffffffffffffffffffffffffffff021916908373ffffffffffffffffffffffffffffffffffffffff16021790555060e08201518160060160146101000a81548160ff021916908315150217905550505060016000815480929190612457906135c5565b91905055507f045a4b00a1fc6952f970c2fc94fe99c7fb3265b2e5ed212e8b0bc355f9a987636001805461248b9190613480565b84848442336000806040516124a79897969594939291906132ba565b60405180910390a1505050565b600260009054906101000a900473ffffffffffffffffffffffffffffffffffffffff1681565b606060008060005b6000548110156125ac573273ffffffffffffffffffffffffffffffffffffffff166004828154811061253d577f4e487b7100000000000000000000000000000000000000000000000000000000600052603260045260246000fd5b906000526020600020906007020160050160009054906101000a900473ffffffffffffffffffffffffffffffffffffffff1673ffffffffffffffffffffffffffffffffffffffff1614612599578280612595906135c5565b9350505b80806125a4906135c5565b9150506124e2565b5060008267ffffffffffffffff8111156125ef577f4e487b7100000000000000000000000000000000000000000000000000000000600052604160045260246000fd5b60405190808252806020026020018201604052801561262857816020015b61261561291b565b81526020019060019003908161260d5790505b50905060005b600054811015612911573273ffffffffffffffffffffffffffffffffffffffff1660048281548110612689577f4e487b7100000000000000000000000000000000000000000000000000000000600052603260045260246000fd5b906000526020600020906007020160050160009054906101000a900473ffffffffffffffffffffffffffffffffffffffff1673ffffffffffffffffffffffffffffffffffffffff16146128fe5760038181548110612710577f4e487b7100000000000000000000000000000000000000000000000000000000600052603260045260246000fd5b9060005260206000209060070201604051806101000160405290816000820154815260200160018201805461274490613562565b80601f016020809104026020016040519081016040528092919081815260200182805461277090613562565b80156127bd5780601f10612792576101008083540402835291602001916127bd565b820191906000526020600020905b8154815290600101906020018083116127a057829003601f168201915b505050505081526020016002820154815260200160038201548152602001600482015481526020016005820160009054906101000a900473ffffffffffffffffffffffffffffffffffffffff1673ffffffffffffffffffffffffffffffffffffffff1673ffffffffffffffffffffffffffffffffffffffff1681526020016006820160009054906101000a900473ffffffffffffffffffffffffffffffffffffffff1673ffffffffffffffffffffffffffffffffffffffff1673ffffffffffffffffffffffffffffffffffffffff1681526020016006820160149054906101000a900460ff1615151515815250508284815181106128e4577f4e487b7100000000000000000000000000000000000000000000000000000000600052603260045260246000fd5b602002602001018190525082806128fa906135c5565b9350505b8080612909906135c5565b91505061262e565b5080935050505090565b6040518061010001604052806000815260200160608152602001600081526020016000815260200160008152602001600073ffffffffffffffffffffffffffffffffffffffff168152602001600073ffffffffffffffffffffffffffffffffffffffff1681526020016000151581525090565b82805461299a90613562565b90600052602060002090601f0160209004810192826129bc5760008555612a03565b82601f106129d557805160ff1916838001178555612a03565b82800160010185558215612a03579182015b82811115612a025782518255916020019190600101906129e7565b5b509050612a109190612a3e565b5090565b60405180608001604052806000815260200160008152602001606081526020016000151581525090565b5b80821115612a57576000816000905550600101612a3f565b5090565b6000612a6e612a6984613364565b61333f565b90508083825260208201905082856020860282011115612a8d57600080fd5b60005b85811015612ad757815167ffffffffffffffff811115612aaf57600080fd5b808601612abc8982612bdb565b85526020850194506020840193505050600181019050612a90565b5050509392505050565b6000612af4612aef84613390565b61333f565b905082815260208101848484011115612b0c57600080fd5b612b17848285613520565b509392505050565b6000612b32612b2d84613390565b61333f565b905082815260208101848484011115612b4a57600080fd5b612b5584828561352f565b509392505050565b600082601f830112612b6e57600080fd5b8151612b7e848260208601612a5b565b91505092915050565b600082601f830112612b9857600080fd5b8135612ba8848260208601612ae1565b91505092915050565b600082601f830112612bc257600080fd5b8151612bd2848260208601612b1f565b91505092915050565b600060408284031215612bed57600080fd5b612bf7604061333f565b9050600082015167ffffffffffffffff811115612c1357600080fd5b612c1f84828501612bb1565b6000830152506020612c3384828501612c54565b60208301525092915050565b600081359050612c4e816136ac565b92915050565b600081519050612c63816136ac565b92915050565b600060208284031215612c7b57600080fd5b600082015167ffffffffffffffff811115612c9557600080fd5b612ca184828501612b5d565b91505092915050565b600060208284031215612cbc57600080fd5b600082013567ffffffffffffffff811115612cd657600080fd5b612ce284828501612b87565b91505092915050565b600080600060608486031215612d0057600080fd5b600084013567ffffffffffffffff811115612d1a57600080fd5b612d2686828701612b87565b9350506020612d3786828701612c3f565b9250506040612d4886828701612c3f565b9150509250925092565b600060208284031215612d6457600080fd5b6000612d7284828501612c3f565b91505092915050565b6000612d878383612ffa565b905092915050565b6000612d9b838361305d565b905092915050565b612dac816134b4565b82525050565b612dbb816134b4565b82525050565b6000612dcc826133f6565b612dd68185613431565b935083602082028501612de8856133c1565b8060005b85811015612e245784840389528151612e058582612d7b565b9450612e1083613417565b925060208a01995050600181019050612dec565b50829750879550505050505092915050565b6000612e4182613401565b612e4b8185613442565b935083602082028501612e5d856133d1565b8060005b85811015612e995784840389528151612e7a8582612d8f565b9450612e8583613424565b925060208a01995050600181019050612e61565b50829750879550505050505092915050565b612eb4816134c6565b82525050565b612ec3816134c6565b82525050565b612ed2816134fc565b82525050565b6000612ee38261340c565b612eed8185613453565b9350612efd81856020860161352f565b612f068161369b565b840191505092915050565b6000612f1c8261340c565b612f268185613464565b9350612f3681856020860161352f565b612f3f8161369b565b840191505092915050565b6000612f558261340c565b612f5f8185613475565b9350612f6f81856020860161352f565b80840191505092915050565b60008154612f8881613562565b612f928186613475565b94506001821660008114612fad5760018114612fbe57612ff1565b60ff19831686528186019350612ff1565b612fc7856133e1565b60005b83811015612fe957815481890152600182019150602081019050612fca565b838801955050505b50505092915050565b600060808301600083015161301260008601826131bd565b50602083015161302560208601826131bd565b506040830151848203604086015261303d8282612ed8565b91505060608301516130526060860182612eab565b508091505092915050565b60006101008301600083015161307660008601826131bd565b506020830151848203602086015261308e8282612ed8565b91505060408301516130a360408601826131bd565b5060608301516130b660608601826131bd565b5060808301516130c960808601826131bd565b5060a08301516130dc60a0860182612da3565b5060c08301516130ef60c0860182612da3565b5060e083015161310260e0860182612eab565b508091505092915050565b60006101008301600083015161312660008601826131bd565b506020830151848203602086015261313e8282612ed8565b915050604083015161315360408601826131bd565b50606083015161316660608601826131bd565b50608083015161317960808601826131bd565b5060a083015161318c60a0860182612da3565b5060c083015161319f60c0860182612da3565b5060e08301516131b260e0860182612eab565b508091505092915050565b6131c6816134f2565b82525050565b6131d5816134f2565b82525050565b60006131e78284612f4a565b915081905092915050565b60006131fe8284612f7b565b915081905092915050565b600060208201905081810360008301526132238184612dc1565b905092915050565b600060208201905081810360008301526132458184612e36565b905092915050565b60006020820190506132626000830184612ec9565b92915050565b600060408201905081810360008301526132828185612f11565b905061329160208301846131cc565b9392505050565b600060208201905081810360008301526132b2818461310d565b905092915050565b6000610100820190506132d0600083018b6131cc565b81810360208301526132e2818a612f11565b90506132f160408301896131cc565b6132fe60608301886131cc565b61330b60808301876131cc565b61331860a0830186612db2565b61332560c0830185612db2565b61333260e0830184612eba565b9998505050505050505050565b600061334961335a565b90506133558282613594565b919050565b6000604051905090565b600067ffffffffffffffff82111561337f5761337e61366c565b5b602082029050602081019050919050565b600067ffffffffffffffff8211156133ab576133aa61366c565b5b6133b48261369b565b9050602081019050919050565b6000819050602082019050919050565b6000819050602082019050919050565b60008190508160005260206000209050919050565b600081519050919050565b600081519050919050565b600081519050919050565b6000602082019050919050565b6000602082019050919050565b600082825260208201905092915050565b600082825260208201905092915050565b600082825260208201905092915050565b600082825260208201905092915050565b600081905092915050565b600061348b826134f2565b9150613496836134f2565b9250828210156134a9576134a861360e565b5b828203905092915050565b60006134bf826134d2565b9050919050565b60008115159050919050565b600073ffffffffffffffffffffffffffffffffffffffff82169050919050565b6000819050919050565b60006135078261350e565b9050919050565b6000613519826134d2565b9050919050565b82818337600083830152505050565b60005b8381101561354d578082015181840152602081019050613532565b8381111561355c576000848401525b50505050565b6000600282049050600182168061357a57607f821691505b6020821081141561358e5761358d61363d565b5b50919050565b61359d8261369b565b810181811067ffffffffffffffff821117156135bc576135bb61366c565b5b80604052505050565b60006135d0826134f2565b91507fffffffffffffffffffffffffffffffffffffffffffffffffffffffffffffffff8214156136035761360261360e565b5b600182019050919050565b7f4e487b7100000000000000000000000000000000000000000000000000000000600052601160045260246000fd5b7f4e487b7100000000000000000000000000000000000000000000000000000000600052602260045260246000fd5b7f4e487b7100000000000000000000000000000000000000000000000000000000600052604160045260246000fd5b6000601f19601f8301169050919050565b6136b5816134f2565b81146136c057600080fd5b5056fea26469706673582212206235b2efc62143ae38c6dd2764eace26c3478fa505f17fb0cc7c936f525132e964736f6c63430008040033",
  "linkReferences": {},
  "deployedLinkReferences": {}
}