{
  "_format": "hh-sol-artifact-1",
  "contractName": "OrderContract",
  "sourceName": "contracts/Order.sol",
  "abi": [
    {
      "inputs": [
        {
          "internalType": "address",
          "name": "_AssetContract",
          "type": "address"
        }
      ],
      "stateMutability": "nonpayable",
      "type": "constructor"
    },
    {
      "anonymous": false,
      "inputs": [
        {
          "indexed": false,
          "internalType": "uint256",
          "name": "id",
          "type": "uint256"
        },
        {
          "indexed": false,
          "internalType": "string",
          "name": "company_id",
          "type": "string"
        },
        {
          "indexed": false,
          "internalType": "uint256",
          "name": "price",
          "type": "uint256"
        },
        {
          "indexed": false,
          "internalType": "uint256",
          "name": "quantity",
          "type": "uint256"
        },
        {
          "indexed": false,
          "internalType": "uint256",
          "name": "timestamp",
          "type": "uint256"
        },
        {
          "indexed": false,
          "internalType": "address",
          "name": "seller",
          "type": "address"
        },
        {
          "indexed": false,
          "internalType": "address",
          "name": "buyer",
          "type": "address"
        },
        {
          "indexed": false,
          "internalType": "bool",
          "name": "isActive",
          "type": "bool"
        }
      ],
      "name": "BuyOrder",
      "type": "event"
    },
    {
      "anonymous": false,
      "inputs": [
        {
          "indexed": false,
          "internalType": "uint256",
          "name": "id",
          "type": "uint256"
        },
        {
          "indexed": false,
          "internalType": "string",
          "name": "company_id",
          "type": "string"
        },
        {
          "indexed": false,
          "internalType": "uint256",
          "name": "price",
          "type": "uint256"
        },
        {
          "indexed": false,
          "internalType": "uint256",
          "name": "quantity",
          "type": "uint256"
        },
        {
          "indexed": false,
          "internalType": "uint256",
          "name": "timestamp",
          "type": "uint256"
        },
        {
          "indexed": false,
          "internalType": "address",
          "name": "seller",
          "type": "address"
        },
        {
          "indexed": false,
          "internalType": "address",
          "name": "buyer",
          "type": "address"
        },
        {
          "indexed": false,
          "internalType": "bool",
          "name": "isActive",
          "type": "bool"
        }
      ],
      "name": "SellOrder",
      "type": "event"
    },
    {
      "inputs": [],
      "name": "_assetContract",
      "outputs": [
        {
          "internalType": "contract AssetContract",
          "name": "",
          "type": "address"
        }
      ],
      "stateMutability": "view",
      "type": "function"
    },
    {
      "inputs": [
        {
          "internalType": "uint256",
          "name": "_id",
          "type": "uint256"
        }
      ],
      "name": "cancelBuyOrder",
      "outputs": [],
      "stateMutability": "nonpayable",
      "type": "function"
    },
    {
      "inputs": [
        {
          "internalType": "string",
          "name": "company_id",
          "type": "string"
        },
        {
          "internalType": "uint256",
          "name": "price",
          "type": "uint256"
        },
        {
          "internalType": "uint256",
          "name": "quantity",
          "type": "uint256"
        }
      ],
      "name": "createBuyOrder",
      "outputs": [],
      "stateMutability": "nonpayable",
      "type": "function"
    },
    {
      "inputs": [
        {
          "internalType": "string",
          "name": "company_id",
          "type": "string"
        },
        {
          "internalType": "uint256",
          "name": "price",
          "type": "uint256"
        },
        {
          "internalType": "uint256",
          "name": "quantity",
          "type": "uint256"
        }
      ],
      "name": "createSellOrder",
      "outputs": [],
      "stateMutability": "nonpayable",
      "type": "function"
    },
    {
      "inputs": [],
      "name": "getAllBuyOrders",
      "outputs": [
        {
          "components": [
            {
              "internalType": "uint256",
              "name": "id",
              "type": "uint256"
            },
            {
              "internalType": "string",
              "name": "company_id",
              "type": "string"
            },
            {
              "internalType": "uint256",
              "name": "price",
              "type": "uint256"
            },
            {
              "internalType": "uint256",
              "name": "quantity",
              "type": "uint256"
            },
            {
              "internalType": "uint256",
              "name": "timestamp",
              "type": "uint256"
            },
            {
              "internalType": "address",
              "name": "seller",
              "type": "address"
            },
            {
              "internalType": "address",
              "name": "buyer",
              "type": "address"
            },
            {
              "internalType": "bool",
              "name": "isActive",
              "type": "bool"
            }
          ],
          "internalType": "struct OrderContract.Order[]",
          "name": "",
          "type": "tuple[]"
        }
      ],
      "stateMutability": "view",
      "type": "function"
    },
    {
      "inputs": [],
      "name": "getAllSellOrders",
      "outputs": [
        {
          "components": [
            {
              "internalType": "uint256",
              "name": "id",
              "type": "uint256"
            },
            {
              "internalType": "string",
              "name": "company_id",
              "type": "string"
            },
            {
              "internalType": "uint256",
              "name": "price",
              "type": "uint256"
            },
            {
              "internalType": "uint256",
              "name": "quantity",
              "type": "uint256"
            },
            {
              "internalType": "uint256",
              "name": "timestamp",
              "type": "uint256"
            },
            {
              "internalType": "address",
              "name": "seller",
              "type": "address"
            },
            {
              "internalType": "address",
              "name": "buyer",
              "type": "address"
            },
            {
              "internalType": "bool",
              "name": "isActive",
              "type": "bool"
            }
          ],
          "internalType": "struct OrderContract.Order[]",
          "name": "",
          "type": "tuple[]"
        }
      ],
      "stateMutability": "view",
      "type": "function"
    },
    {
      "inputs": [
        {
          "internalType": "uint256",
          "name": "_id",
          "type": "uint256"
        }
      ],
      "name": "getBuyOrder",
      "outputs": [
        {
          "components": [
            {
              "internalType": "uint256",
              "name": "id",
              "type": "uint256"
            },
            {
              "internalType": "string",
              "name": "company_id",
              "type": "string"
            },
            {
              "internalType": "uint256",
              "name": "price",
              "type": "uint256"
            },
            {
              "internalType": "uint256",
              "name": "quantity",
              "type": "uint256"
            },
            {
              "internalType": "uint256",
              "name": "timestamp",
              "type": "uint256"
            },
            {
              "internalType": "address",
              "name": "seller",
              "type": "address"
            },
            {
              "internalType": "address",
              "name": "buyer",
              "type": "address"
            },
            {
              "internalType": "bool",
              "name": "isActive",
              "type": "bool"
            }
          ],
          "internalType": "struct OrderContract.Order",
          "name": "",
          "type": "tuple"
        }
      ],
      "stateMutability": "view",
      "type": "function"
    },
    {
      "inputs": [
        {
          "internalType": "string",
          "name": "_company_id",
          "type": "string"
        }
      ],
      "name": "getCurrentCompanyBuyOrder",
      "outputs": [
        {
          "components": [
            {
              "internalType": "uint256",
              "name": "id",
              "type": "uint256"
            },
            {
              "internalType": "string",
              "name": "company_id",
              "type": "string"
            },
            {
              "internalType": "uint256",
              "name": "price",
              "type": "uint256"
            },
            {
              "internalType": "uint256",
              "name": "quantity",
              "type": "uint256"
            },
            {
              "internalType": "uint256",
              "name": "timestamp",
              "type": "uint256"
            },
            {
              "internalType": "address",
              "name": "seller",
              "type": "address"
            },
            {
              "internalType": "address",
              "name": "buyer",
              "type": "address"
            },
            {
              "internalType": "bool",
              "name": "isActive",
              "type": "bool"
            }
          ],
          "internalType": "struct OrderContract.Order",
          "name": "",
          "type": "tuple"
        }
      ],
      "stateMutability": "view",
      "type": "function"
    },
    {
      "inputs": [],
      "name": "getMarketBuyOrders",
      "outputs": [
        {
          "components": [
            {
              "internalType": "uint256",
              "name": "id",
              "type": "uint256"
            },
            {
              "internalType": "string",
              "name": "company_id",
              "type": "string"
            },
            {
              "internalType": "uint256",
              "name": "price",
              "type": "uint256"
            },
            {
              "internalType": "uint256",
              "name": "quantity",
              "type": "uint256"
            },
            {
              "internalType": "uint256",
              "name": "timestamp",
              "type": "uint256"
            },
            {
              "internalType": "address",
              "name": "seller",
              "type": "address"
            },
            {
              "internalType": "address",
              "name": "buyer",
              "type": "address"
            },
            {
              "internalType": "bool",
              "name": "isActive",
              "type": "bool"
            }
          ],
          "internalType": "struct OrderContract.Order[]",
          "name": "",
          "type": "tuple[]"
        }
      ],
      "stateMutability": "view",
      "type": "function"
    },
    {
      "inputs": [],
      "name": "getMarketSellOrders",
      "outputs": [
        {
          "components": [
            {
              "internalType": "uint256",
              "name": "id",
              "type": "uint256"
            },
            {
              "internalType": "string",
              "name": "company_id",
              "type": "string"
            },
            {
              "internalType": "uint256",
              "name": "price",
              "type": "uint256"
            },
            {
              "internalType": "uint256",
              "name": "quantity",
              "type": "uint256"
            },
            {
              "internalType": "uint256",
              "name": "timestamp",
              "type": "uint256"
            },
            {
              "internalType": "address",
              "name": "seller",
              "type": "address"
            },
            {
              "internalType": "address",
              "name": "buyer",
              "type": "address"
            },
            {
              "internalType": "bool",
              "name": "isActive",
              "type": "bool"
            }
          ],
          "internalType": "struct OrderContract.Order[]",
          "name": "",
          "type": "tuple[]"
        }
      ],
      "stateMutability": "view",
      "type": "function"
    },
    {
      "inputs": [],
      "name": "getReadyBuyOrders",
      "outputs": [
        {
          "components": [
            {
              "internalType": "uint256",
              "name": "order_id",
              "type": "uint256"
            },
            {
              "internalType": "uint256",
              "name": "asset_id",
              "type": "uint256"
            },
            {
              "internalType": "string",
              "name": "company_id",
              "type": "string"
            },
            {
              "internalType": "bool",
              "name": "isBuyOrder",
              "type": "bool"
            }
          ],
          "internalType": "struct OrderContract.OrderAssets[]",
          "name": "",
          "type": "tuple[]"
        }
      ],
      "stateMutability": "view",
      "type": "function"
    },
    {
      "inputs": [
        {
          "internalType": "uint256",
          "name": "_id",
          "type": "uint256"
        }
      ],
      "name": "getSellOrder",
      "outputs": [
        {
          "components": [
            {
              "internalType": "uint256",
              "name": "id",
              "type": "uint256"
            },
            {
              "internalType": "string",
              "name": "company_id",
              "type": "string"
            },
            {
              "internalType": "uint256",
              "name": "price",
              "type": "uint256"
            },
            {
              "internalType": "uint256",
              "name": "quantity",
              "type": "uint256"
            },
            {
              "internalType": "uint256",
              "name": "timestamp",
              "type": "uint256"
            },
            {
              "internalType": "address",
              "name": "seller",
              "type": "address"
            },
            {
              "internalType": "address",
              "name": "buyer",
              "type": "address"
            },
            {
              "internalType": "bool",
              "name": "isActive",
              "type": "bool"
            }
          ],
          "internalType": "struct OrderContract.Order",
          "name": "",
          "type": "tuple"
        }
      ],
      "stateMutability": "view",
      "type": "function"
    },
    {
      "inputs": [],
      "name": "getUserBuyOrders",
      "outputs": [
        {
          "components": [
            {
              "internalType": "uint256",
              "name": "id",
              "type": "uint256"
            },
            {
              "internalType": "string",
              "name": "company_id",
              "type": "string"
            },
            {
              "internalType": "uint256",
              "name": "price",
              "type": "uint256"
            },
            {
              "internalType": "uint256",
              "name": "quantity",
              "type": "uint256"
            },
            {
              "internalType": "uint256",
              "name": "timestamp",
              "type": "uint256"
            },
            {
              "internalType": "address",
              "name": "seller",
              "type": "address"
            },
            {
              "internalType": "address",
              "name": "buyer",
              "type": "address"
            },
            {
              "internalType": "bool",
              "name": "isActive",
              "type": "bool"
            }
          ],
          "internalType": "struct OrderContract.Order[]",
          "name": "",
          "type": "tuple[]"
        }
      ],
      "stateMutability": "view",
      "type": "function"
    }
  ],
  "bytecode": "0x60806040523480156200001157600080fd5b50604051620036ac380380620036ac833981810160405281019062000037919062000096565b80600260006101000a81548173ffffffffffffffffffffffffffffffffffffffff021916908373ffffffffffffffffffffffffffffffffffffffff1602179055505062000110565b6000815190506200009081620000f6565b92915050565b600060208284031215620000a957600080fd5b6000620000b9848285016200007f565b91505092915050565b6000620000cf82620000d6565b9050919050565b600073ffffffffffffffffffffffffffffffffffffffff82169050919050565b6200010181620000c2565b81146200010d57600080fd5b50565b61358c80620001206000396000f3fe608060405234801561001057600080fd5b50600436106100cf5760003560e01c8063ab92b32a1161008c578063c5ddf0d311610066578063c5ddf0d314610214578063e1a8e59514610232578063e64a97cf1461024e578063ef6e73891461026c576100cf565b8063ab92b32a146101aa578063b1af1bda146101c8578063be5d147f146101f8576100cf565b80632a59e53e146100d45780632e98613e14610104578063390ce0d314610122578063730412e8146101525780637eeafd3414610170578063a31899701461018c575b600080fd5b6100ee60048036038101906100e99190612b3d565b61028a565b6040516100fb919061312b565b60405180910390f35b61010c610534565b60405161011991906130be565b60405180910390f35b61013c60048036038101906101379190612be5565b610806565b604051610149919061312b565b60405180910390f35b61015a610a65565b60405161016791906130be565b60405180910390f35b61018a60048036038101906101859190612b7e565b610d37565b005b610194610f34565b6040516101a191906130be565b60405180910390f35b6101b2611375565b6040516101bf919061309c565b60405180910390f35b6101e260048036038101906101dd9190612be5565b61197c565b6040516101ef919061312b565b60405180910390f35b610212600480360381019061020d9190612be5565b611bdb565b005b61021c611d08565b60405161022991906130be565b60405180910390f35b61024c60048036038101906102479190612b7e565b61214b565b005b610256612347565b60405161026391906130e0565b60405180910390f35b61027461236d565b60405161028191906130be565b60405180910390f35b6102926127ae565b60005b60005481101561052d57826040516020016102b0919061306e565b6040516020818303038152906040528051906020012060038281548110610300577f4e487b7100000000000000000000000000000000000000000000000000000000600052603260045260246000fd5b90600052602060002090600702016001016040516020016103219190613085565b60405160208183030381529060405280519060200120141561051a5760038181548110610377577f4e487b7100000000000000000000000000000000000000000000000000000000600052603260045260246000fd5b906000526020600020906007020160405180610100016040529081600082015481526020016001820180546103ab906133f5565b80601f01602080910402602001604051908101604052809291908181526020018280546103d7906133f5565b80156104245780601f106103f957610100808354040283529160200191610424565b820191906000526020600020905b81548152906001019060200180831161040757829003601f168201915b505050505081526020016002820154815260200160038201548152602001600482015481526020016005820160009054906101000a900473ffffffffffffffffffffffffffffffffffffffff1673ffffffffffffffffffffffffffffffffffffffff1673ffffffffffffffffffffffffffffffffffffffff1681526020016006820160009054906101000a900473ffffffffffffffffffffffffffffffffffffffff1673ffffffffffffffffffffffffffffffffffffffff1673ffffffffffffffffffffffffffffffffffffffff1681526020016006820160149054906101000a900460ff16151515158152505091505061052f565b808061052590613458565b915050610295565b505b919050565b6060600080805467ffffffffffffffff81111561057a577f4e487b7100000000000000000000000000000000000000000000000000000000600052604160045260246000fd5b6040519080825280602002602001820160405280156105b357816020015b6105a06127ae565b8152602001906001900390816105985790505b50905060005b6000548110156107fd57600381815481106105fd577f4e487b7100000000000000000000000000000000000000000000000000000000600052603260045260246000fd5b90600052602060002090600702016040518061010001604052908160008201548152602001600182018054610631906133f5565b80601f016020809104026020016040519081016040528092919081815260200182805461065d906133f5565b80156106aa5780601f1061067f576101008083540402835291602001916106aa565b820191906000526020600020905b81548152906001019060200180831161068d57829003601f168201915b505050505081526020016002820154815260200160038201548152602001600482015481526020016005820160009054906101000a900473ffffffffffffffffffffffffffffffffffffffff1673ffffffffffffffffffffffffffffffffffffffff1673ffffffffffffffffffffffffffffffffffffffff1681526020016006820160009054906101000a900473ffffffffffffffffffffffffffffffffffffffff1673ffffffffffffffffffffffffffffffffffffffff1673ffffffffffffffffffffffffffffffffffffffff1681526020016006820160149054906101000a900460ff1615151515815250508284815181106107d1577f4e487b7100000000000000000000000000000000000000000000000000000000600052603260045260246000fd5b602002602001018190525082806107e790613458565b93505080806107f590613458565b9150506105b9565b50809250505090565b61080e6127ae565b60005b600154811015610a5e578260048281548110610856577f4e487b7100000000000000000000000000000000000000000000000000000000600052603260045260246000fd5b9060005260206000209060070201600001541415610a4b57600481815481106108a8577f4e487b7100000000000000000000000000000000000000000000000000000000600052603260045260246000fd5b906000526020600020906007020160405180610100016040529081600082015481526020016001820180546108dc906133f5565b80601f0160208091040260200160405190810160405280929190818152602001828054610908906133f5565b80156109555780601f1061092a57610100808354040283529160200191610955565b820191906000526020600020905b81548152906001019060200180831161093857829003601f168201915b505050505081526020016002820154815260200160038201548152602001600482015481526020016005820160009054906101000a900473ffffffffffffffffffffffffffffffffffffffff1673ffffffffffffffffffffffffffffffffffffffff1673ffffffffffffffffffffffffffffffffffffffff1681526020016006820160009054906101000a900473ffffffffffffffffffffffffffffffffffffffff1673ffffffffffffffffffffffffffffffffffffffff1673ffffffffffffffffffffffffffffffffffffffff1681526020016006820160149054906101000a900460ff161515151581525050915050610a60565b8080610a5690613458565b915050610811565b505b919050565b6060600080805467ffffffffffffffff811115610aab577f4e487b7100000000000000000000000000000000000000000000000000000000600052604160045260246000fd5b604051908082528060200260200182016040528015610ae457816020015b610ad16127ae565b815260200190600190039081610ac95790505b50905060005b600154811015610d2e5760048181548110610b2e577f4e487b7100000000000000000000000000000000000000000000000000000000600052603260045260246000fd5b90600052602060002090600702016040518061010001604052908160008201548152602001600182018054610b62906133f5565b80601f0160208091040260200160405190810160405280929190818152602001828054610b8e906133f5565b8015610bdb5780601f10610bb057610100808354040283529160200191610bdb565b820191906000526020600020905b815481529060010190602001808311610bbe57829003601f168201915b505050505081526020016002820154815260200160038201548152602001600482015481526020016005820160009054906101000a900473ffffffffffffffffffffffffffffffffffffffff1673ffffffffffffffffffffffffffffffffffffffff1673ffffffffffffffffffffffffffffffffffffffff1681526020016006820160009054906101000a900473ffffffffffffffffffffffffffffffffffffffff1673ffffffffffffffffffffffffffffffffffffffff1673ffffffffffffffffffffffffffffffffffffffff1681526020016006820160149054906101000a900460ff161515151581525050828481518110610d02577f4e487b7100000000000000000000000000000000000000000000000000000000600052603260045260246000fd5b60200260200101819052508280610d1890613458565b9350508080610d2690613458565b915050610aea565b50809250505090565b60036040518061010001604052806000548152602001858152602001848152602001838152602001428152602001600073ffffffffffffffffffffffffffffffffffffffff1681526020013373ffffffffffffffffffffffffffffffffffffffff168152602001600015158152509080600181540180825580915050600190039060005260206000209060070201600090919091909150600082015181600001556020820151816001019080519060200190610df4929190612821565b5060408201518160020155606082015181600301556080820151816004015560a08201518160050160006101000a81548173ffffffffffffffffffffffffffffffffffffffff021916908373ffffffffffffffffffffffffffffffffffffffff16021790555060c08201518160060160006101000a81548173ffffffffffffffffffffffffffffffffffffffff021916908373ffffffffffffffffffffffffffffffffffffffff16021790555060e08201518160060160146101000a81548160ff0219169083151502179055505050600080815480929190610ed590613458565b91905055507f23972ca93473282728158a3be07109f16d6944be14cfd432fe2035dd4e486a4c6001600054610f0a9190613313565b848484426000336000604051610f2798979695949392919061314d565b60405180910390a1505050565b606060008060005b600054811015611006573273ffffffffffffffffffffffffffffffffffffffff1660038281548110610f97577f4e487b7100000000000000000000000000000000000000000000000000000000600052603260045260246000fd5b906000526020600020906007020160060160009054906101000a900473ffffffffffffffffffffffffffffffffffffffff1673ffffffffffffffffffffffffffffffffffffffff1614610ff3578280610fef90613458565b9350505b8080610ffe90613458565b915050610f3c565b5060008267ffffffffffffffff811115611049577f4e487b7100000000000000000000000000000000000000000000000000000000600052604160045260246000fd5b60405190808252806020026020018201604052801561108257816020015b61106f6127ae565b8152602001906001900390816110675790505b50905060005b60005481101561136b573273ffffffffffffffffffffffffffffffffffffffff16600382815481106110e3577f4e487b7100000000000000000000000000000000000000000000000000000000600052603260045260246000fd5b906000526020600020906007020160060160009054906101000a900473ffffffffffffffffffffffffffffffffffffffff1673ffffffffffffffffffffffffffffffffffffffff1614611358576003818154811061116a577f4e487b7100000000000000000000000000000000000000000000000000000000600052603260045260246000fd5b9060005260206000209060070201604051806101000160405290816000820154815260200160018201805461119e906133f5565b80601f01602080910402602001604051908101604052809291908181526020018280546111ca906133f5565b80156112175780601f106111ec57610100808354040283529160200191611217565b820191906000526020600020905b8154815290600101906020018083116111fa57829003601f168201915b505050505081526020016002820154815260200160038201548152602001600482015481526020016005820160009054906101000a900473ffffffffffffffffffffffffffffffffffffffff1673ffffffffffffffffffffffffffffffffffffffff1673ffffffffffffffffffffffffffffffffffffffff1681526020016006820160009054906101000a900473ffffffffffffffffffffffffffffffffffffffff1673ffffffffffffffffffffffffffffffffffffffff1673ffffffffffffffffffffffffffffffffffffffff1681526020016006820160149054906101000a900460ff16151515158152505082848151811061133e577f4e487b7100000000000000000000000000000000000000000000000000000000600052603260045260246000fd5b6020026020010181905250828061135490613458565b9350505b808061136390613458565b915050611088565b5080935050505090565b60606000806000611384610534565b905060005b81518110156115a2576000600260009054906101000a900473ffffffffffffffffffffffffffffffffffffffff1673ffffffffffffffffffffffffffffffffffffffff16638dc2896684848151811061140b577f4e487b7100000000000000000000000000000000000000000000000000000000600052603260045260246000fd5b602002602001015160200151858581518110611450577f4e487b7100000000000000000000000000000000000000000000000000000000600052603260045260246000fd5b6020026020010151604001516040518363ffffffff1660e01b81526004016114799291906130fb565b60006040518083038186803b15801561149157600080fd5b505afa1580156114a5573d6000803e3d6000fd5b505050506040513d6000823e3d601f19601f820116820180604052508101906114ce9190612afc565b9050828281518110611509577f4e487b7100000000000000000000000000000000000000000000000000000000600052603260045260246000fd5b60200260200101516060015181511061158e5760005b838381518110611558577f4e487b7100000000000000000000000000000000000000000000000000000000600052603260045260246000fd5b60200260200101516060015181101561158c57848061157690613458565b955050808061158490613458565b91505061151f565b505b50808061159a90613458565b915050611389565b5060008267ffffffffffffffff8111156115e5577f4e487b7100000000000000000000000000000000000000000000000000000000600052604160045260246000fd5b60405190808252806020026020018201604052801561161e57816020015b61160b6128a7565b8152602001906001900390816116035790505b50905060005b8251811015611971576000600260009054906101000a900473ffffffffffffffffffffffffffffffffffffffff1673ffffffffffffffffffffffffffffffffffffffff16638dc289668584815181106116a6577f4e487b7100000000000000000000000000000000000000000000000000000000600052603260045260246000fd5b6020026020010151602001518685815181106116eb577f4e487b7100000000000000000000000000000000000000000000000000000000600052603260045260246000fd5b6020026020010151604001516040518363ffffffff1660e01b81526004016117149291906130fb565b60006040518083038186803b15801561172c57600080fd5b505afa158015611740573d6000803e3d6000fd5b505050506040513d6000823e3d601f19601f820116820180604052508101906117699190612afc565b90508382815181106117a4577f4e487b7100000000000000000000000000000000000000000000000000000000600052603260045260246000fd5b60200260200101516060015181511061195d5760005b8483815181106117f3577f4e487b7100000000000000000000000000000000000000000000000000000000600052603260045260246000fd5b60200260200101516060015181101561195b57604051806080016040528086858151811061184a577f4e487b7100000000000000000000000000000000000000000000000000000000600052603260045260246000fd5b6020026020010151600001518152602001838381518110611894577f4e487b7100000000000000000000000000000000000000000000000000000000600052603260045260246000fd5b60200260200101516020015181526020018685815181106118de577f4e487b7100000000000000000000000000000000000000000000000000000000600052603260045260246000fd5b60200260200101516020015181526020016001151581525084888151811061192f577f4e487b7100000000000000000000000000000000000000000000000000000000600052603260045260246000fd5b6020026020010181905250868061194590613458565b975050808061195390613458565b9150506117ba565b505b50808061196990613458565b915050611624565b508094505050505090565b6119846127ae565b60005b600054811015611bd45782600382815481106119cc577f4e487b7100000000000000000000000000000000000000000000000000000000600052603260045260246000fd5b9060005260206000209060070201600001541415611bc15760038181548110611a1e577f4e487b7100000000000000000000000000000000000000000000000000000000600052603260045260246000fd5b90600052602060002090600702016040518061010001604052908160008201548152602001600182018054611a52906133f5565b80601f0160208091040260200160405190810160405280929190818152602001828054611a7e906133f5565b8015611acb5780601f10611aa057610100808354040283529160200191611acb565b820191906000526020600020905b815481529060010190602001808311611aae57829003601f168201915b505050505081526020016002820154815260200160038201548152602001600482015481526020016005820160009054906101000a900473ffffffffffffffffffffffffffffffffffffffff1673ffffffffffffffffffffffffffffffffffffffff1673ffffffffffffffffffffffffffffffffffffffff1681526020016006820160009054906101000a900473ffffffffffffffffffffffffffffffffffffffff1673ffffffffffffffffffffffffffffffffffffffff1673ffffffffffffffffffffffffffffffffffffffff1681526020016006820160149054906101000a900460ff161515151581525050915050611bd6565b8080611bcc90613458565b915050611987565b505b919050565b60006003600081548110611c18577f4e487b7100000000000000000000000000000000000000000000000000000000600052603260045260246000fd5b9060005260206000209060070201905060005b600054811015611ce6578260038281548110611c70577f4e487b7100000000000000000000000000000000000000000000000000000000600052603260045260246000fd5b9060005260206000209060070201600001541415611cd35760038181548110611cc2577f4e487b7100000000000000000000000000000000000000000000000000000000600052603260045260246000fd5b906000526020600020906007020191505b8080611cde90613458565b915050611c2b565b5060018160060160146101000a81548160ff0219169083151502179055505050565b606060008060005b600054811015611ddb573273ffffffffffffffffffffffffffffffffffffffff1660038281548110611d6b577f4e487b7100000000000000000000000000000000000000000000000000000000600052603260045260246000fd5b906000526020600020906007020160060160009054906101000a900473ffffffffffffffffffffffffffffffffffffffff1673ffffffffffffffffffffffffffffffffffffffff161415611dc8578280611dc490613458565b9350505b8080611dd390613458565b915050611d10565b5060008267ffffffffffffffff811115611e1e577f4e487b7100000000000000000000000000000000000000000000000000000000600052604160045260246000fd5b604051908082528060200260200182016040528015611e5757816020015b611e446127ae565b815260200190600190039081611e3c5790505b50905060005b600054811015612141573273ffffffffffffffffffffffffffffffffffffffff1660038281548110611eb8577f4e487b7100000000000000000000000000000000000000000000000000000000600052603260045260246000fd5b906000526020600020906007020160060160009054906101000a900473ffffffffffffffffffffffffffffffffffffffff1673ffffffffffffffffffffffffffffffffffffffff16141561212e5760038181548110611f40577f4e487b7100000000000000000000000000000000000000000000000000000000600052603260045260246000fd5b90600052602060002090600702016040518061010001604052908160008201548152602001600182018054611f74906133f5565b80601f0160208091040260200160405190810160405280929190818152602001828054611fa0906133f5565b8015611fed5780601f10611fc257610100808354040283529160200191611fed565b820191906000526020600020905b815481529060010190602001808311611fd057829003601f168201915b505050505081526020016002820154815260200160038201548152602001600482015481526020016005820160009054906101000a900473ffffffffffffffffffffffffffffffffffffffff1673ffffffffffffffffffffffffffffffffffffffff1673ffffffffffffffffffffffffffffffffffffffff1681526020016006820160009054906101000a900473ffffffffffffffffffffffffffffffffffffffff1673ffffffffffffffffffffffffffffffffffffffff1673ffffffffffffffffffffffffffffffffffffffff1681526020016006820160149054906101000a900460ff161515151581525050828481518110612114577f4e487b7100000000000000000000000000000000000000000000000000000000600052603260045260246000fd5b6020026020010181905250828061212a90613458565b9350505b808061213990613458565b915050611e5d565b5080935050505090565b600460405180610100016040528060015481526020018581526020018481526020018381526020014281526020013373ffffffffffffffffffffffffffffffffffffffff168152602001600073ffffffffffffffffffffffffffffffffffffffff168152602001600015158152509080600181540180825580915050600190039060005260206000209060070201600090919091909150600082015181600001556020820151816001019080519060200190612208929190612821565b5060408201518160020155606082015181600301556080820151816004015560a08201518160050160006101000a81548173ffffffffffffffffffffffffffffffffffffffff021916908373ffffffffffffffffffffffffffffffffffffffff16021790555060c08201518160060160006101000a81548173ffffffffffffffffffffffffffffffffffffffff021916908373ffffffffffffffffffffffffffffffffffffffff16021790555060e08201518160060160146101000a81548160ff0219169083151502179055505050600160008154809291906122ea90613458565b91905055507f045a4b00a1fc6952f970c2fc94fe99c7fb3265b2e5ed212e8b0bc355f9a987636001805461231e9190613313565b848484423360008060405161233a98979695949392919061314d565b60405180910390a1505050565b600260009054906101000a900473ffffffffffffffffffffffffffffffffffffffff1681565b606060008060005b60005481101561243f573273ffffffffffffffffffffffffffffffffffffffff16600482815481106123d0577f4e487b7100000000000000000000000000000000000000000000000000000000600052603260045260246000fd5b906000526020600020906007020160050160009054906101000a900473ffffffffffffffffffffffffffffffffffffffff1673ffffffffffffffffffffffffffffffffffffffff161461242c57828061242890613458565b9350505b808061243790613458565b915050612375565b5060008267ffffffffffffffff811115612482577f4e487b7100000000000000000000000000000000000000000000000000000000600052604160045260246000fd5b6040519080825280602002602001820160405280156124bb57816020015b6124a86127ae565b8152602001906001900390816124a05790505b50905060005b6000548110156127a4573273ffffffffffffffffffffffffffffffffffffffff166004828154811061251c577f4e487b7100000000000000000000000000000000000000000000000000000000600052603260045260246000fd5b906000526020600020906007020160050160009054906101000a900473ffffffffffffffffffffffffffffffffffffffff1673ffffffffffffffffffffffffffffffffffffffff161461279157600381815481106125a3577f4e487b7100000000000000000000000000000000000000000000000000000000600052603260045260246000fd5b906000526020600020906007020160405180610100016040529081600082015481526020016001820180546125d7906133f5565b80601f0160208091040260200160405190810160405280929190818152602001828054612603906133f5565b80156126505780601f1061262557610100808354040283529160200191612650565b820191906000526020600020905b81548152906001019060200180831161263357829003601f168201915b505050505081526020016002820154815260200160038201548152602001600482015481526020016005820160009054906101000a900473ffffffffffffffffffffffffffffffffffffffff1673ffffffffffffffffffffffffffffffffffffffff1673ffffffffffffffffffffffffffffffffffffffff1681526020016006820160009054906101000a900473ffffffffffffffffffffffffffffffffffffffff1673ffffffffffffffffffffffffffffffffffffffff1673ffffffffffffffffffffffffffffffffffffffff1681526020016006820160149054906101000a900460ff161515151581525050828481518110612777577f4e487b7100000000000000000000000000000000000000000000000000000000600052603260045260246000fd5b6020026020010181905250828061278d90613458565b9350505b808061279c90613458565b9150506124c1565b5080935050505090565b6040518061010001604052806000815260200160608152602001600081526020016000815260200160008152602001600073ffffffffffffffffffffffffffffffffffffffff168152602001600073ffffffffffffffffffffffffffffffffffffffff1681526020016000151581525090565b82805461282d906133f5565b90600052602060002090601f01602090048101928261284f5760008555612896565b82601f1061286857805160ff1916838001178555612896565b82800160010185558215612896579182015b8281111561289557825182559160200191906001019061287a565b5b5090506128a391906128d1565b5090565b60405180608001604052806000815260200160008152602001606081526020016000151581525090565b5b808211156128ea5760008160009055506001016128d2565b5090565b60006129016128fc846131f7565b6131d2565b9050808382526020820190508285602086028201111561292057600080fd5b60005b8581101561296a57815167ffffffffffffffff81111561294257600080fd5b80860161294f8982612a6e565b85526020850194506020840193505050600181019050612923565b5050509392505050565b600061298761298284613223565b6131d2565b90508281526020810184848401111561299f57600080fd5b6129aa8482856133b3565b509392505050565b60006129c56129c084613223565b6131d2565b9050828152602081018484840111156129dd57600080fd5b6129e88482856133c2565b509392505050565b600082601f830112612a0157600080fd5b8151612a118482602086016128ee565b91505092915050565b600082601f830112612a2b57600080fd5b8135612a3b848260208601612974565b91505092915050565b600082601f830112612a5557600080fd5b8151612a658482602086016129b2565b91505092915050565b600060408284031215612a8057600080fd5b612a8a60406131d2565b9050600082015167ffffffffffffffff811115612aa657600080fd5b612ab284828501612a44565b6000830152506020612ac684828501612ae7565b60208301525092915050565b600081359050612ae18161353f565b92915050565b600081519050612af68161353f565b92915050565b600060208284031215612b0e57600080fd5b600082015167ffffffffffffffff811115612b2857600080fd5b612b34848285016129f0565b91505092915050565b600060208284031215612b4f57600080fd5b600082013567ffffffffffffffff811115612b6957600080fd5b612b7584828501612a1a565b91505092915050565b600080600060608486031215612b9357600080fd5b600084013567ffffffffffffffff811115612bad57600080fd5b612bb986828701612a1a565b9350506020612bca86828701612ad2565b9250506040612bdb86828701612ad2565b9150509250925092565b600060208284031215612bf757600080fd5b6000612c0584828501612ad2565b91505092915050565b6000612c1a8383612e8d565b905092915050565b6000612c2e8383612ef0565b905092915050565b612c3f81613347565b82525050565b612c4e81613347565b82525050565b6000612c5f82613289565b612c6981856132c4565b935083602082028501612c7b85613254565b8060005b85811015612cb75784840389528151612c988582612c0e565b9450612ca3836132aa565b925060208a01995050600181019050612c7f565b50829750879550505050505092915050565b6000612cd482613294565b612cde81856132d5565b935083602082028501612cf085613264565b8060005b85811015612d2c5784840389528151612d0d8582612c22565b9450612d18836132b7565b925060208a01995050600181019050612cf4565b50829750879550505050505092915050565b612d4781613359565b82525050565b612d5681613359565b82525050565b612d658161338f565b82525050565b6000612d768261329f565b612d8081856132e6565b9350612d908185602086016133c2565b612d998161352e565b840191505092915050565b6000612daf8261329f565b612db981856132f7565b9350612dc98185602086016133c2565b612dd28161352e565b840191505092915050565b6000612de88261329f565b612df28185613308565b9350612e028185602086016133c2565b80840191505092915050565b60008154612e1b816133f5565b612e258186613308565b94506001821660008114612e405760018114612e5157612e84565b60ff19831686528186019350612e84565b612e5a85613274565b60005b83811015612e7c57815481890152600182019150602081019050612e5d565b838801955050505b50505092915050565b6000608083016000830151612ea56000860182613050565b506020830151612eb86020860182613050565b5060408301518482036040860152612ed08282612d6b565b9150506060830151612ee56060860182612d3e565b508091505092915050565b600061010083016000830151612f096000860182613050565b5060208301518482036020860152612f218282612d6b565b9150506040830151612f366040860182613050565b506060830151612f496060860182613050565b506080830151612f5c6080860182613050565b5060a0830151612f6f60a0860182612c36565b5060c0830151612f8260c0860182612c36565b5060e0830151612f9560e0860182612d3e565b508091505092915050565b600061010083016000830151612fb96000860182613050565b5060208301518482036020860152612fd18282612d6b565b9150506040830151612fe66040860182613050565b506060830151612ff96060860182613050565b50608083015161300c6080860182613050565b5060a083015161301f60a0860182612c36565b5060c083015161303260c0860182612c36565b5060e083015161304560e0860182612d3e565b508091505092915050565b61305981613385565b82525050565b61306881613385565b82525050565b600061307a8284612ddd565b915081905092915050565b60006130918284612e0e565b915081905092915050565b600060208201905081810360008301526130b68184612c54565b905092915050565b600060208201905081810360008301526130d88184612cc9565b905092915050565b60006020820190506130f56000830184612d5c565b92915050565b600060408201905081810360008301526131158185612da4565b9050613124602083018461305f565b9392505050565b600060208201905081810360008301526131458184612fa0565b905092915050565b600061010082019050613163600083018b61305f565b8181036020830152613175818a612da4565b9050613184604083018961305f565b613191606083018861305f565b61319e608083018761305f565b6131ab60a0830186612c45565b6131b860c0830185612c45565b6131c560e0830184612d4d565b9998505050505050505050565b60006131dc6131ed565b90506131e88282613427565b919050565b6000604051905090565b600067ffffffffffffffff821115613212576132116134ff565b5b602082029050602081019050919050565b600067ffffffffffffffff82111561323e5761323d6134ff565b5b6132478261352e565b9050602081019050919050565b6000819050602082019050919050565b6000819050602082019050919050565b60008190508160005260206000209050919050565b600081519050919050565b600081519050919050565b600081519050919050565b6000602082019050919050565b6000602082019050919050565b600082825260208201905092915050565b600082825260208201905092915050565b600082825260208201905092915050565b600082825260208201905092915050565b600081905092915050565b600061331e82613385565b915061332983613385565b92508282101561333c5761333b6134a1565b5b828203905092915050565b600061335282613365565b9050919050565b60008115159050919050565b600073ffffffffffffffffffffffffffffffffffffffff82169050919050565b6000819050919050565b600061339a826133a1565b9050919050565b60006133ac82613365565b9050919050565b82818337600083830152505050565b60005b838110156133e05780820151818401526020810190506133c5565b838111156133ef576000848401525b50505050565b6000600282049050600182168061340d57607f821691505b60208210811415613421576134206134d0565b5b50919050565b6134308261352e565b810181811067ffffffffffffffff8211171561344f5761344e6134ff565b5b80604052505050565b600061346382613385565b91507fffffffffffffffffffffffffffffffffffffffffffffffffffffffffffffffff821415613496576134956134a1565b5b600182019050919050565b7f4e487b7100000000000000000000000000000000000000000000000000000000600052601160045260246000fd5b7f4e487b7100000000000000000000000000000000000000000000000000000000600052602260045260246000fd5b7f4e487b7100000000000000000000000000000000000000000000000000000000600052604160045260246000fd5b6000601f19601f8301169050919050565b61354881613385565b811461355357600080fd5b5056fea26469706673582212205ce9fe80dc276aa68b11db6a7aebda44323f0e976f245b9d531586f03721038f64736f6c63430008040033",
  "linkReferences": {},
  "deployedLinkReferences": {}
}