{
  "_format": "hh-sol-artifact-1",
  "contractName": "OrderContract",
  "sourceName": "contracts/Order.sol",
  "abi": [
    {
      "inputs": [
        {
          "internalType": "address",
          "name": "_AssetContract",
          "type": "address"
        },
        {
          "internalType": "address",
          "name": "_TransactionContract",
          "type": "address"
        }
      ],
      "stateMutability": "nonpayable",
      "type": "constructor"
    },
    {
      "anonymous": false,
      "inputs": [
        {
          "indexed": false,
          "internalType": "uint256",
          "name": "id",
          "type": "uint256"
        },
        {
          "indexed": false,
          "internalType": "string",
          "name": "company_id",
          "type": "string"
        },
        {
          "indexed": false,
          "internalType": "uint256",
          "name": "price",
          "type": "uint256"
        },
        {
          "indexed": false,
          "internalType": "uint256",
          "name": "quantity",
          "type": "uint256"
        },
        {
          "indexed": false,
          "internalType": "uint256",
          "name": "timestamp",
          "type": "uint256"
        },
        {
          "indexed": false,
          "internalType": "address",
          "name": "seller",
          "type": "address"
        },
        {
          "indexed": false,
          "internalType": "address",
          "name": "buyer",
          "type": "address"
        },
        {
          "indexed": false,
          "internalType": "bool",
          "name": "isFullfield",
          "type": "bool"
        },
        {
          "indexed": false,
          "internalType": "bool",
          "name": "isActive",
          "type": "bool"
        }
      ],
      "name": "BuyOrder",
      "type": "event"
    },
    {
      "inputs": [],
      "name": "_assetContract",
      "outputs": [
        {
          "internalType": "contract AssetContract",
          "name": "",
          "type": "address"
        }
      ],
      "stateMutability": "view",
      "type": "function"
    },
    {
      "inputs": [],
      "name": "_transactionContract",
      "outputs": [
        {
          "internalType": "contract TransactionContract",
          "name": "",
          "type": "address"
        }
      ],
      "stateMutability": "view",
      "type": "function"
    },
    {
      "inputs": [
        {
          "internalType": "uint256",
          "name": "_id",
          "type": "uint256"
        }
      ],
      "name": "activateBuyOrder",
      "outputs": [],
      "stateMutability": "nonpayable",
      "type": "function"
    },
    {
      "inputs": [
        {
          "internalType": "uint256",
          "name": "_id",
          "type": "uint256"
        }
      ],
      "name": "cancelBuyOrder",
      "outputs": [],
      "stateMutability": "nonpayable",
      "type": "function"
    },
    {
      "inputs": [
        {
          "internalType": "string",
          "name": "company_id",
          "type": "string"
        },
        {
          "internalType": "uint256",
          "name": "price",
          "type": "uint256"
        },
        {
          "internalType": "uint256",
          "name": "quantity",
          "type": "uint256"
        }
      ],
      "name": "createBuyOrder",
      "outputs": [],
      "stateMutability": "nonpayable",
      "type": "function"
    },
    {
      "inputs": [
        {
          "components": [
            {
              "internalType": "string",
              "name": "company_id",
              "type": "string"
            },
            {
              "internalType": "uint256",
              "name": "asset_id",
              "type": "uint256"
            }
          ],
          "internalType": "struct TransactionContract.BuyParamsStruct[]",
          "name": "params",
          "type": "tuple[]"
        },
        {
          "internalType": "uint256",
          "name": "orderId",
          "type": "uint256"
        }
      ],
      "name": "executeOrder",
      "outputs": [],
      "stateMutability": "nonpayable",
      "type": "function"
    },
    {
      "inputs": [],
      "name": "getAllBuyOrders",
      "outputs": [
        {
          "components": [
            {
              "internalType": "uint256",
              "name": "id",
              "type": "uint256"
            },
            {
              "internalType": "string",
              "name": "company_id",
              "type": "string"
            },
            {
              "internalType": "uint256",
              "name": "price",
              "type": "uint256"
            },
            {
              "internalType": "uint256",
              "name": "quantity",
              "type": "uint256"
            },
            {
              "internalType": "uint256",
              "name": "timestamp",
              "type": "uint256"
            },
            {
              "internalType": "address",
              "name": "seller",
              "type": "address"
            },
            {
              "internalType": "address",
              "name": "buyer",
              "type": "address"
            },
            {
              "internalType": "bool",
              "name": "isFullfield",
              "type": "bool"
            },
            {
              "internalType": "bool",
              "name": "isActive",
              "type": "bool"
            }
          ],
          "internalType": "struct OrderContract.Order[]",
          "name": "",
          "type": "tuple[]"
        }
      ],
      "stateMutability": "view",
      "type": "function"
    },
    {
      "inputs": [
        {
          "internalType": "uint256",
          "name": "_id",
          "type": "uint256"
        }
      ],
      "name": "getBuyOrder",
      "outputs": [
        {
          "components": [
            {
              "internalType": "uint256",
              "name": "id",
              "type": "uint256"
            },
            {
              "internalType": "string",
              "name": "company_id",
              "type": "string"
            },
            {
              "internalType": "uint256",
              "name": "price",
              "type": "uint256"
            },
            {
              "internalType": "uint256",
              "name": "quantity",
              "type": "uint256"
            },
            {
              "internalType": "uint256",
              "name": "timestamp",
              "type": "uint256"
            },
            {
              "internalType": "address",
              "name": "seller",
              "type": "address"
            },
            {
              "internalType": "address",
              "name": "buyer",
              "type": "address"
            },
            {
              "internalType": "bool",
              "name": "isFullfield",
              "type": "bool"
            },
            {
              "internalType": "bool",
              "name": "isActive",
              "type": "bool"
            }
          ],
          "internalType": "struct OrderContract.Order",
          "name": "",
          "type": "tuple"
        }
      ],
      "stateMutability": "view",
      "type": "function"
    },
    {
      "inputs": [
        {
          "internalType": "string",
          "name": "_company_id",
          "type": "string"
        }
      ],
      "name": "getCurrentCompanyBuyOrder",
      "outputs": [
        {
          "components": [
            {
              "internalType": "uint256",
              "name": "id",
              "type": "uint256"
            },
            {
              "internalType": "string",
              "name": "company_id",
              "type": "string"
            },
            {
              "internalType": "uint256",
              "name": "price",
              "type": "uint256"
            },
            {
              "internalType": "uint256",
              "name": "quantity",
              "type": "uint256"
            },
            {
              "internalType": "uint256",
              "name": "timestamp",
              "type": "uint256"
            },
            {
              "internalType": "address",
              "name": "seller",
              "type": "address"
            },
            {
              "internalType": "address",
              "name": "buyer",
              "type": "address"
            },
            {
              "internalType": "bool",
              "name": "isFullfield",
              "type": "bool"
            },
            {
              "internalType": "bool",
              "name": "isActive",
              "type": "bool"
            }
          ],
          "internalType": "struct OrderContract.Order",
          "name": "",
          "type": "tuple"
        }
      ],
      "stateMutability": "view",
      "type": "function"
    },
    {
      "inputs": [],
      "name": "getMarketBuyOrders",
      "outputs": [
        {
          "components": [
            {
              "internalType": "uint256",
              "name": "id",
              "type": "uint256"
            },
            {
              "internalType": "string",
              "name": "company_id",
              "type": "string"
            },
            {
              "internalType": "uint256",
              "name": "price",
              "type": "uint256"
            },
            {
              "internalType": "uint256",
              "name": "quantity",
              "type": "uint256"
            },
            {
              "internalType": "uint256",
              "name": "timestamp",
              "type": "uint256"
            },
            {
              "internalType": "address",
              "name": "seller",
              "type": "address"
            },
            {
              "internalType": "address",
              "name": "buyer",
              "type": "address"
            },
            {
              "internalType": "bool",
              "name": "isFullfield",
              "type": "bool"
            },
            {
              "internalType": "bool",
              "name": "isActive",
              "type": "bool"
            }
          ],
          "internalType": "struct OrderContract.Order[]",
          "name": "",
          "type": "tuple[]"
        }
      ],
      "stateMutability": "view",
      "type": "function"
    },
    {
      "inputs": [],
      "name": "getReadyBuyOrders",
      "outputs": [
        {
          "components": [
            {
              "internalType": "uint256",
              "name": "order_id",
              "type": "uint256"
            },
            {
              "internalType": "uint256",
              "name": "asset_id",
              "type": "uint256"
            },
            {
              "internalType": "string",
              "name": "company_id",
              "type": "string"
            },
            {
              "internalType": "bool",
              "name": "isBuyOrder",
              "type": "bool"
            }
          ],
          "internalType": "struct OrderContract.OrderAssets[]",
          "name": "",
          "type": "tuple[]"
        }
      ],
      "stateMutability": "view",
      "type": "function"
    },
    {
      "inputs": [],
      "name": "getUserBuyOrders",
      "outputs": [
        {
          "components": [
            {
              "internalType": "uint256",
              "name": "id",
              "type": "uint256"
            },
            {
              "internalType": "string",
              "name": "company_id",
              "type": "string"
            },
            {
              "internalType": "uint256",
              "name": "price",
              "type": "uint256"
            },
            {
              "internalType": "uint256",
              "name": "quantity",
              "type": "uint256"
            },
            {
              "internalType": "uint256",
              "name": "timestamp",
              "type": "uint256"
            },
            {
              "internalType": "address",
              "name": "seller",
              "type": "address"
            },
            {
              "internalType": "address",
              "name": "buyer",
              "type": "address"
            },
            {
              "internalType": "bool",
              "name": "isFullfield",
              "type": "bool"
            },
            {
              "internalType": "bool",
              "name": "isActive",
              "type": "bool"
            }
          ],
          "internalType": "struct OrderContract.Order[]",
          "name": "",
          "type": "tuple[]"
        }
      ],
      "stateMutability": "view",
      "type": "function"
    },
    {
      "inputs": [
        {
          "internalType": "uint256",
          "name": "_id",
          "type": "uint256"
        },
        {
          "internalType": "uint256",
          "name": "price",
          "type": "uint256"
        },
        {
          "internalType": "uint256",
          "name": "quantity",
          "type": "uint256"
        }
      ],
      "name": "modifyOrder",
      "outputs": [],
      "stateMutability": "nonpayable",
      "type": "function"
    }
  ],
  "bytecode": "0x60806040523480156200001157600080fd5b506040516200358d3803806200358d8339818101604052810190620000379190620000d8565b81600260006101000a81548173ffffffffffffffffffffffffffffffffffffffff021916908373ffffffffffffffffffffffffffffffffffffffff16021790555080600360006101000a81548173ffffffffffffffffffffffffffffffffffffffff021916908373ffffffffffffffffffffffffffffffffffffffff160217905550505062000167565b600081519050620000d2816200014d565b92915050565b60008060408385031215620000ec57600080fd5b6000620000fc85828601620000c1565b92505060206200010f85828601620000c1565b9150509250929050565b600062000126826200012d565b9050919050565b600073ffffffffffffffffffffffffffffffffffffffff82169050919050565b620001588162000119565b81146200016457600080fd5b50565b61341680620001776000396000f3fe608060405234801561001057600080fd5b50600436106100cf5760003560e01c8063a31899701161008c578063b1af1bda11610066578063b1af1bda146101ec578063be5d147f1461021c578063c5ddf0d314610238578063e64a97cf14610256576100cf565b8063a318997014610194578063a7cc5f79146101b2578063ab92b32a146101ce576100cf565b8063228d0129146100d45780632a59e53e146100f05780632e98613e14610120578063434cae611461013e57806362ff78a61461015a5780637eeafd3414610178575b600080fd5b6100ee60048036038101906100e9919061284c565b610274565b005b61010a600480360381019061010591906127a4565b6103aa565b6040516101179190612f1d565b60405180910390f35b61012861066f565b6040516101359190612e95565b60405180910390f35b61015860048036038101906101539190612875565b61095c565b005b610162610a89565b60405161016f9190612ed2565b60405180910390f35b610192600480360381019061018d91906127e5565b610aaf565b005b61019c610cd9565b6040516101a99190612e95565b60405180910390f35b6101cc60048036038101906101c7919061270f565b6111fa565b005b6101d66113d2565b6040516101e39190612e73565b60405180910390f35b6102066004803603810190610201919061284c565b611a79565b6040516102139190612f1d565b60405180910390f35b6102366004803603810190610231919061284c565b611cf3565b005b610240611e20565b60405161024d9190612e95565b60405180910390f35b61025e61227e565b60405161026b9190612eb7565b60405180910390f35b600060046000815481106102b1577f4e487b7100000000000000000000000000000000000000000000000000000000600052603260045260246000fd5b9060005260206000209060070201905060005b60005481101561037f578260048281548110610309577f4e487b7100000000000000000000000000000000000000000000000000000000600052603260045260246000fd5b906000526020600020906007020160000154141561036c576004818154811061035b577f4e487b7100000000000000000000000000000000000000000000000000000000600052603260045260246000fd5b906000526020600020906007020191505b8080610377906132e2565b9150506102c4565b5060018160060160156101000a81548160ff0219169083151502179055504281600401819055505050565b6103b26122a4565b60005b60005481101561066857826040516020016103d09190612e23565b6040516020818303038152906040528051906020012060048281548110610420577f4e487b7100000000000000000000000000000000000000000000000000000000600052603260045260246000fd5b90600052602060002090600702016001016040516020016104419190612e3a565b6040516020818303038152906040528051906020012014156106555760048181548110610497577f4e487b7100000000000000000000000000000000000000000000000000000000600052603260045260246000fd5b906000526020600020906007020160405180610120016040529081600082015481526020016001820180546104cb9061327f565b80601f01602080910402602001604051908101604052809291908181526020018280546104f79061327f565b80156105445780601f1061051957610100808354040283529160200191610544565b820191906000526020600020905b81548152906001019060200180831161052757829003601f168201915b505050505081526020016002820154815260200160038201548152602001600482015481526020016005820160009054906101000a900473ffffffffffffffffffffffffffffffffffffffff1673ffffffffffffffffffffffffffffffffffffffff1673ffffffffffffffffffffffffffffffffffffffff1681526020016006820160009054906101000a900473ffffffffffffffffffffffffffffffffffffffff1673ffffffffffffffffffffffffffffffffffffffff1673ffffffffffffffffffffffffffffffffffffffff1681526020016006820160149054906101000a900460ff161515151581526020016006820160159054906101000a900460ff16151515158152505091505061066a565b8080610660906132e2565b9150506103b5565b505b919050565b6060600080805467ffffffffffffffff8111156106b5577f4e487b7100000000000000000000000000000000000000000000000000000000600052604160045260246000fd5b6040519080825280602002602001820160405280156106ee57816020015b6106db6122a4565b8152602001906001900390816106d35790505b50905060005b6000548110156109535760048181548110610738577f4e487b7100000000000000000000000000000000000000000000000000000000600052603260045260246000fd5b9060005260206000209060070201604051806101200160405290816000820154815260200160018201805461076c9061327f565b80601f01602080910402602001604051908101604052809291908181526020018280546107989061327f565b80156107e55780601f106107ba576101008083540402835291602001916107e5565b820191906000526020600020905b8154815290600101906020018083116107c857829003601f168201915b505050505081526020016002820154815260200160038201548152602001600482015481526020016005820160009054906101000a900473ffffffffffffffffffffffffffffffffffffffff1673ffffffffffffffffffffffffffffffffffffffff1673ffffffffffffffffffffffffffffffffffffffff1681526020016006820160009054906101000a900473ffffffffffffffffffffffffffffffffffffffff1673ffffffffffffffffffffffffffffffffffffffff1673ffffffffffffffffffffffffffffffffffffffff1681526020016006820160149054906101000a900460ff161515151581526020016006820160159054906101000a900460ff161515151581525050828481518110610927577f4e487b7100000000000000000000000000000000000000000000000000000000600052603260045260246000fd5b6020026020010181905250828061093d906132e2565b935050808061094b906132e2565b9150506106f4565b50809250505090565b60006004600081548110610999577f4e487b7100000000000000000000000000000000000000000000000000000000600052603260045260246000fd5b9060005260206000209060070201905060005b600054811015610a675784600482815481106109f1577f4e487b7100000000000000000000000000000000000000000000000000000000600052603260045260246000fd5b9060005260206000209060070201600001541415610a545760048181548110610a43577f4e487b7100000000000000000000000000000000000000000000000000000000600052603260045260246000fd5b906000526020600020906007020191505b8080610a5f906132e2565b9150506109ac565b5082816002018190555081816003018190555042816004018190555050505050565b600360009054906101000a900473ffffffffffffffffffffffffffffffffffffffff1681565b60046040518061012001604052806000548152602001858152602001848152602001838152602001428152602001600073ffffffffffffffffffffffffffffffffffffffff1681526020013373ffffffffffffffffffffffffffffffffffffffff168152602001600015158152602001600115158152509080600181540180825580915050600190039060005260206000209060070201600090919091909150600082015181600001556020820151816001019080519060200190610b75929190612320565b5060408201518160020155606082015181600301556080820151816004015560a08201518160050160006101000a81548173ffffffffffffffffffffffffffffffffffffffff021916908373ffffffffffffffffffffffffffffffffffffffff16021790555060c08201518160060160006101000a81548173ffffffffffffffffffffffffffffffffffffffff021916908373ffffffffffffffffffffffffffffffffffffffff16021790555060e08201518160060160146101000a81548160ff0219169083151502179055506101008201518160060160156101000a81548160ff0219169083151502179055505050600080815480929190610c77906132e2565b91905055507f9d9699d67dcc808249be804683210dbc3d4d04b4625cfead4750f8aec40e22f76001600054610cac9190613179565b8484844260003360006001604051610ccc99989796959493929190612f3f565b60405180910390a1505050565b606060008060005b600054811015610dab573273ffffffffffffffffffffffffffffffffffffffff1660048281548110610d3c577f4e487b7100000000000000000000000000000000000000000000000000000000600052603260045260246000fd5b906000526020600020906007020160060160009054906101000a900473ffffffffffffffffffffffffffffffffffffffff1673ffffffffffffffffffffffffffffffffffffffff1614610d98578280610d94906132e2565b9350505b8080610da3906132e2565b915050610ce1565b5060008267ffffffffffffffff811115610dee577f4e487b7100000000000000000000000000000000000000000000000000000000600052604160045260246000fd5b604051908082528060200260200182016040528015610e2757816020015b610e146122a4565b815260200190600190039081610e0c5790505b50905060005b6000548110156111f0573273ffffffffffffffffffffffffffffffffffffffff1660048281548110610e88577f4e487b7100000000000000000000000000000000000000000000000000000000600052603260045260246000fd5b906000526020600020906007020160060160009054906101000a900473ffffffffffffffffffffffffffffffffffffffff1673ffffffffffffffffffffffffffffffffffffffff1614158015610f33575060048181548110610f13577f4e487b7100000000000000000000000000000000000000000000000000000000600052603260045260246000fd5b906000526020600020906007020160060160159054906101000a900460ff165b8015610f95575060048181548110610f74577f4e487b7100000000000000000000000000000000000000000000000000000000600052603260045260246000fd5b906000526020600020906007020160060160149054906101000a900460ff16155b156111dd5760048181548110610fd4577f4e487b7100000000000000000000000000000000000000000000000000000000600052603260045260246000fd5b906000526020600020906007020160405180610120016040529081600082015481526020016001820180546110089061327f565b80601f01602080910402602001604051908101604052809291908181526020018280546110349061327f565b80156110815780601f1061105657610100808354040283529160200191611081565b820191906000526020600020905b81548152906001019060200180831161106457829003601f168201915b505050505081526020016002820154815260200160038201548152602001600482015481526020016005820160009054906101000a900473ffffffffffffffffffffffffffffffffffffffff1673ffffffffffffffffffffffffffffffffffffffff1673ffffffffffffffffffffffffffffffffffffffff1681526020016006820160009054906101000a900473ffffffffffffffffffffffffffffffffffffffff1673ffffffffffffffffffffffffffffffffffffffff1673ffffffffffffffffffffffffffffffffffffffff1681526020016006820160149054906101000a900460ff161515151581526020016006820160159054906101000a900460ff1615151515815250508284815181106111c3577f4e487b7100000000000000000000000000000000000000000000000000000000600052603260045260246000fd5b602002602001018190525082806111d9906132e2565b9350505b80806111e8906132e2565b915050610e2d565b5080935050505090565b600360009054906101000a900473ffffffffffffffffffffffffffffffffffffffff1673ffffffffffffffffffffffffffffffffffffffff166351a39ede836040518263ffffffff1660e01b81526004016112559190612e51565b600060405180830381600087803b15801561126f57600080fd5b505af1158015611283573d6000803e3d6000fd5b50505050600060046000815481106112c4577f4e487b7100000000000000000000000000000000000000000000000000000000600052603260045260246000fd5b9060005260206000209060070201905060005b60005481101561139257826004828154811061131c577f4e487b7100000000000000000000000000000000000000000000000000000000600052603260045260246000fd5b906000526020600020906007020160000154141561137f576004818154811061136e577f4e487b7100000000000000000000000000000000000000000000000000000000600052603260045260246000fd5b906000526020600020906007020191505b808061138a906132e2565b9150506112d7565b5060018160060160146101000a81548160ff02191690831515021790555060008160060160156101000a81548160ff021916908315150217905550505050565b606060008060006113e161066f565b905060005b815181101561164f576000600260009054906101000a900473ffffffffffffffffffffffffffffffffffffffff1673ffffffffffffffffffffffffffffffffffffffff16638dc28966848481518110611468577f4e487b7100000000000000000000000000000000000000000000000000000000600052603260045260246000fd5b6020026020010151602001518585815181106114ad577f4e487b7100000000000000000000000000000000000000000000000000000000600052603260045260246000fd5b6020026020010151604001516040518363ffffffff1660e01b81526004016114d6929190612eed565b60006040518083038186803b1580156114ee57600080fd5b505afa158015611502573d6000803e3d6000fd5b505050506040513d6000823e3d601f19601f8201168201806040525081019061152b9190612763565b9050828281518110611566577f4e487b7100000000000000000000000000000000000000000000000000000000600052603260045260246000fd5b6020026020010151606001518151101580156115c457508282815181106115b6577f4e487b7100000000000000000000000000000000000000000000000000000000600052603260045260246000fd5b602002602001015161010001515b1561163b5760005b838381518110611605577f4e487b7100000000000000000000000000000000000000000000000000000000600052603260045260246000fd5b602002602001015160600151811015611639578480611623906132e2565b9550508080611631906132e2565b9150506115cc565b505b508080611647906132e2565b9150506113e6565b5060008267ffffffffffffffff811115611692577f4e487b7100000000000000000000000000000000000000000000000000000000600052604160045260246000fd5b6040519080825280602002602001820160405280156116cb57816020015b6116b86123a6565b8152602001906001900390816116b05790505b50905060005b8251811015611a6e576000600260009054906101000a900473ffffffffffffffffffffffffffffffffffffffff1673ffffffffffffffffffffffffffffffffffffffff16638dc28966858481518110611753577f4e487b7100000000000000000000000000000000000000000000000000000000600052603260045260246000fd5b602002602001015160200151868581518110611798577f4e487b7100000000000000000000000000000000000000000000000000000000600052603260045260246000fd5b6020026020010151604001516040518363ffffffff1660e01b81526004016117c1929190612eed565b60006040518083038186803b1580156117d957600080fd5b505afa1580156117ed573d6000803e3d6000fd5b505050506040513d6000823e3d601f19601f820116820180604052508101906118169190612763565b9050838281518110611851577f4e487b7100000000000000000000000000000000000000000000000000000000600052603260045260246000fd5b6020026020010151606001518151101580156118af57508382815181106118a1577f4e487b7100000000000000000000000000000000000000000000000000000000600052603260045260246000fd5b602002602001015161010001515b15611a5a5760005b8483815181106118f0577f4e487b7100000000000000000000000000000000000000000000000000000000600052603260045260246000fd5b602002602001015160600151811015611a58576040518060800160405280868581518110611947577f4e487b7100000000000000000000000000000000000000000000000000000000600052603260045260246000fd5b6020026020010151600001518152602001838381518110611991577f4e487b7100000000000000000000000000000000000000000000000000000000600052603260045260246000fd5b60200260200101516020015181526020018685815181106119db577f4e487b7100000000000000000000000000000000000000000000000000000000600052603260045260246000fd5b602002602001015160200151815260200160011515815250848881518110611a2c577f4e487b7100000000000000000000000000000000000000000000000000000000600052603260045260246000fd5b60200260200101819052508680611a42906132e2565b9750508080611a50906132e2565b9150506118b7565b505b508080611a66906132e2565b9150506116d1565b508094505050505090565b611a816122a4565b60005b600054811015611cec578260048281548110611ac9577f4e487b7100000000000000000000000000000000000000000000000000000000600052603260045260246000fd5b9060005260206000209060070201600001541415611cd95760048181548110611b1b577f4e487b7100000000000000000000000000000000000000000000000000000000600052603260045260246000fd5b90600052602060002090600702016040518061012001604052908160008201548152602001600182018054611b4f9061327f565b80601f0160208091040260200160405190810160405280929190818152602001828054611b7b9061327f565b8015611bc85780601f10611b9d57610100808354040283529160200191611bc8565b820191906000526020600020905b815481529060010190602001808311611bab57829003601f168201915b505050505081526020016002820154815260200160038201548152602001600482015481526020016005820160009054906101000a900473ffffffffffffffffffffffffffffffffffffffff1673ffffffffffffffffffffffffffffffffffffffff1673ffffffffffffffffffffffffffffffffffffffff1681526020016006820160009054906101000a900473ffffffffffffffffffffffffffffffffffffffff1673ffffffffffffffffffffffffffffffffffffffff1673ffffffffffffffffffffffffffffffffffffffff1681526020016006820160149054906101000a900460ff161515151581526020016006820160159054906101000a900460ff161515151581525050915050611cee565b8080611ce4906132e2565b915050611a84565b505b919050565b60006004600081548110611d30577f4e487b7100000000000000000000000000000000000000000000000000000000600052603260045260246000fd5b9060005260206000209060070201905060005b600054811015611dfe578260048281548110611d88577f4e487b7100000000000000000000000000000000000000000000000000000000600052603260045260246000fd5b9060005260206000209060070201600001541415611deb5760048181548110611dda577f4e487b7100000000000000000000000000000000000000000000000000000000600052603260045260246000fd5b906000526020600020906007020191505b8080611df6906132e2565b915050611d43565b5060008160060160156101000a81548160ff0219169083151502179055505050565b606060008060005b600054811015611ef3573273ffffffffffffffffffffffffffffffffffffffff1660048281548110611e83577f4e487b7100000000000000000000000000000000000000000000000000000000600052603260045260246000fd5b906000526020600020906007020160060160009054906101000a900473ffffffffffffffffffffffffffffffffffffffff1673ffffffffffffffffffffffffffffffffffffffff161415611ee0578280611edc906132e2565b9350505b8080611eeb906132e2565b915050611e28565b5060008267ffffffffffffffff811115611f36577f4e487b7100000000000000000000000000000000000000000000000000000000600052604160045260246000fd5b604051908082528060200260200182016040528015611f6f57816020015b611f5c6122a4565b815260200190600190039081611f545790505b50905060005b600054811015612274573273ffffffffffffffffffffffffffffffffffffffff1660048281548110611fd0577f4e487b7100000000000000000000000000000000000000000000000000000000600052603260045260246000fd5b906000526020600020906007020160060160009054906101000a900473ffffffffffffffffffffffffffffffffffffffff1673ffffffffffffffffffffffffffffffffffffffff1614156122615760048181548110612058577f4e487b7100000000000000000000000000000000000000000000000000000000600052603260045260246000fd5b9060005260206000209060070201604051806101200160405290816000820154815260200160018201805461208c9061327f565b80601f01602080910402602001604051908101604052809291908181526020018280546120b89061327f565b80156121055780601f106120da57610100808354040283529160200191612105565b820191906000526020600020905b8154815290600101906020018083116120e857829003601f168201915b505050505081526020016002820154815260200160038201548152602001600482015481526020016005820160009054906101000a900473ffffffffffffffffffffffffffffffffffffffff1673ffffffffffffffffffffffffffffffffffffffff1673ffffffffffffffffffffffffffffffffffffffff1681526020016006820160009054906101000a900473ffffffffffffffffffffffffffffffffffffffff1673ffffffffffffffffffffffffffffffffffffffff1673ffffffffffffffffffffffffffffffffffffffff1681526020016006820160149054906101000a900460ff161515151581526020016006820160159054906101000a900460ff161515151581525050828481518110612247577f4e487b7100000000000000000000000000000000000000000000000000000000600052603260045260246000fd5b6020026020010181905250828061225d906132e2565b9350505b808061226c906132e2565b915050611f75565b5080935050505090565b600260009054906101000a900473ffffffffffffffffffffffffffffffffffffffff1681565b6040518061012001604052806000815260200160608152602001600081526020016000815260200160008152602001600073ffffffffffffffffffffffffffffffffffffffff168152602001600073ffffffffffffffffffffffffffffffffffffffff1681526020016000151581526020016000151581525090565b82805461232c9061327f565b90600052602060002090601f01602090048101928261234e5760008555612395565b82601f1061236757805160ff1916838001178555612395565b82800160010185558215612395579182015b82811115612394578251825591602001919060010190612379565b5b5090506123a291906123d0565b5090565b60405180608001604052806000815260200160008152602001606081526020016000151581525090565b5b808211156123e95760008160009055506001016123d1565b5090565b60006124006123fb84612ff8565b612fd3565b9050808382526020820190508285602086028201111561241f57600080fd5b60005b8581101561246957813567ffffffffffffffff81111561244157600080fd5b80860161244e898261261d565b85526020850194506020840193505050600181019050612422565b5050509392505050565b600061248661248184613024565b612fd3565b905080838252602082019050828560208602820111156124a557600080fd5b60005b858110156124ef57815167ffffffffffffffff8111156124c757600080fd5b8086016124d48982612681565b855260208501945060208401935050506001810190506124a8565b5050509392505050565b600061250c61250784613050565b612fd3565b90508281526020810184848401111561252457600080fd5b61252f84828561323d565b509392505050565b600061254a61254584613050565b612fd3565b90508281526020810184848401111561256257600080fd5b61256d84828561324c565b509392505050565b600082601f83011261258657600080fd5b81356125968482602086016123ed565b91505092915050565b600082601f8301126125b057600080fd5b81516125c0848260208601612473565b91505092915050565b600082601f8301126125da57600080fd5b81356125ea8482602086016124f9565b91505092915050565b600082601f83011261260457600080fd5b8151612614848260208601612537565b91505092915050565b60006040828403121561262f57600080fd5b6126396040612fd3565b9050600082013567ffffffffffffffff81111561265557600080fd5b612661848285016125c9565b6000830152506020612675848285016126e5565b60208301525092915050565b60006040828403121561269357600080fd5b61269d6040612fd3565b9050600082015167ffffffffffffffff8111156126b957600080fd5b6126c5848285016125f3565b60008301525060206126d9848285016126fa565b60208301525092915050565b6000813590506126f4816133c9565b92915050565b600081519050612709816133c9565b92915050565b6000806040838503121561272257600080fd5b600083013567ffffffffffffffff81111561273c57600080fd5b61274885828601612575565b9250506020612759858286016126e5565b9150509250929050565b60006020828403121561277557600080fd5b600082015167ffffffffffffffff81111561278f57600080fd5b61279b8482850161259f565b91505092915050565b6000602082840312156127b657600080fd5b600082013567ffffffffffffffff8111156127d057600080fd5b6127dc848285016125c9565b91505092915050565b6000806000606084860312156127fa57600080fd5b600084013567ffffffffffffffff81111561281457600080fd5b612820868287016125c9565b9350506020612831868287016126e5565b9250506040612842868287016126e5565b9150509250925092565b60006020828403121561285e57600080fd5b600061286c848285016126e5565b91505092915050565b60008060006060848603121561288a57600080fd5b6000612898868287016126e5565b93505060206128a9868287016126e5565b92505060406128ba868287016126e5565b9150509250925092565b60006128d08383612bdb565b905092915050565b60006128e48383612c18565b905092915050565b60006128f88383612c7b565b905092915050565b612909816131ad565b82525050565b612918816131ad565b82525050565b6000612929826130c6565b6129338185613119565b93508360208202850161294585613081565b8060005b85811015612981578484038952815161296285826128c4565b945061296d836130f2565b925060208a01995050600181019050612949565b50829750879550505050505092915050565b600061299e826130d1565b6129a8818561312a565b9350836020820285016129ba85613091565b8060005b858110156129f657848403895281516129d785826128d8565b94506129e2836130ff565b925060208a019950506001810190506129be565b50829750879550505050505092915050565b6000612a13826130dc565b612a1d818561313b565b935083602082028501612a2f856130a1565b8060005b85811015612a6b5784840389528151612a4c85826128ec565b9450612a578361310c565b925060208a01995050600181019050612a33565b50829750879550505050505092915050565b612a86816131bf565b82525050565b612a95816131bf565b82525050565b612aa4816131f5565b82525050565b612ab381613219565b82525050565b6000612ac4826130e7565b612ace818561314c565b9350612ade81856020860161324c565b612ae7816133b8565b840191505092915050565b6000612afd826130e7565b612b07818561315d565b9350612b1781856020860161324c565b612b20816133b8565b840191505092915050565b6000612b36826130e7565b612b40818561316e565b9350612b5081856020860161324c565b80840191505092915050565b60008154612b698161327f565b612b73818661316e565b94506001821660008114612b8e5760018114612b9f57612bd2565b60ff19831686528186019350612bd2565b612ba8856130b1565b60005b83811015612bca57815481890152600182019150602081019050612bab565b838801955050505b50505092915050565b60006040830160008301518482036000860152612bf88282612ab9565b9150506020830151612c0d6020860182612e05565b508091505092915050565b6000608083016000830151612c306000860182612e05565b506020830151612c436020860182612e05565b5060408301518482036040860152612c5b8282612ab9565b9150506060830151612c706060860182612a7d565b508091505092915050565b600061012083016000830151612c946000860182612e05565b5060208301518482036020860152612cac8282612ab9565b9150506040830151612cc16040860182612e05565b506060830151612cd46060860182612e05565b506080830151612ce76080860182612e05565b5060a0830151612cfa60a0860182612900565b5060c0830151612d0d60c0860182612900565b5060e0830151612d2060e0860182612a7d565b50610100830151612d35610100860182612a7d565b508091505092915050565b600061012083016000830151612d596000860182612e05565b5060208301518482036020860152612d718282612ab9565b9150506040830151612d866040860182612e05565b506060830151612d996060860182612e05565b506080830151612dac6080860182612e05565b5060a0830151612dbf60a0860182612900565b5060c0830151612dd260c0860182612900565b5060e0830151612de560e0860182612a7d565b50610100830151612dfa610100860182612a7d565b508091505092915050565b612e0e816131eb565b82525050565b612e1d816131eb565b82525050565b6000612e2f8284612b2b565b915081905092915050565b6000612e468284612b5c565b915081905092915050565b60006020820190508181036000830152612e6b818461291e565b905092915050565b60006020820190508181036000830152612e8d8184612993565b905092915050565b60006020820190508181036000830152612eaf8184612a08565b905092915050565b6000602082019050612ecc6000830184612a9b565b92915050565b6000602082019050612ee76000830184612aaa565b92915050565b60006040820190508181036000830152612f078185612af2565b9050612f166020830184612e14565b9392505050565b60006020820190508181036000830152612f378184612d40565b905092915050565b600061012082019050612f55600083018c612e14565b8181036020830152612f67818b612af2565b9050612f76604083018a612e14565b612f836060830189612e14565b612f906080830188612e14565b612f9d60a083018761290f565b612faa60c083018661290f565b612fb760e0830185612a8c565b612fc5610100830184612a8c565b9a9950505050505050505050565b6000612fdd612fee565b9050612fe982826132b1565b919050565b6000604051905090565b600067ffffffffffffffff82111561301357613012613389565b5b602082029050602081019050919050565b600067ffffffffffffffff82111561303f5761303e613389565b5b602082029050602081019050919050565b600067ffffffffffffffff82111561306b5761306a613389565b5b613074826133b8565b9050602081019050919050565b6000819050602082019050919050565b6000819050602082019050919050565b6000819050602082019050919050565b60008190508160005260206000209050919050565b600081519050919050565b600081519050919050565b600081519050919050565b600081519050919050565b6000602082019050919050565b6000602082019050919050565b6000602082019050919050565b600082825260208201905092915050565b600082825260208201905092915050565b600082825260208201905092915050565b600082825260208201905092915050565b600082825260208201905092915050565b600081905092915050565b6000613184826131eb565b915061318f836131eb565b9250828210156131a2576131a161332b565b5b828203905092915050565b60006131b8826131cb565b9050919050565b60008115159050919050565b600073ffffffffffffffffffffffffffffffffffffffff82169050919050565b6000819050919050565b600061320082613207565b9050919050565b6000613212826131cb565b9050919050565b60006132248261322b565b9050919050565b6000613236826131cb565b9050919050565b82818337600083830152505050565b60005b8381101561326a57808201518184015260208101905061324f565b83811115613279576000848401525b50505050565b6000600282049050600182168061329757607f821691505b602082108114156132ab576132aa61335a565b5b50919050565b6132ba826133b8565b810181811067ffffffffffffffff821117156132d9576132d8613389565b5b80604052505050565b60006132ed826131eb565b91507fffffffffffffffffffffffffffffffffffffffffffffffffffffffffffffffff8214156133205761331f61332b565b5b600182019050919050565b7f4e487b7100000000000000000000000000000000000000000000000000000000600052601160045260246000fd5b7f4e487b7100000000000000000000000000000000000000000000000000000000600052602260045260246000fd5b7f4e487b7100000000000000000000000000000000000000000000000000000000600052604160045260246000fd5b6000601f19601f8301169050919050565b6133d2816131eb565b81146133dd57600080fd5b5056fea264697066735822122071388c7e88cc28f953cdedc1a57dcb74cec0885aab791153e14719364852fc9b64736f6c63430008040033",
  "linkReferences": {},
  "deployedLinkReferences": {}
}