{
  "_format": "hh-sol-artifact-1",
  "contractName": "OrderContract",
  "sourceName": "contracts/Order.sol",
  "abi": [
    {
      "inputs": [
        {
          "internalType": "address",
          "name": "_AssetContract",
          "type": "address"
        }
      ],
      "stateMutability": "nonpayable",
      "type": "constructor"
    },
    {
      "anonymous": false,
      "inputs": [
        {
          "indexed": false,
          "internalType": "uint256",
          "name": "id",
          "type": "uint256"
        },
        {
          "indexed": false,
          "internalType": "string",
          "name": "company_id",
          "type": "string"
        },
        {
          "indexed": false,
          "internalType": "uint256",
          "name": "price",
          "type": "uint256"
        },
        {
          "indexed": false,
          "internalType": "uint256",
          "name": "quantity",
          "type": "uint256"
        },
        {
          "indexed": false,
          "internalType": "uint256",
          "name": "timestamp",
          "type": "uint256"
        },
        {
          "indexed": false,
          "internalType": "address",
          "name": "seller",
          "type": "address"
        },
        {
          "indexed": false,
          "internalType": "address",
          "name": "buyer",
          "type": "address"
        },
        {
          "indexed": false,
          "internalType": "bool",
          "name": "isFullfield",
          "type": "bool"
        }
      ],
      "name": "BuyOrder",
      "type": "event"
    },
    {
      "anonymous": false,
      "inputs": [
        {
          "indexed": false,
          "internalType": "uint256",
          "name": "id",
          "type": "uint256"
        },
        {
          "indexed": false,
          "internalType": "string",
          "name": "company_id",
          "type": "string"
        },
        {
          "indexed": false,
          "internalType": "uint256",
          "name": "price",
          "type": "uint256"
        },
        {
          "indexed": false,
          "internalType": "uint256",
          "name": "quantity",
          "type": "uint256"
        },
        {
          "indexed": false,
          "internalType": "uint256",
          "name": "timestamp",
          "type": "uint256"
        },
        {
          "indexed": false,
          "internalType": "address",
          "name": "seller",
          "type": "address"
        },
        {
          "indexed": false,
          "internalType": "address",
          "name": "buyer",
          "type": "address"
        },
        {
          "indexed": false,
          "internalType": "bool",
          "name": "isFullfield",
          "type": "bool"
        }
      ],
      "name": "SellOrder",
      "type": "event"
    },
    {
      "inputs": [],
      "name": "_assetContract",
      "outputs": [
        {
          "internalType": "contract AssetContract",
          "name": "",
          "type": "address"
        }
      ],
      "stateMutability": "view",
      "type": "function"
    },
    {
      "inputs": [
        {
          "internalType": "string",
          "name": "company_id",
          "type": "string"
        },
        {
          "internalType": "uint256",
          "name": "price",
          "type": "uint256"
        },
        {
          "internalType": "uint256",
          "name": "quantity",
          "type": "uint256"
        }
      ],
      "name": "createBuyOrder",
      "outputs": [],
      "stateMutability": "nonpayable",
      "type": "function"
    },
    {
      "inputs": [
        {
          "internalType": "string",
          "name": "company_id",
          "type": "string"
        },
        {
          "internalType": "uint256",
          "name": "price",
          "type": "uint256"
        },
        {
          "internalType": "uint256",
          "name": "quantity",
          "type": "uint256"
        }
      ],
      "name": "createSellOrder",
      "outputs": [],
      "stateMutability": "nonpayable",
      "type": "function"
    },
    {
      "inputs": [],
      "name": "getAllBuyOrders",
      "outputs": [
        {
          "components": [
            {
              "internalType": "uint256",
              "name": "id",
              "type": "uint256"
            },
            {
              "internalType": "string",
              "name": "company_id",
              "type": "string"
            },
            {
              "internalType": "uint256",
              "name": "price",
              "type": "uint256"
            },
            {
              "internalType": "uint256",
              "name": "quantity",
              "type": "uint256"
            },
            {
              "internalType": "uint256",
              "name": "timestamp",
              "type": "uint256"
            },
            {
              "internalType": "address",
              "name": "seller",
              "type": "address"
            },
            {
              "internalType": "address",
              "name": "buyer",
              "type": "address"
            },
            {
              "internalType": "bool",
              "name": "isFullfield",
              "type": "bool"
            }
          ],
          "internalType": "struct OrderContract.Order[]",
          "name": "",
          "type": "tuple[]"
        }
      ],
      "stateMutability": "view",
      "type": "function"
    },
    {
      "inputs": [],
      "name": "getAllSellOrders",
      "outputs": [
        {
          "components": [
            {
              "internalType": "uint256",
              "name": "id",
              "type": "uint256"
            },
            {
              "internalType": "string",
              "name": "company_id",
              "type": "string"
            },
            {
              "internalType": "uint256",
              "name": "price",
              "type": "uint256"
            },
            {
              "internalType": "uint256",
              "name": "quantity",
              "type": "uint256"
            },
            {
              "internalType": "uint256",
              "name": "timestamp",
              "type": "uint256"
            },
            {
              "internalType": "address",
              "name": "seller",
              "type": "address"
            },
            {
              "internalType": "address",
              "name": "buyer",
              "type": "address"
            },
            {
              "internalType": "bool",
              "name": "isFullfield",
              "type": "bool"
            }
          ],
          "internalType": "struct OrderContract.Order[]",
          "name": "",
          "type": "tuple[]"
        }
      ],
      "stateMutability": "view",
      "type": "function"
    },
    {
      "inputs": [
        {
          "internalType": "uint256",
          "name": "_id",
          "type": "uint256"
        }
      ],
      "name": "getBuyOrder",
      "outputs": [
        {
          "components": [
            {
              "internalType": "uint256",
              "name": "id",
              "type": "uint256"
            },
            {
              "internalType": "string",
              "name": "company_id",
              "type": "string"
            },
            {
              "internalType": "uint256",
              "name": "price",
              "type": "uint256"
            },
            {
              "internalType": "uint256",
              "name": "quantity",
              "type": "uint256"
            },
            {
              "internalType": "uint256",
              "name": "timestamp",
              "type": "uint256"
            },
            {
              "internalType": "address",
              "name": "seller",
              "type": "address"
            },
            {
              "internalType": "address",
              "name": "buyer",
              "type": "address"
            },
            {
              "internalType": "bool",
              "name": "isFullfield",
              "type": "bool"
            }
          ],
          "internalType": "struct OrderContract.Order",
          "name": "",
          "type": "tuple"
        }
      ],
      "stateMutability": "view",
      "type": "function"
    },
    {
      "inputs": [
        {
          "internalType": "string",
          "name": "_company_id",
          "type": "string"
        }
      ],
      "name": "getCurrentCompanyBuyOrder",
      "outputs": [
        {
          "components": [
            {
              "internalType": "uint256",
              "name": "id",
              "type": "uint256"
            },
            {
              "internalType": "string",
              "name": "company_id",
              "type": "string"
            },
            {
              "internalType": "uint256",
              "name": "price",
              "type": "uint256"
            },
            {
              "internalType": "uint256",
              "name": "quantity",
              "type": "uint256"
            },
            {
              "internalType": "uint256",
              "name": "timestamp",
              "type": "uint256"
            },
            {
              "internalType": "address",
              "name": "seller",
              "type": "address"
            },
            {
              "internalType": "address",
              "name": "buyer",
              "type": "address"
            },
            {
              "internalType": "bool",
              "name": "isFullfield",
              "type": "bool"
            }
          ],
          "internalType": "struct OrderContract.Order",
          "name": "",
          "type": "tuple"
        }
      ],
      "stateMutability": "view",
      "type": "function"
    },
    {
      "inputs": [],
      "name": "getMarketBuyOrders",
      "outputs": [
        {
          "components": [
            {
              "internalType": "uint256",
              "name": "id",
              "type": "uint256"
            },
            {
              "internalType": "string",
              "name": "company_id",
              "type": "string"
            },
            {
              "internalType": "uint256",
              "name": "price",
              "type": "uint256"
            },
            {
              "internalType": "uint256",
              "name": "quantity",
              "type": "uint256"
            },
            {
              "internalType": "uint256",
              "name": "timestamp",
              "type": "uint256"
            },
            {
              "internalType": "address",
              "name": "seller",
              "type": "address"
            },
            {
              "internalType": "address",
              "name": "buyer",
              "type": "address"
            },
            {
              "internalType": "bool",
              "name": "isFullfield",
              "type": "bool"
            }
          ],
          "internalType": "struct OrderContract.Order[]",
          "name": "",
          "type": "tuple[]"
        }
      ],
      "stateMutability": "view",
      "type": "function"
    },
    {
      "inputs": [],
      "name": "getMarketSellOrders",
      "outputs": [
        {
          "components": [
            {
              "internalType": "uint256",
              "name": "id",
              "type": "uint256"
            },
            {
              "internalType": "string",
              "name": "company_id",
              "type": "string"
            },
            {
              "internalType": "uint256",
              "name": "price",
              "type": "uint256"
            },
            {
              "internalType": "uint256",
              "name": "quantity",
              "type": "uint256"
            },
            {
              "internalType": "uint256",
              "name": "timestamp",
              "type": "uint256"
            },
            {
              "internalType": "address",
              "name": "seller",
              "type": "address"
            },
            {
              "internalType": "address",
              "name": "buyer",
              "type": "address"
            },
            {
              "internalType": "bool",
              "name": "isFullfield",
              "type": "bool"
            }
          ],
          "internalType": "struct OrderContract.Order[]",
          "name": "",
          "type": "tuple[]"
        }
      ],
      "stateMutability": "view",
      "type": "function"
    },
    {
      "inputs": [],
      "name": "getReadyBuyOrders",
      "outputs": [
        {
          "components": [
            {
              "internalType": "uint256",
              "name": "order_id",
              "type": "uint256"
            },
            {
              "internalType": "uint256",
              "name": "asset_id",
              "type": "uint256"
            },
            {
              "internalType": "string",
              "name": "company_id",
              "type": "string"
            },
            {
              "internalType": "bool",
              "name": "isBuyOrder",
              "type": "bool"
            }
          ],
          "internalType": "struct OrderContract.OrderAssets[]",
          "name": "",
          "type": "tuple[]"
        }
      ],
      "stateMutability": "view",
      "type": "function"
    },
    {
      "inputs": [
        {
          "internalType": "uint256",
          "name": "_id",
          "type": "uint256"
        }
      ],
      "name": "getSellOrder",
      "outputs": [
        {
          "components": [
            {
              "internalType": "uint256",
              "name": "id",
              "type": "uint256"
            },
            {
              "internalType": "string",
              "name": "company_id",
              "type": "string"
            },
            {
              "internalType": "uint256",
              "name": "price",
              "type": "uint256"
            },
            {
              "internalType": "uint256",
              "name": "quantity",
              "type": "uint256"
            },
            {
              "internalType": "uint256",
              "name": "timestamp",
              "type": "uint256"
            },
            {
              "internalType": "address",
              "name": "seller",
              "type": "address"
            },
            {
              "internalType": "address",
              "name": "buyer",
              "type": "address"
            },
            {
              "internalType": "bool",
              "name": "isFullfield",
              "type": "bool"
            }
          ],
          "internalType": "struct OrderContract.Order",
          "name": "",
          "type": "tuple"
        }
      ],
      "stateMutability": "view",
      "type": "function"
    }
  ],
  "bytecode": "0x60806040523480156200001157600080fd5b50604051620030dc380380620030dc833981810160405281019062000037919062000096565b80600260006101000a81548173ffffffffffffffffffffffffffffffffffffffff021916908373ffffffffffffffffffffffffffffffffffffffff1602179055505062000110565b6000815190506200009081620000f6565b92915050565b600060208284031215620000a957600080fd5b6000620000b9848285016200007f565b91505092915050565b6000620000cf82620000d6565b9050919050565b600073ffffffffffffffffffffffffffffffffffffffff82169050919050565b6200010181620000c2565b81146200010d57600080fd5b50565b612fbc80620001206000396000f3fe608060405234801561001057600080fd5b50600436106100a95760003560e01c8063a318997011610071578063a318997014610166578063ab92b32a14610184578063b1af1bda146101a2578063e1a8e595146101d2578063e64a97cf146101ee578063ef6e73891461020c576100a9565b80632a59e53e146100ae5780632e98613e146100de578063390ce0d3146100fc578063730412e81461012c5780637eeafd341461014a575b600080fd5b6100c860048036038101906100c3919061256d565b61022a565b6040516100d59190612b5b565b60405180910390f35b6100e66104d4565b6040516100f39190612aee565b60405180910390f35b61011660048036038101906101119190612615565b6107a6565b6040516101239190612b5b565b60405180910390f35b610134610a05565b6040516101419190612aee565b60405180910390f35b610164600480360381019061015f91906125ae565b610cd7565b005b61016e610ed4565b60405161017b9190612aee565b60405180910390f35b61018c611315565b6040516101999190612acc565b60405180910390f35b6101bc60048036038101906101b79190612615565b61191c565b6040516101c99190612b5b565b60405180910390f35b6101ec60048036038101906101e791906125ae565b611b7b565b005b6101f6611d77565b6040516102039190612b10565b60405180910390f35b610214611d9d565b6040516102219190612aee565b60405180910390f35b6102326121de565b60005b6000548110156104cd57826040516020016102509190612a9e565b60405160208183030381529060405280519060200120600382815481106102a0577f4e487b7100000000000000000000000000000000000000000000000000000000600052603260045260246000fd5b90600052602060002090600702016001016040516020016102c19190612ab5565b6040516020818303038152906040528051906020012014156104ba5760038181548110610317577f4e487b7100000000000000000000000000000000000000000000000000000000600052603260045260246000fd5b9060005260206000209060070201604051806101000160405290816000820154815260200160018201805461034b90612e25565b80601f016020809104026020016040519081016040528092919081815260200182805461037790612e25565b80156103c45780601f10610399576101008083540402835291602001916103c4565b820191906000526020600020905b8154815290600101906020018083116103a757829003601f168201915b505050505081526020016002820154815260200160038201548152602001600482015481526020016005820160009054906101000a900473ffffffffffffffffffffffffffffffffffffffff1673ffffffffffffffffffffffffffffffffffffffff1673ffffffffffffffffffffffffffffffffffffffff1681526020016006820160009054906101000a900473ffffffffffffffffffffffffffffffffffffffff1673ffffffffffffffffffffffffffffffffffffffff1673ffffffffffffffffffffffffffffffffffffffff1681526020016006820160149054906101000a900460ff1615151515815250509150506104cf565b80806104c590612e88565b915050610235565b505b919050565b6060600080805467ffffffffffffffff81111561051a577f4e487b7100000000000000000000000000000000000000000000000000000000600052604160045260246000fd5b60405190808252806020026020018201604052801561055357816020015b6105406121de565b8152602001906001900390816105385790505b50905060005b60005481101561079d576003818154811061059d577f4e487b7100000000000000000000000000000000000000000000000000000000600052603260045260246000fd5b906000526020600020906007020160405180610100016040529081600082015481526020016001820180546105d190612e25565b80601f01602080910402602001604051908101604052809291908181526020018280546105fd90612e25565b801561064a5780601f1061061f5761010080835404028352916020019161064a565b820191906000526020600020905b81548152906001019060200180831161062d57829003601f168201915b505050505081526020016002820154815260200160038201548152602001600482015481526020016005820160009054906101000a900473ffffffffffffffffffffffffffffffffffffffff1673ffffffffffffffffffffffffffffffffffffffff1673ffffffffffffffffffffffffffffffffffffffff1681526020016006820160009054906101000a900473ffffffffffffffffffffffffffffffffffffffff1673ffffffffffffffffffffffffffffffffffffffff1673ffffffffffffffffffffffffffffffffffffffff1681526020016006820160149054906101000a900460ff161515151581525050828481518110610771577f4e487b7100000000000000000000000000000000000000000000000000000000600052603260045260246000fd5b6020026020010181905250828061078790612e88565b935050808061079590612e88565b915050610559565b50809250505090565b6107ae6121de565b60005b6001548110156109fe5782600482815481106107f6577f4e487b7100000000000000000000000000000000000000000000000000000000600052603260045260246000fd5b90600052602060002090600702016000015414156109eb5760048181548110610848577f4e487b7100000000000000000000000000000000000000000000000000000000600052603260045260246000fd5b9060005260206000209060070201604051806101000160405290816000820154815260200160018201805461087c90612e25565b80601f01602080910402602001604051908101604052809291908181526020018280546108a890612e25565b80156108f55780601f106108ca576101008083540402835291602001916108f5565b820191906000526020600020905b8154815290600101906020018083116108d857829003601f168201915b505050505081526020016002820154815260200160038201548152602001600482015481526020016005820160009054906101000a900473ffffffffffffffffffffffffffffffffffffffff1673ffffffffffffffffffffffffffffffffffffffff1673ffffffffffffffffffffffffffffffffffffffff1681526020016006820160009054906101000a900473ffffffffffffffffffffffffffffffffffffffff1673ffffffffffffffffffffffffffffffffffffffff1673ffffffffffffffffffffffffffffffffffffffff1681526020016006820160149054906101000a900460ff161515151581525050915050610a00565b80806109f690612e88565b9150506107b1565b505b919050565b6060600080805467ffffffffffffffff811115610a4b577f4e487b7100000000000000000000000000000000000000000000000000000000600052604160045260246000fd5b604051908082528060200260200182016040528015610a8457816020015b610a716121de565b815260200190600190039081610a695790505b50905060005b600154811015610cce5760048181548110610ace577f4e487b7100000000000000000000000000000000000000000000000000000000600052603260045260246000fd5b90600052602060002090600702016040518061010001604052908160008201548152602001600182018054610b0290612e25565b80601f0160208091040260200160405190810160405280929190818152602001828054610b2e90612e25565b8015610b7b5780601f10610b5057610100808354040283529160200191610b7b565b820191906000526020600020905b815481529060010190602001808311610b5e57829003601f168201915b505050505081526020016002820154815260200160038201548152602001600482015481526020016005820160009054906101000a900473ffffffffffffffffffffffffffffffffffffffff1673ffffffffffffffffffffffffffffffffffffffff1673ffffffffffffffffffffffffffffffffffffffff1681526020016006820160009054906101000a900473ffffffffffffffffffffffffffffffffffffffff1673ffffffffffffffffffffffffffffffffffffffff1673ffffffffffffffffffffffffffffffffffffffff1681526020016006820160149054906101000a900460ff161515151581525050828481518110610ca2577f4e487b7100000000000000000000000000000000000000000000000000000000600052603260045260246000fd5b60200260200101819052508280610cb890612e88565b9350508080610cc690612e88565b915050610a8a565b50809250505090565b60036040518061010001604052806000548152602001858152602001848152602001838152602001428152602001600073ffffffffffffffffffffffffffffffffffffffff1681526020013373ffffffffffffffffffffffffffffffffffffffff168152602001600015158152509080600181540180825580915050600190039060005260206000209060070201600090919091909150600082015181600001556020820151816001019080519060200190610d94929190612251565b5060408201518160020155606082015181600301556080820151816004015560a08201518160050160006101000a81548173ffffffffffffffffffffffffffffffffffffffff021916908373ffffffffffffffffffffffffffffffffffffffff16021790555060c08201518160060160006101000a81548173ffffffffffffffffffffffffffffffffffffffff021916908373ffffffffffffffffffffffffffffffffffffffff16021790555060e08201518160060160146101000a81548160ff0219169083151502179055505050600080815480929190610e7590612e88565b91905055507f23972ca93473282728158a3be07109f16d6944be14cfd432fe2035dd4e486a4c6001600054610eaa9190612d43565b848484426000336000604051610ec7989796959493929190612b7d565b60405180910390a1505050565b606060008060005b600054811015610fa6573273ffffffffffffffffffffffffffffffffffffffff1660038281548110610f37577f4e487b7100000000000000000000000000000000000000000000000000000000600052603260045260246000fd5b906000526020600020906007020160060160009054906101000a900473ffffffffffffffffffffffffffffffffffffffff1673ffffffffffffffffffffffffffffffffffffffff1614610f93578280610f8f90612e88565b9350505b8080610f9e90612e88565b915050610edc565b5060008267ffffffffffffffff811115610fe9577f4e487b7100000000000000000000000000000000000000000000000000000000600052604160045260246000fd5b60405190808252806020026020018201604052801561102257816020015b61100f6121de565b8152602001906001900390816110075790505b50905060005b60005481101561130b573273ffffffffffffffffffffffffffffffffffffffff1660038281548110611083577f4e487b7100000000000000000000000000000000000000000000000000000000600052603260045260246000fd5b906000526020600020906007020160060160009054906101000a900473ffffffffffffffffffffffffffffffffffffffff1673ffffffffffffffffffffffffffffffffffffffff16146112f8576003818154811061110a577f4e487b7100000000000000000000000000000000000000000000000000000000600052603260045260246000fd5b9060005260206000209060070201604051806101000160405290816000820154815260200160018201805461113e90612e25565b80601f016020809104026020016040519081016040528092919081815260200182805461116a90612e25565b80156111b75780601f1061118c576101008083540402835291602001916111b7565b820191906000526020600020905b81548152906001019060200180831161119a57829003601f168201915b505050505081526020016002820154815260200160038201548152602001600482015481526020016005820160009054906101000a900473ffffffffffffffffffffffffffffffffffffffff1673ffffffffffffffffffffffffffffffffffffffff1673ffffffffffffffffffffffffffffffffffffffff1681526020016006820160009054906101000a900473ffffffffffffffffffffffffffffffffffffffff1673ffffffffffffffffffffffffffffffffffffffff1673ffffffffffffffffffffffffffffffffffffffff1681526020016006820160149054906101000a900460ff1615151515815250508284815181106112de577f4e487b7100000000000000000000000000000000000000000000000000000000600052603260045260246000fd5b602002602001018190525082806112f490612e88565b9350505b808061130390612e88565b915050611028565b5080935050505090565b606060008060006113246104d4565b905060005b8151811015611542576000600260009054906101000a900473ffffffffffffffffffffffffffffffffffffffff1673ffffffffffffffffffffffffffffffffffffffff16638dc289668484815181106113ab577f4e487b7100000000000000000000000000000000000000000000000000000000600052603260045260246000fd5b6020026020010151602001518585815181106113f0577f4e487b7100000000000000000000000000000000000000000000000000000000600052603260045260246000fd5b6020026020010151604001516040518363ffffffff1660e01b8152600401611419929190612b2b565b60006040518083038186803b15801561143157600080fd5b505afa158015611445573d6000803e3d6000fd5b505050506040513d6000823e3d601f19601f8201168201806040525081019061146e919061252c565b90508282815181106114a9577f4e487b7100000000000000000000000000000000000000000000000000000000600052603260045260246000fd5b60200260200101516060015181511061152e5760005b8383815181106114f8577f4e487b7100000000000000000000000000000000000000000000000000000000600052603260045260246000fd5b60200260200101516060015181101561152c57848061151690612e88565b955050808061152490612e88565b9150506114bf565b505b50808061153a90612e88565b915050611329565b5060008267ffffffffffffffff811115611585577f4e487b7100000000000000000000000000000000000000000000000000000000600052604160045260246000fd5b6040519080825280602002602001820160405280156115be57816020015b6115ab6122d7565b8152602001906001900390816115a35790505b50905060005b8251811015611911576000600260009054906101000a900473ffffffffffffffffffffffffffffffffffffffff1673ffffffffffffffffffffffffffffffffffffffff16638dc28966858481518110611646577f4e487b7100000000000000000000000000000000000000000000000000000000600052603260045260246000fd5b60200260200101516020015186858151811061168b577f4e487b7100000000000000000000000000000000000000000000000000000000600052603260045260246000fd5b6020026020010151604001516040518363ffffffff1660e01b81526004016116b4929190612b2b565b60006040518083038186803b1580156116cc57600080fd5b505afa1580156116e0573d6000803e3d6000fd5b505050506040513d6000823e3d601f19601f82011682018060405250810190611709919061252c565b9050838281518110611744577f4e487b7100000000000000000000000000000000000000000000000000000000600052603260045260246000fd5b6020026020010151606001518151106118fd5760005b848381518110611793577f4e487b7100000000000000000000000000000000000000000000000000000000600052603260045260246000fd5b6020026020010151606001518110156118fb5760405180608001604052808685815181106117ea577f4e487b7100000000000000000000000000000000000000000000000000000000600052603260045260246000fd5b6020026020010151600001518152602001838381518110611834577f4e487b7100000000000000000000000000000000000000000000000000000000600052603260045260246000fd5b602002602001015160200151815260200186858151811061187e577f4e487b7100000000000000000000000000000000000000000000000000000000600052603260045260246000fd5b6020026020010151602001518152602001600115158152508488815181106118cf577f4e487b7100000000000000000000000000000000000000000000000000000000600052603260045260246000fd5b602002602001018190525086806118e590612e88565b97505080806118f390612e88565b91505061175a565b505b50808061190990612e88565b9150506115c4565b508094505050505090565b6119246121de565b60005b600054811015611b7457826003828154811061196c577f4e487b7100000000000000000000000000000000000000000000000000000000600052603260045260246000fd5b9060005260206000209060070201600001541415611b6157600381815481106119be577f4e487b7100000000000000000000000000000000000000000000000000000000600052603260045260246000fd5b906000526020600020906007020160405180610100016040529081600082015481526020016001820180546119f290612e25565b80601f0160208091040260200160405190810160405280929190818152602001828054611a1e90612e25565b8015611a6b5780601f10611a4057610100808354040283529160200191611a6b565b820191906000526020600020905b815481529060010190602001808311611a4e57829003601f168201915b505050505081526020016002820154815260200160038201548152602001600482015481526020016005820160009054906101000a900473ffffffffffffffffffffffffffffffffffffffff1673ffffffffffffffffffffffffffffffffffffffff1673ffffffffffffffffffffffffffffffffffffffff1681526020016006820160009054906101000a900473ffffffffffffffffffffffffffffffffffffffff1673ffffffffffffffffffffffffffffffffffffffff1673ffffffffffffffffffffffffffffffffffffffff1681526020016006820160149054906101000a900460ff161515151581525050915050611b76565b8080611b6c90612e88565b915050611927565b505b919050565b600460405180610100016040528060015481526020018581526020018481526020018381526020014281526020013373ffffffffffffffffffffffffffffffffffffffff168152602001600073ffffffffffffffffffffffffffffffffffffffff168152602001600015158152509080600181540180825580915050600190039060005260206000209060070201600090919091909150600082015181600001556020820151816001019080519060200190611c38929190612251565b5060408201518160020155606082015181600301556080820151816004015560a08201518160050160006101000a81548173ffffffffffffffffffffffffffffffffffffffff021916908373ffffffffffffffffffffffffffffffffffffffff16021790555060c08201518160060160006101000a81548173ffffffffffffffffffffffffffffffffffffffff021916908373ffffffffffffffffffffffffffffffffffffffff16021790555060e08201518160060160146101000a81548160ff021916908315150217905550505060016000815480929190611d1a90612e88565b91905055507f045a4b00a1fc6952f970c2fc94fe99c7fb3265b2e5ed212e8b0bc355f9a9876360018054611d4e9190612d43565b8484844233600080604051611d6a989796959493929190612b7d565b60405180910390a1505050565b600260009054906101000a900473ffffffffffffffffffffffffffffffffffffffff1681565b606060008060005b600054811015611e6f573273ffffffffffffffffffffffffffffffffffffffff1660048281548110611e00577f4e487b7100000000000000000000000000000000000000000000000000000000600052603260045260246000fd5b906000526020600020906007020160050160009054906101000a900473ffffffffffffffffffffffffffffffffffffffff1673ffffffffffffffffffffffffffffffffffffffff1614611e5c578280611e5890612e88565b9350505b8080611e6790612e88565b915050611da5565b5060008267ffffffffffffffff811115611eb2577f4e487b7100000000000000000000000000000000000000000000000000000000600052604160045260246000fd5b604051908082528060200260200182016040528015611eeb57816020015b611ed86121de565b815260200190600190039081611ed05790505b50905060005b6000548110156121d4573273ffffffffffffffffffffffffffffffffffffffff1660048281548110611f4c577f4e487b7100000000000000000000000000000000000000000000000000000000600052603260045260246000fd5b906000526020600020906007020160050160009054906101000a900473ffffffffffffffffffffffffffffffffffffffff1673ffffffffffffffffffffffffffffffffffffffff16146121c15760038181548110611fd3577f4e487b7100000000000000000000000000000000000000000000000000000000600052603260045260246000fd5b9060005260206000209060070201604051806101000160405290816000820154815260200160018201805461200790612e25565b80601f016020809104026020016040519081016040528092919081815260200182805461203390612e25565b80156120805780601f1061205557610100808354040283529160200191612080565b820191906000526020600020905b81548152906001019060200180831161206357829003601f168201915b505050505081526020016002820154815260200160038201548152602001600482015481526020016005820160009054906101000a900473ffffffffffffffffffffffffffffffffffffffff1673ffffffffffffffffffffffffffffffffffffffff1673ffffffffffffffffffffffffffffffffffffffff1681526020016006820160009054906101000a900473ffffffffffffffffffffffffffffffffffffffff1673ffffffffffffffffffffffffffffffffffffffff1673ffffffffffffffffffffffffffffffffffffffff1681526020016006820160149054906101000a900460ff1615151515815250508284815181106121a7577f4e487b7100000000000000000000000000000000000000000000000000000000600052603260045260246000fd5b602002602001018190525082806121bd90612e88565b9350505b80806121cc90612e88565b915050611ef1565b5080935050505090565b6040518061010001604052806000815260200160608152602001600081526020016000815260200160008152602001600073ffffffffffffffffffffffffffffffffffffffff168152602001600073ffffffffffffffffffffffffffffffffffffffff1681526020016000151581525090565b82805461225d90612e25565b90600052602060002090601f01602090048101928261227f57600085556122c6565b82601f1061229857805160ff19168380011785556122c6565b828001600101855582156122c6579182015b828111156122c55782518255916020019190600101906122aa565b5b5090506122d39190612301565b5090565b60405180608001604052806000815260200160008152602001606081526020016000151581525090565b5b8082111561231a576000816000905550600101612302565b5090565b600061233161232c84612c27565b612c02565b9050808382526020820190508285602086028201111561235057600080fd5b60005b8581101561239a57815167ffffffffffffffff81111561237257600080fd5b80860161237f898261249e565b85526020850194506020840193505050600181019050612353565b5050509392505050565b60006123b76123b284612c53565b612c02565b9050828152602081018484840111156123cf57600080fd5b6123da848285612de3565b509392505050565b60006123f56123f084612c53565b612c02565b90508281526020810184848401111561240d57600080fd5b612418848285612df2565b509392505050565b600082601f83011261243157600080fd5b815161244184826020860161231e565b91505092915050565b600082601f83011261245b57600080fd5b813561246b8482602086016123a4565b91505092915050565b600082601f83011261248557600080fd5b81516124958482602086016123e2565b91505092915050565b6000604082840312156124b057600080fd5b6124ba6040612c02565b9050600082015167ffffffffffffffff8111156124d657600080fd5b6124e284828501612474565b60008301525060206124f684828501612517565b60208301525092915050565b60008135905061251181612f6f565b92915050565b60008151905061252681612f6f565b92915050565b60006020828403121561253e57600080fd5b600082015167ffffffffffffffff81111561255857600080fd5b61256484828501612420565b91505092915050565b60006020828403121561257f57600080fd5b600082013567ffffffffffffffff81111561259957600080fd5b6125a58482850161244a565b91505092915050565b6000806000606084860312156125c357600080fd5b600084013567ffffffffffffffff8111156125dd57600080fd5b6125e98682870161244a565b93505060206125fa86828701612502565b925050604061260b86828701612502565b9150509250925092565b60006020828403121561262757600080fd5b600061263584828501612502565b91505092915050565b600061264a83836128bd565b905092915050565b600061265e8383612920565b905092915050565b61266f81612d77565b82525050565b61267e81612d77565b82525050565b600061268f82612cb9565b6126998185612cf4565b9350836020820285016126ab85612c84565b8060005b858110156126e757848403895281516126c8858261263e565b94506126d383612cda565b925060208a019950506001810190506126af565b50829750879550505050505092915050565b600061270482612cc4565b61270e8185612d05565b93508360208202850161272085612c94565b8060005b8581101561275c578484038952815161273d8582612652565b945061274883612ce7565b925060208a01995050600181019050612724565b50829750879550505050505092915050565b61277781612d89565b82525050565b61278681612d89565b82525050565b61279581612dbf565b82525050565b60006127a682612ccf565b6127b08185612d16565b93506127c0818560208601612df2565b6127c981612f5e565b840191505092915050565b60006127df82612ccf565b6127e98185612d27565b93506127f9818560208601612df2565b61280281612f5e565b840191505092915050565b600061281882612ccf565b6128228185612d38565b9350612832818560208601612df2565b80840191505092915050565b6000815461284b81612e25565b6128558186612d38565b945060018216600081146128705760018114612881576128b4565b60ff198316865281860193506128b4565b61288a85612ca4565b60005b838110156128ac5781548189015260018201915060208101905061288d565b838801955050505b50505092915050565b60006080830160008301516128d56000860182612a80565b5060208301516128e86020860182612a80565b5060408301518482036040860152612900828261279b565b9150506060830151612915606086018261276e565b508091505092915050565b6000610100830160008301516129396000860182612a80565b5060208301518482036020860152612951828261279b565b91505060408301516129666040860182612a80565b5060608301516129796060860182612a80565b50608083015161298c6080860182612a80565b5060a083015161299f60a0860182612666565b5060c08301516129b260c0860182612666565b5060e08301516129c560e086018261276e565b508091505092915050565b6000610100830160008301516129e96000860182612a80565b5060208301518482036020860152612a01828261279b565b9150506040830151612a166040860182612a80565b506060830151612a296060860182612a80565b506080830151612a3c6080860182612a80565b5060a0830151612a4f60a0860182612666565b5060c0830151612a6260c0860182612666565b5060e0830151612a7560e086018261276e565b508091505092915050565b612a8981612db5565b82525050565b612a9881612db5565b82525050565b6000612aaa828461280d565b915081905092915050565b6000612ac1828461283e565b915081905092915050565b60006020820190508181036000830152612ae68184612684565b905092915050565b60006020820190508181036000830152612b0881846126f9565b905092915050565b6000602082019050612b25600083018461278c565b92915050565b60006040820190508181036000830152612b4581856127d4565b9050612b546020830184612a8f565b9392505050565b60006020820190508181036000830152612b7581846129d0565b905092915050565b600061010082019050612b93600083018b612a8f565b8181036020830152612ba5818a6127d4565b9050612bb46040830189612a8f565b612bc16060830188612a8f565b612bce6080830187612a8f565b612bdb60a0830186612675565b612be860c0830185612675565b612bf560e083018461277d565b9998505050505050505050565b6000612c0c612c1d565b9050612c188282612e57565b919050565b6000604051905090565b600067ffffffffffffffff821115612c4257612c41612f2f565b5b602082029050602081019050919050565b600067ffffffffffffffff821115612c6e57612c6d612f2f565b5b612c7782612f5e565b9050602081019050919050565b6000819050602082019050919050565b6000819050602082019050919050565b60008190508160005260206000209050919050565b600081519050919050565b600081519050919050565b600081519050919050565b6000602082019050919050565b6000602082019050919050565b600082825260208201905092915050565b600082825260208201905092915050565b600082825260208201905092915050565b600082825260208201905092915050565b600081905092915050565b6000612d4e82612db5565b9150612d5983612db5565b925082821015612d6c57612d6b612ed1565b5b828203905092915050565b6000612d8282612d95565b9050919050565b60008115159050919050565b600073ffffffffffffffffffffffffffffffffffffffff82169050919050565b6000819050919050565b6000612dca82612dd1565b9050919050565b6000612ddc82612d95565b9050919050565b82818337600083830152505050565b60005b83811015612e10578082015181840152602081019050612df5565b83811115612e1f576000848401525b50505050565b60006002820490506001821680612e3d57607f821691505b60208210811415612e5157612e50612f00565b5b50919050565b612e6082612f5e565b810181811067ffffffffffffffff82111715612e7f57612e7e612f2f565b5b80604052505050565b6000612e9382612db5565b91507fffffffffffffffffffffffffffffffffffffffffffffffffffffffffffffffff821415612ec657612ec5612ed1565b5b600182019050919050565b7f4e487b7100000000000000000000000000000000000000000000000000000000600052601160045260246000fd5b7f4e487b7100000000000000000000000000000000000000000000000000000000600052602260045260246000fd5b7f4e487b7100000000000000000000000000000000000000000000000000000000600052604160045260246000fd5b6000601f19601f8301169050919050565b612f7881612db5565b8114612f8357600080fd5b5056fea2646970667358221220da4178394fdf30b380287dfa7e2bf161085de49b716a97bf803b6992b5cd5bfa64736f6c63430008040033",
  "linkReferences": {},
  "deployedLinkReferences": {}
}