{
  "_format": "hh-sol-artifact-1",
  "contractName": "TransactionContract",
  "sourceName": "contracts/Transaction.sol",
  "abi": [
    {
      "inputs": [
        {
          "internalType": "address",
          "name": "_ldtContract",
          "type": "address"
        },
        {
          "internalType": "address",
          "name": "_assetContract",
          "type": "address"
        }
      ],
      "stateMutability": "nonpayable",
      "type": "constructor"
    },
    {
      "inputs": [
        {
          "components": [
            {
              "internalType": "string",
              "name": "company_id",
              "type": "string"
            },
            {
              "internalType": "uint256",
              "name": "asset_id",
              "type": "uint256"
            }
          ],
          "internalType": "struct TransactionContract.BuyParamsStruct[]",
          "name": "_buyParams",
          "type": "tuple[]"
        }
      ],
      "name": "buyAsset",
      "outputs": [],
      "stateMutability": "payable",
      "type": "function"
    }
  ],
  "bytecode": "0x608060405234801561001057600080fd5b506040516200106d3803806200106d833981810160405281019061003491906100d1565b806000806101000a81548173ffffffffffffffffffffffffffffffffffffffff021916908373ffffffffffffffffffffffffffffffffffffffff16021790555081600160006101000a81548173ffffffffffffffffffffffffffffffffffffffff021916908373ffffffffffffffffffffffffffffffffffffffff1602179055505050610156565b6000815190506100cb8161013f565b92915050565b600080604083850312156100e457600080fd5b60006100f2858286016100bc565b9250506020610103858286016100bc565b9150509250929050565b60006101188261011f565b9050919050565b600073ffffffffffffffffffffffffffffffffffffffff82169050919050565b6101488161010d565b811461015357600080fd5b50565b610f0780620001666000396000f3fe60806040526004361061001e5760003560e01c806351a39ede14610023575b600080fd5b61003d60048036038101906100389190610ad4565b61003f565b005b60005b81518110156107f85760008060009054906101000a900473ffffffffffffffffffffffffffffffffffffffff1673ffffffffffffffffffffffffffffffffffffffff1663aec7cbd28484815181106100c3577f4e487b7100000000000000000000000000000000000000000000000000000000600052603260045260246000fd5b602002602001015160000151858581518110610108577f4e487b7100000000000000000000000000000000000000000000000000000000600052603260045260246000fd5b6020026020010151602001516040518363ffffffff1660e01b8152600401610131929190610c0d565b60006040518083038186803b15801561014957600080fd5b505afa15801561015d573d6000803e3d6000fd5b505050506040513d6000823e3d601f19601f820116820180604052508101906101869190610b3e565b60200151905060008060009054906101000a900473ffffffffffffffffffffffffffffffffffffffff1673ffffffffffffffffffffffffffffffffffffffff1663aec7cbd2858581518110610204577f4e487b7100000000000000000000000000000000000000000000000000000000600052603260045260246000fd5b602002602001015160000151868681518110610249577f4e487b7100000000000000000000000000000000000000000000000000000000600052603260045260246000fd5b6020026020010151602001516040518363ffffffff1660e01b8152600401610272929190610c0d565b60006040518083038186803b15801561028a57600080fd5b505afa15801561029e573d6000803e3d6000fd5b505050506040513d6000823e3d601f19601f820116820180604052508101906102c79190610b3e565b606001519050600160009054906101000a900473ffffffffffffffffffffffffffffffffffffffff1673ffffffffffffffffffffffffffffffffffffffff166323b872dd3383856040518463ffffffff1660e01b815260040161032c93929190610bd6565b602060405180830381600087803b15801561034657600080fd5b505af115801561035a573d6000803e3d6000fd5b505050506040513d601f19601f8201168201806040525081019061037e9190610b15565b5060008054906101000a900473ffffffffffffffffffffffffffffffffffffffff1673ffffffffffffffffffffffffffffffffffffffff1663d639cedd8585815181106103f4577f4e487b7100000000000000000000000000000000000000000000000000000000600052603260045260246000fd5b602002602001015160000151868681518110610439577f4e487b7100000000000000000000000000000000000000000000000000000000600052603260045260246000fd5b602002602001015160200151336040518463ffffffff1660e01b815260040161046493929190610c3d565b600060405180830381600087803b15801561047e57600080fd5b505af1158015610492573d6000803e3d6000fd5b5050505060008054906101000a900473ffffffffffffffffffffffffffffffffffffffff1673ffffffffffffffffffffffffffffffffffffffff1663d3218d2c85858151811061050b577f4e487b7100000000000000000000000000000000000000000000000000000000600052603260045260246000fd5b602002602001015160000151868681518110610550577f4e487b7100000000000000000000000000000000000000000000000000000000600052603260045260246000fd5b6020026020010151602001516040518363ffffffff1660e01b8152600401610579929190610c0d565b600060405180830381600087803b15801561059357600080fd5b505af11580156105a7573d6000803e3d6000fd5b50505050600060405180608001604052808686815181106105f1577f4e487b7100000000000000000000000000000000000000000000000000000000600052603260045260246000fd5b60200260200101516020015181526020013373ffffffffffffffffffffffffffffffffffffffff16815260200184815260200142815250905060026000868681518110610667577f4e487b7100000000000000000000000000000000000000000000000000000000600052603260045260246000fd5b60200260200101516020015181526020019081526020016000208190806001815401808255809150506001900390600052602060002090600402016000909190919091506000820151816000015560208201518160010160006101000a81548173ffffffffffffffffffffffffffffffffffffffff021916908373ffffffffffffffffffffffffffffffffffffffff16021790555060408201518160020155606082015181600301555050600360003373ffffffffffffffffffffffffffffffffffffffff1673ffffffffffffffffffffffffffffffffffffffff1681526020019081526020016000208190806001815401808255809150506001900390600052602060002090600402016000909190919091506000820151816000015560208201518160010160006101000a81548173ffffffffffffffffffffffffffffffffffffffff021916908373ffffffffffffffffffffffffffffffffffffffff1602179055506040820151816002015560608201518160030155505050505080806107f090610dd4565b915050610042565b5050565b600061080f61080a84610ca0565b610c7b565b9050808382526020820190508285602086028201111561082e57600080fd5b60005b8581101561087857813567ffffffffffffffff81111561085057600080fd5b80860161085d8982610a46565b85526020850194506020840193505050600181019050610831565b5050509392505050565b600061089561089084610ccc565b610c7b565b9050828152602081018484840111156108ad57600080fd5b6108b8848285610d61565b509392505050565b60006108d36108ce84610ccc565b610c7b565b9050828152602081018484840111156108eb57600080fd5b6108f6848285610d70565b509392505050565b60008151905061090d81610e8c565b92915050565b600082601f83011261092457600080fd5b81356109348482602086016107fc565b91505092915050565b60008151905061094c81610ea3565b92915050565b600082601f83011261096357600080fd5b8135610973848260208601610882565b91505092915050565b600082601f83011261098d57600080fd5b815161099d8482602086016108c0565b91505092915050565b600060a082840312156109b857600080fd5b6109c260a0610c7b565b905060006109d284828501610abf565b60008301525060206109e684828501610abf565b602083015250604082015167ffffffffffffffff811115610a0657600080fd5b610a128482850161097c565b6040830152506060610a26848285016108fe565b6060830152506080610a3a8482850161093d565b60808301525092915050565b600060408284031215610a5857600080fd5b610a626040610c7b565b9050600082013567ffffffffffffffff811115610a7e57600080fd5b610a8a84828501610952565b6000830152506020610a9e84828501610aaa565b60208301525092915050565b600081359050610ab981610eba565b92915050565b600081519050610ace81610eba565b92915050565b600060208284031215610ae657600080fd5b600082013567ffffffffffffffff811115610b0057600080fd5b610b0c84828501610913565b91505092915050565b600060208284031215610b2757600080fd5b6000610b358482850161093d565b91505092915050565b600060208284031215610b5057600080fd5b600082015167ffffffffffffffff811115610b6a57600080fd5b610b76848285016109a6565b91505092915050565b610b8881610d19565b82525050565b6000610b9982610cfd565b610ba38185610d08565b9350610bb3818560208601610d70565b610bbc81610e7b565b840191505092915050565b610bd081610d57565b82525050565b6000606082019050610beb6000830186610b7f565b610bf86020830185610b7f565b610c056040830184610bc7565b949350505050565b60006040820190508181036000830152610c278185610b8e565b9050610c366020830184610bc7565b9392505050565b60006060820190508181036000830152610c578186610b8e565b9050610c666020830185610bc7565b610c736040830184610b7f565b949350505050565b6000610c85610c96565b9050610c918282610da3565b919050565b6000604051905090565b600067ffffffffffffffff821115610cbb57610cba610e4c565b5b602082029050602081019050919050565b600067ffffffffffffffff821115610ce757610ce6610e4c565b5b610cf082610e7b565b9050602081019050919050565b600081519050919050565b600082825260208201905092915050565b6000610d2482610d37565b9050919050565b60008115159050919050565b600073ffffffffffffffffffffffffffffffffffffffff82169050919050565b6000819050919050565b82818337600083830152505050565b60005b83811015610d8e578082015181840152602081019050610d73565b83811115610d9d576000848401525b50505050565b610dac82610e7b565b810181811067ffffffffffffffff82111715610dcb57610dca610e4c565b5b80604052505050565b6000610ddf82610d57565b91507fffffffffffffffffffffffffffffffffffffffffffffffffffffffffffffffff821415610e1257610e11610e1d565b5b600182019050919050565b7f4e487b7100000000000000000000000000000000000000000000000000000000600052601160045260246000fd5b7f4e487b7100000000000000000000000000000000000000000000000000000000600052604160045260246000fd5b6000601f19601f8301169050919050565b610e9581610d19565b8114610ea057600080fd5b50565b610eac81610d2b565b8114610eb757600080fd5b50565b610ec381610d57565b8114610ece57600080fd5b5056fea264697066735822122027a045b24b7cd26c0d30652b8ef8f38a2e859cf31dc1f7127b975688281baf1064736f6c63430008040033",
  "linkReferences": {},
  "deployedLinkReferences": {}
}