{
  "_format": "hh-sol-artifact-1",
  "contractName": "TransactionContract",
  "sourceName": "contracts/Transaction.sol",
  "abi": [
    {
      "inputs": [
        {
          "internalType": "address",
          "name": "_ldtContract",
          "type": "address"
        },
        {
          "internalType": "address",
          "name": "_assetContract",
          "type": "address"
        }
      ],
      "stateMutability": "nonpayable",
      "type": "constructor"
    },
    {
      "inputs": [
        {
          "components": [
            {
              "internalType": "string",
              "name": "company_id",
              "type": "string"
            },
            {
              "internalType": "uint256",
              "name": "asset_id",
              "type": "uint256"
            }
          ],
          "internalType": "struct TransactionContract.BuyParamsStruct[]",
          "name": "_buyParams",
          "type": "tuple[]"
        }
      ],
      "name": "buyAsset",
      "outputs": [],
      "stateMutability": "payable",
      "type": "function"
    },
    {
      "inputs": [],
      "name": "getUserTransactions",
      "outputs": [
        {
          "components": [
            {
              "internalType": "uint256",
              "name": "asset_id",
              "type": "uint256"
            },
            {
              "internalType": "string",
              "name": "company_id",
              "type": "string"
            },
            {
              "internalType": "address",
              "name": "userId",
              "type": "address"
            },
            {
              "internalType": "uint256",
              "name": "sellPrice",
              "type": "uint256"
            },
            {
              "internalType": "uint256",
              "name": "timestamp",
              "type": "uint256"
            },
            {
              "internalType": "bool",
              "name": "isBuyer",
              "type": "bool"
            }
          ],
          "internalType": "struct TransactionContract.Transaction[]",
          "name": "",
          "type": "tuple[]"
        }
      ],
      "stateMutability": "view",
      "type": "function"
    }
  ],
  "bytecode": "0x60806040523480156200001157600080fd5b5060405162001805380380620018058339818101604052810190620000379190620000d7565b806000806101000a81548173ffffffffffffffffffffffffffffffffffffffff021916908373ffffffffffffffffffffffffffffffffffffffff16021790555081600160006101000a81548173ffffffffffffffffffffffffffffffffffffffff021916908373ffffffffffffffffffffffffffffffffffffffff160217905550505062000166565b600081519050620000d1816200014c565b92915050565b60008060408385031215620000eb57600080fd5b6000620000fb85828601620000c0565b92505060206200010e85828601620000c0565b9150509250929050565b600062000125826200012c565b9050919050565b600073ffffffffffffffffffffffffffffffffffffffff82169050919050565b620001578162000118565b81146200016357600080fd5b50565b61168f80620001766000396000f3fe6080604052600436106100295760003560e01c806351a39ede1461002e5780636fe691dc1461004a575b600080fd5b61004860048036038101906100439190611017565b610075565b005b34801561005657600080fd5b5061005f610adf565b60405161006c91906112c8565b60405180910390f35b60005b8151811015610adb5760008060009054906101000a900473ffffffffffffffffffffffffffffffffffffffff1673ffffffffffffffffffffffffffffffffffffffff1663aec7cbd28484815181106100f9577f4e487b7100000000000000000000000000000000000000000000000000000000600052603260045260246000fd5b60200260200101516000015185858151811061013e577f4e487b7100000000000000000000000000000000000000000000000000000000600052603260045260246000fd5b6020026020010151602001516040518363ffffffff1660e01b81526004016101679291906112ea565b60006040518083038186803b15801561017f57600080fd5b505afa158015610193573d6000803e3d6000fd5b505050506040513d6000823e3d601f19601f820116820180604052508101906101bc9190611081565b60200151905060008060009054906101000a900473ffffffffffffffffffffffffffffffffffffffff1673ffffffffffffffffffffffffffffffffffffffff1663aec7cbd285858151811061023a577f4e487b7100000000000000000000000000000000000000000000000000000000600052603260045260246000fd5b60200260200101516000015186868151811061027f577f4e487b7100000000000000000000000000000000000000000000000000000000600052603260045260246000fd5b6020026020010151602001516040518363ffffffff1660e01b81526004016102a89291906112ea565b60006040518083038186803b1580156102c057600080fd5b505afa1580156102d4573d6000803e3d6000fd5b505050506040513d6000823e3d601f19601f820116820180604052508101906102fd9190611081565b606001519050600160009054906101000a900473ffffffffffffffffffffffffffffffffffffffff1673ffffffffffffffffffffffffffffffffffffffff166323b872dd3383856040518463ffffffff1660e01b815260040161036293929190611291565b602060405180830381600087803b15801561037c57600080fd5b505af1158015610390573d6000803e3d6000fd5b505050506040513d601f19601f820116820180604052508101906103b49190611058565b5060008054906101000a900473ffffffffffffffffffffffffffffffffffffffff1673ffffffffffffffffffffffffffffffffffffffff1663d639cedd85858151811061042a577f4e487b7100000000000000000000000000000000000000000000000000000000600052603260045260246000fd5b60200260200101516000015186868151811061046f577f4e487b7100000000000000000000000000000000000000000000000000000000600052603260045260246000fd5b602002602001015160200151336040518463ffffffff1660e01b815260040161049a9392919061131a565b600060405180830381600087803b1580156104b457600080fd5b505af11580156104c8573d6000803e3d6000fd5b5050505060008054906101000a900473ffffffffffffffffffffffffffffffffffffffff1673ffffffffffffffffffffffffffffffffffffffff1663d3218d2c858581518110610541577f4e487b7100000000000000000000000000000000000000000000000000000000600052603260045260246000fd5b602002602001015160000151868681518110610586577f4e487b7100000000000000000000000000000000000000000000000000000000600052603260045260246000fd5b6020026020010151602001516040518363ffffffff1660e01b81526004016105af9291906112ea565b600060405180830381600087803b1580156105c957600080fd5b505af11580156105dd573d6000803e3d6000fd5b5050505060006040518060c00160405280868681518110610627577f4e487b7100000000000000000000000000000000000000000000000000000000600052603260045260246000fd5b6020026020010151602001518152602001868681518110610671577f4e487b7100000000000000000000000000000000000000000000000000000000600052603260045260246000fd5b60200260200101516000015181526020013373ffffffffffffffffffffffffffffffffffffffff16815260200184815260200142815260200160011515815250905060006040518060c001604052808787815181106106f9577f4e487b7100000000000000000000000000000000000000000000000000000000600052603260045260246000fd5b6020026020010151602001518152602001878781518110610743577f4e487b7100000000000000000000000000000000000000000000000000000000600052603260045260246000fd5b60200260200101516000015181526020018473ffffffffffffffffffffffffffffffffffffffff168152602001858152602001428152602001600015158152509050600260008787815181106107c2577f4e487b7100000000000000000000000000000000000000000000000000000000600052603260045260246000fd5b602002602001015160200151815260200190815260200160002082908060018154018082558091505060019003906000526020600020906006020160009091909190915060008201518160000155602082015181600101908051906020019061082c929190610c9c565b5060408201518160020160006101000a81548173ffffffffffffffffffffffffffffffffffffffff021916908373ffffffffffffffffffffffffffffffffffffffff160217905550606082015181600301556080820151816004015560a08201518160050160006101000a81548160ff0219169083151502179055505050600360003373ffffffffffffffffffffffffffffffffffffffff1673ffffffffffffffffffffffffffffffffffffffff168152602001908152602001600020829080600181540180825580915050600190039060005260206000209060060201600090919091909150600082015181600001556020820151816001019080519060200190610939929190610c9c565b5060408201518160020160006101000a81548173ffffffffffffffffffffffffffffffffffffffff021916908373ffffffffffffffffffffffffffffffffffffffff160217905550606082015181600301556080820151816004015560a08201518160050160006101000a81548160ff0219169083151502179055505050600360008473ffffffffffffffffffffffffffffffffffffffff1673ffffffffffffffffffffffffffffffffffffffff168152602001908152602001600020819080600181540180825580915050600190039060005260206000209060060201600090919091909150600082015181600001556020820151816001019080519060200190610a46929190610c9c565b5060408201518160020160006101000a81548173ffffffffffffffffffffffffffffffffffffffff021916908373ffffffffffffffffffffffffffffffffffffffff160217905550606082015181600301556080820151816004015560a08201518160050160006101000a81548160ff0219169083151502179055505050505050508080610ad39061152d565b915050610078565b5050565b6060600360003373ffffffffffffffffffffffffffffffffffffffff1673ffffffffffffffffffffffffffffffffffffffff168152602001908152602001600020805480602002602001604051908101604052809291908181526020016000905b82821015610c9357838290600052602060002090600602016040518060c001604052908160008201548152602001600182018054610b7d906114ca565b80601f0160208091040260200160405190810160405280929190818152602001828054610ba9906114ca565b8015610bf65780601f10610bcb57610100808354040283529160200191610bf6565b820191906000526020600020905b815481529060010190602001808311610bd957829003601f168201915b505050505081526020016002820160009054906101000a900473ffffffffffffffffffffffffffffffffffffffff1673ffffffffffffffffffffffffffffffffffffffff1673ffffffffffffffffffffffffffffffffffffffff16815260200160038201548152602001600482015481526020016005820160009054906101000a900460ff16151515158152505081526020019060010190610b40565b50505050905090565b828054610ca8906114ca565b90600052602060002090601f016020900481019282610cca5760008555610d11565b82601f10610ce357805160ff1916838001178555610d11565b82800160010185558215610d11579182015b82811115610d10578251825591602001919060010190610cf5565b5b509050610d1e9190610d22565b5090565b5b80821115610d3b576000816000905550600101610d23565b5090565b6000610d52610d4d8461137d565b611358565b90508083825260208201905082856020860282011115610d7157600080fd5b60005b85811015610dbb57813567ffffffffffffffff811115610d9357600080fd5b808601610da08982610f89565b85526020850194506020840193505050600181019050610d74565b5050509392505050565b6000610dd8610dd3846113a9565b611358565b905082815260208101848484011115610df057600080fd5b610dfb848285611488565b509392505050565b6000610e16610e11846113a9565b611358565b905082815260208101848484011115610e2e57600080fd5b610e39848285611497565b509392505050565b600081519050610e5081611614565b92915050565b600082601f830112610e6757600080fd5b8135610e77848260208601610d3f565b91505092915050565b600081519050610e8f8161162b565b92915050565b600082601f830112610ea657600080fd5b8135610eb6848260208601610dc5565b91505092915050565b600082601f830112610ed057600080fd5b8151610ee0848260208601610e03565b91505092915050565b600060a08284031215610efb57600080fd5b610f0560a0611358565b90506000610f1584828501611002565b6000830152506020610f2984828501611002565b602083015250604082015167ffffffffffffffff811115610f4957600080fd5b610f5584828501610ebf565b6040830152506060610f6984828501610e41565b6060830152506080610f7d84828501610e80565b60808301525092915050565b600060408284031215610f9b57600080fd5b610fa56040611358565b9050600082013567ffffffffffffffff811115610fc157600080fd5b610fcd84828501610e95565b6000830152506020610fe184828501610fed565b60208301525092915050565b600081359050610ffc81611642565b92915050565b60008151905061101181611642565b92915050565b60006020828403121561102957600080fd5b600082013567ffffffffffffffff81111561104357600080fd5b61104f84828501610e56565b91505092915050565b60006020828403121561106a57600080fd5b600061107884828501610e80565b91505092915050565b60006020828403121561109357600080fd5b600082015167ffffffffffffffff8111156110ad57600080fd5b6110b984828501610ee9565b91505092915050565b60006110ce83836111ea565b905092915050565b6110df81611440565b82525050565b6110ee81611440565b82525050565b60006110ff826113ea565b611109818561140d565b93508360208202850161111b856113da565b8060005b85811015611157578484038952815161113885826110c2565b945061114383611400565b925060208a0199505060018101905061111f565b50829750879550505050505092915050565b61117281611452565b82525050565b6000611183826113f5565b61118d818561141e565b935061119d818560208601611497565b6111a681611603565b840191505092915050565b60006111bc826113f5565b6111c6818561142f565b93506111d6818560208601611497565b6111df81611603565b840191505092915050565b600060c0830160008301516112026000860182611273565b506020830151848203602086015261121a8282611178565b915050604083015161122f60408601826110d6565b5060608301516112426060860182611273565b5060808301516112556080860182611273565b5060a083015161126860a0860182611169565b508091505092915050565b61127c8161147e565b82525050565b61128b8161147e565b82525050565b60006060820190506112a660008301866110e5565b6112b360208301856110e5565b6112c06040830184611282565b949350505050565b600060208201905081810360008301526112e281846110f4565b905092915050565b6000604082019050818103600083015261130481856111b1565b90506113136020830184611282565b9392505050565b6000606082019050818103600083015261133481866111b1565b90506113436020830185611282565b61135060408301846110e5565b949350505050565b6000611362611373565b905061136e82826114fc565b919050565b6000604051905090565b600067ffffffffffffffff821115611398576113976115d4565b5b602082029050602081019050919050565b600067ffffffffffffffff8211156113c4576113c36115d4565b5b6113cd82611603565b9050602081019050919050565b6000819050602082019050919050565b600081519050919050565b600081519050919050565b6000602082019050919050565b600082825260208201905092915050565b600082825260208201905092915050565b600082825260208201905092915050565b600061144b8261145e565b9050919050565b60008115159050919050565b600073ffffffffffffffffffffffffffffffffffffffff82169050919050565b6000819050919050565b82818337600083830152505050565b60005b838110156114b557808201518184015260208101905061149a565b838111156114c4576000848401525b50505050565b600060028204905060018216806114e257607f821691505b602082108114156114f6576114f56115a5565b5b50919050565b61150582611603565b810181811067ffffffffffffffff82111715611524576115236115d4565b5b80604052505050565b60006115388261147e565b91507fffffffffffffffffffffffffffffffffffffffffffffffffffffffffffffffff82141561156b5761156a611576565b5b600182019050919050565b7f4e487b7100000000000000000000000000000000000000000000000000000000600052601160045260246000fd5b7f4e487b7100000000000000000000000000000000000000000000000000000000600052602260045260246000fd5b7f4e487b7100000000000000000000000000000000000000000000000000000000600052604160045260246000fd5b6000601f19601f8301169050919050565b61161d81611440565b811461162857600080fd5b50565b61163481611452565b811461163f57600080fd5b50565b61164b8161147e565b811461165657600080fd5b5056fea264697066735822122030ef2286bf57e4e46b5e509eb43052d23b339870ed7a1ff91ae098e905e375b464736f6c63430008040033",
  "linkReferences": {},
  "deployedLinkReferences": {}
}