{
  "_format": "hh-sol-artifact-1",
  "contractName": "TransactionContract",
  "sourceName": "contracts/Transaction.sol",
  "abi": [
    {
      "inputs": [
        {
          "internalType": "address",
          "name": "_ldtContract",
          "type": "address"
        },
        {
          "internalType": "address",
          "name": "_assetContract",
          "type": "address"
        }
      ],
      "stateMutability": "nonpayable",
      "type": "constructor"
    },
    {
      "inputs": [
        {
          "components": [
            {
              "internalType": "string",
              "name": "company_id",
              "type": "string"
            },
            {
              "internalType": "uint256",
              "name": "asset_id",
              "type": "uint256"
            }
          ],
          "internalType": "struct TransactionContract.BuyParamsStruct[]",
          "name": "_buyParams",
          "type": "tuple[]"
        }
      ],
      "name": "buyAsset",
      "outputs": [],
      "stateMutability": "payable",
      "type": "function"
    },
    {
      "inputs": [],
      "name": "getUserTransactions",
      "outputs": [
        {
          "components": [
            {
              "internalType": "uint256",
              "name": "asset_id",
              "type": "uint256"
            },
            {
              "internalType": "address",
              "name": "userId",
              "type": "address"
            },
            {
              "internalType": "uint256",
              "name": "sellPrice",
              "type": "uint256"
            },
            {
              "internalType": "uint256",
              "name": "timestamp",
              "type": "uint256"
            },
            {
              "internalType": "bool",
              "name": "isBuyer",
              "type": "bool"
            }
          ],
          "internalType": "struct TransactionContract.Transaction[]",
          "name": "",
          "type": "tuple[]"
        }
      ],
      "stateMutability": "view",
      "type": "function"
    }
  ],
  "bytecode": "0x60806040523480156200001157600080fd5b5060405162001506380380620015068339818101604052810190620000379190620000d7565b806000806101000a81548173ffffffffffffffffffffffffffffffffffffffff021916908373ffffffffffffffffffffffffffffffffffffffff16021790555081600160006101000a81548173ffffffffffffffffffffffffffffffffffffffff021916908373ffffffffffffffffffffffffffffffffffffffff160217905550505062000166565b600081519050620000d1816200014c565b92915050565b60008060408385031215620000eb57600080fd5b6000620000fb85828601620000c0565b92505060206200010e85828601620000c0565b9150509250929050565b600062000125826200012c565b9050919050565b600073ffffffffffffffffffffffffffffffffffffffff82169050919050565b620001578162000118565b81146200016357600080fd5b50565b61139080620001766000396000f3fe6080604052600436106100295760003560e01c806351a39ede1461002e5780636fe691dc1461004a575b600080fd5b61004860048036038101906100439190610df7565b610075565b005b34801561005657600080fd5b5061005f6109f4565b60405161006c919061103b565b60405180910390f35b60005b81518110156109f05760008060009054906101000a900473ffffffffffffffffffffffffffffffffffffffff1673ffffffffffffffffffffffffffffffffffffffff1663aec7cbd28484815181106100f9577f4e487b7100000000000000000000000000000000000000000000000000000000600052603260045260246000fd5b60200260200101516000015185858151811061013e577f4e487b7100000000000000000000000000000000000000000000000000000000600052603260045260246000fd5b6020026020010151602001516040518363ffffffff1660e01b815260040161016792919061105d565b60006040518083038186803b15801561017f57600080fd5b505afa158015610193573d6000803e3d6000fd5b505050506040513d6000823e3d601f19601f820116820180604052508101906101bc9190610e61565b60200151905060008060009054906101000a900473ffffffffffffffffffffffffffffffffffffffff1673ffffffffffffffffffffffffffffffffffffffff1663aec7cbd285858151811061023a577f4e487b7100000000000000000000000000000000000000000000000000000000600052603260045260246000fd5b60200260200101516000015186868151811061027f577f4e487b7100000000000000000000000000000000000000000000000000000000600052603260045260246000fd5b6020026020010151602001516040518363ffffffff1660e01b81526004016102a892919061105d565b60006040518083038186803b1580156102c057600080fd5b505afa1580156102d4573d6000803e3d6000fd5b505050506040513d6000823e3d601f19601f820116820180604052508101906102fd9190610e61565b606001519050600160009054906101000a900473ffffffffffffffffffffffffffffffffffffffff1673ffffffffffffffffffffffffffffffffffffffff166323b872dd3383856040518463ffffffff1660e01b815260040161036293929190611004565b602060405180830381600087803b15801561037c57600080fd5b505af1158015610390573d6000803e3d6000fd5b505050506040513d601f19601f820116820180604052508101906103b49190610e38565b5060008054906101000a900473ffffffffffffffffffffffffffffffffffffffff1673ffffffffffffffffffffffffffffffffffffffff1663d639cedd85858151811061042a577f4e487b7100000000000000000000000000000000000000000000000000000000600052603260045260246000fd5b60200260200101516000015186868151811061046f577f4e487b7100000000000000000000000000000000000000000000000000000000600052603260045260246000fd5b602002602001015160200151336040518463ffffffff1660e01b815260040161049a9392919061108d565b600060405180830381600087803b1580156104b457600080fd5b505af11580156104c8573d6000803e3d6000fd5b5050505060008054906101000a900473ffffffffffffffffffffffffffffffffffffffff1673ffffffffffffffffffffffffffffffffffffffff1663d3218d2c858581518110610541577f4e487b7100000000000000000000000000000000000000000000000000000000600052603260045260246000fd5b602002602001015160000151868681518110610586577f4e487b7100000000000000000000000000000000000000000000000000000000600052603260045260246000fd5b6020026020010151602001516040518363ffffffff1660e01b81526004016105af92919061105d565b600060405180830381600087803b1580156105c957600080fd5b505af11580156105dd573d6000803e3d6000fd5b5050505060006040518060a00160405280868681518110610627577f4e487b7100000000000000000000000000000000000000000000000000000000600052603260045260246000fd5b60200260200101516020015181526020013373ffffffffffffffffffffffffffffffffffffffff16815260200184815260200142815260200160011515815250905060006040518060a001604052808787815181106106af577f4e487b7100000000000000000000000000000000000000000000000000000000600052603260045260246000fd5b60200260200101516020015181526020013373ffffffffffffffffffffffffffffffffffffffff1681526020018581526020014281526020016001151581525090506002600087878151811061072e577f4e487b7100000000000000000000000000000000000000000000000000000000600052603260045260246000fd5b60200260200101516020015181526020019081526020016000208290806001815401808255809150506001900390600052602060002090600502016000909190919091506000820151816000015560208201518160010160006101000a81548173ffffffffffffffffffffffffffffffffffffffff021916908373ffffffffffffffffffffffffffffffffffffffff160217905550604082015181600201556060820151816003015560808201518160040160006101000a81548160ff0219169083151502179055505050600360003373ffffffffffffffffffffffffffffffffffffffff1673ffffffffffffffffffffffffffffffffffffffff1681526020019081526020016000208290806001815401808255809150506001900390600052602060002090600502016000909190919091506000820151816000015560208201518160010160006101000a81548173ffffffffffffffffffffffffffffffffffffffff021916908373ffffffffffffffffffffffffffffffffffffffff160217905550604082015181600201556060820151816003015560808201518160040160006101000a81548160ff0219169083151502179055505050600360008473ffffffffffffffffffffffffffffffffffffffff1673ffffffffffffffffffffffffffffffffffffffff1681526020019081526020016000208190806001815401808255809150506001900390600052602060002090600502016000909190919091506000820151816000015560208201518160010160006101000a81548173ffffffffffffffffffffffffffffffffffffffff021916908373ffffffffffffffffffffffffffffffffffffffff160217905550604082015181600201556060820151816003015560808201518160040160006101000a81548160ff02191690831515021790555050505050505080806109e89061125d565b915050610078565b5050565b6060600360003373ffffffffffffffffffffffffffffffffffffffff1673ffffffffffffffffffffffffffffffffffffffff168152602001908152602001600020805480602002602001604051908101604052809291908181526020016000905b82821015610b1657838290600052602060002090600502016040518060a0016040529081600082015481526020016001820160009054906101000a900473ffffffffffffffffffffffffffffffffffffffff1673ffffffffffffffffffffffffffffffffffffffff1673ffffffffffffffffffffffffffffffffffffffff16815260200160028201548152602001600382015481526020016004820160009054906101000a900460ff16151515158152505081526020019060010190610a55565b50505050905090565b6000610b32610b2d846110f0565b6110cb565b90508083825260208201905082856020860282011115610b5157600080fd5b60005b85811015610b9b57813567ffffffffffffffff811115610b7357600080fd5b808601610b808982610d69565b85526020850194506020840193505050600181019050610b54565b5050509392505050565b6000610bb8610bb38461111c565b6110cb565b905082815260208101848484011115610bd057600080fd5b610bdb8482856111ea565b509392505050565b6000610bf6610bf18461111c565b6110cb565b905082815260208101848484011115610c0e57600080fd5b610c198482856111f9565b509392505050565b600081519050610c3081611315565b92915050565b600082601f830112610c4757600080fd5b8135610c57848260208601610b1f565b91505092915050565b600081519050610c6f8161132c565b92915050565b600082601f830112610c8657600080fd5b8135610c96848260208601610ba5565b91505092915050565b600082601f830112610cb057600080fd5b8151610cc0848260208601610be3565b91505092915050565b600060a08284031215610cdb57600080fd5b610ce560a06110cb565b90506000610cf584828501610de2565b6000830152506020610d0984828501610de2565b602083015250604082015167ffffffffffffffff811115610d2957600080fd5b610d3584828501610c9f565b6040830152506060610d4984828501610c21565b6060830152506080610d5d84828501610c60565b60808301525092915050565b600060408284031215610d7b57600080fd5b610d8560406110cb565b9050600082013567ffffffffffffffff811115610da157600080fd5b610dad84828501610c75565b6000830152506020610dc184828501610dcd565b60208301525092915050565b600081359050610ddc81611343565b92915050565b600081519050610df181611343565b92915050565b600060208284031215610e0957600080fd5b600082013567ffffffffffffffff811115610e2357600080fd5b610e2f84828501610c36565b91505092915050565b600060208284031215610e4a57600080fd5b6000610e5884828501610c60565b91505092915050565b600060208284031215610e7357600080fd5b600082015167ffffffffffffffff811115610e8d57600080fd5b610e9984828501610cc9565b91505092915050565b6000610eae8383610f7e565b60a08301905092915050565b610ec3816111a2565b82525050565b610ed2816111a2565b82525050565b6000610ee38261115d565b610eed8185611180565b9350610ef88361114d565b8060005b83811015610f29578151610f108882610ea2565b9750610f1b83611173565b925050600181019050610efc565b5085935050505092915050565b610f3f816111b4565b82525050565b6000610f5082611168565b610f5a8185611191565b9350610f6a8185602086016111f9565b610f7381611304565b840191505092915050565b60a082016000820151610f946000850182610fe6565b506020820151610fa76020850182610eba565b506040820151610fba6040850182610fe6565b506060820151610fcd6060850182610fe6565b506080820151610fe06080850182610f36565b50505050565b610fef816111e0565b82525050565b610ffe816111e0565b82525050565b60006060820190506110196000830186610ec9565b6110266020830185610ec9565b6110336040830184610ff5565b949350505050565b600060208201905081810360008301526110558184610ed8565b905092915050565b600060408201905081810360008301526110778185610f45565b90506110866020830184610ff5565b9392505050565b600060608201905081810360008301526110a78186610f45565b90506110b66020830185610ff5565b6110c36040830184610ec9565b949350505050565b60006110d56110e6565b90506110e1828261122c565b919050565b6000604051905090565b600067ffffffffffffffff82111561110b5761110a6112d5565b5b602082029050602081019050919050565b600067ffffffffffffffff821115611137576111366112d5565b5b61114082611304565b9050602081019050919050565b6000819050602082019050919050565b600081519050919050565b600081519050919050565b6000602082019050919050565b600082825260208201905092915050565b600082825260208201905092915050565b60006111ad826111c0565b9050919050565b60008115159050919050565b600073ffffffffffffffffffffffffffffffffffffffff82169050919050565b6000819050919050565b82818337600083830152505050565b60005b838110156112175780820151818401526020810190506111fc565b83811115611226576000848401525b50505050565b61123582611304565b810181811067ffffffffffffffff82111715611254576112536112d5565b5b80604052505050565b6000611268826111e0565b91507fffffffffffffffffffffffffffffffffffffffffffffffffffffffffffffffff82141561129b5761129a6112a6565b5b600182019050919050565b7f4e487b7100000000000000000000000000000000000000000000000000000000600052601160045260246000fd5b7f4e487b7100000000000000000000000000000000000000000000000000000000600052604160045260246000fd5b6000601f19601f8301169050919050565b61131e816111a2565b811461132957600080fd5b50565b611335816111b4565b811461134057600080fd5b50565b61134c816111e0565b811461135757600080fd5b5056fea26469706673582212200035f091ed79eb9baf1878c1f56c8a58932c99d36623bb10fd84bcc0d18d1c9c64736f6c63430008040033",
  "linkReferences": {},
  "deployedLinkReferences": {}
}